:020000040800F2
:1000000038040020A10100088F100008C30F000869
:100010008D100008AD020008B511000800000000B6
:1000200000000000000000000000000003110008B4
:10003000AF02000800000000911000080511000840
:10004000BB010008BB010008BB010008BB010008A0
:10005000BB010008BB010008BB010008BB01000890
:10006000BB010008BB010008BB010008BB01000880
:10007000BB010008BB010008BB010008BB01000870
:10008000BB010008BB010008BB010008BB01000860
:10009000BB010008BB010008BB010008BB01000850
:1000A000BB010008BB010008BB010008BB01000840
:1000B000BB010008BB010008BB010008BB01000830
:1000C000BB010008BB010008BB010008BB01000820
:1000D000BB010008BB010008BB010008BB01000810
:1000E000BB01000895100008BB010008BB01000817
:1000F000BB010008BB010008BB010008BB010008F0
:10010000BB010008BB010008BB010008BB010008DF
:10011000BB010008BB010008BB010008BB010008CF
:10012000BB010008BB010008BB010008BB010008BF
:10013000BB010008BB010008BB010008BB010008AF
:10014000BB010008BB010008BB010008BB0100089F
:10015000BB010008BB010008BB010008BB0100088F
:10016000BB010008BB010008BB010008BB0100087F
:10017000BB010008BB010008BB0100080000000033
:10018000BB010008BB010008DFF810D000F07CF8CC
:1001900000480047F5110008AFF300803804002044
:1001A0000648804706480047FEE7FEE7FEE7FEE711
:1001B000FEE7FEE7FEE7FEE7FEE7FEE7A511000823
:1001C000890100082DE9F05F0546002092469B4614
:1001D00088460646814640241BE02846414647465D
:1001E000224600F041F853465A46C01A914110D3B6
:1001F00011461846224600F028F82D1A67EB010830
:100200004F4622460120002100F01FF817EB00099D
:100210004E41201EA4F10104DFDC484631462A4647
:100220004346BDE8F09FD2B201E000F8012B491E21
:10023000FBD270470022F6E710B513460A46044683
:100240001946FFF7F0FF204610BD202A04DB203AB4
:1002500000FA02F1002070479140C2F1200320FA19
:1002600003F3194390407047202A04DB203A21FA17
:1002700002F00021704721FA02F3D040C2F12002BF
:100280009140084319467047064C074D06E0E06868
:1002900040F0010394E8070098471034AC42F6D3CD
:1002A000FFF776FF98120008B8120008FEE77047C3
:1002B00070B5044600F00EF80546601C02D00448F4
:1002C0000078044400F006F8401BA042FAD370BD49
:1002D00004000020014880687047000004000020EE
:1002E0000248816802781144816070470400002050
:1002F0000B4810B5016841F400710160016841F4D8
:1003000080610160016841F480710160032000F0A8
:100310006FF8002000F006F800F024F8002010BD6F
:10032000003C024070B50D4D04464FF47A712878B8
:10033000B1FBF0F00A490968B1FBF0F000F02DFEC6
:1003400048B9102C07D200222146501E00F030F888
:1003500000206C6070BD012070BD00000400002012
:10036000100000200A4808B5016841F4804101608E
:10037000006800F4804000900548001F016841F0CB
:1003800080510160006800F08050009008BD0000BE
:1003900044380240002809DB00F01F02012191408F
:1003A0004009800000F1E020C0F800117047000013
:1003B000F0B40E4B1B680C46C3F30223C3F10705D0
:1003C000042D00D90425191D072901D2002300E0BE
:1003D000DB1E012606FA05F1491E214099409E4088
:1003E000761E16403143F0BC00F0E5BE0CED00E097
:1003F000064900F0070208684FF6FF03184040EA7C
:100400000220034A10430860704700000CED00E032
:100410000000FA052DE9F843054600684FF0010990
:10042000C1074FF0000601D1400727D5DFF80C8146
:10043000C8F86860FFF74EFF0746414C05E000BF73
:10044000FFF748FFC01B022857D820680001F7D4E7
:1004500068688101287A41EA00703949843108606E
:10046000C8F86890FFF736FF074604E0FFF732FF51
:10047000C01B022841D820680001F7D528788007E2
:1004800052D52F484030016841F08051016000682A
:100490002C4C00F080500090206840F48070206068
:1004A000FFF718FF074604E0FFF714FFC01B022800
:1004B00023D82068C005F7D5214C7034206810F48B
:1004C000407020D0A98901F4407181421BD020687E
:1004D0001D4920F44070C1F800900E602060206833
:1004E000C00710D0FFF7F6FE064641F2883707E056
:1004F000FFF7F0FE801BB84202D90320BDE8F88365
:1005000020688007F4D5E9680D48C1F3012208305E
:10051000032A0BD0016821F4F81101602068A98931
:10052000C1F30B01084320600020E7E70268074B96
:1005300022F4F81219400A430260EFE70000474234
:100540000038024000700040400E4742FFFCFF0FA1
:100550002DE9F0470E46050065D0DFF81481D8F884
:100560000000F7B200F00700B04207D288F8007030
:10057000D8F8000000F00700B04254D128683D4C84
:10058000810712D5400703D5206840F4E050206071
:100590002878000703D5206840F460402060206878
:1005A000A96820F0F000084320602878C0072DD00B
:1005B000304968680839012812D0022813D003286E
:1005C00011D00968890700292DDA216821F003017B
:1005D00001432160FFF77EFE814641F2883A0EE03A
:1005E00009688903EFE709688901ECE7FFF772FE04
:1005F000A0EB0901514502D90320BDE8F08720682E
:10060000696800F00C00B0EB810FEFD1D8F8001052
:10061000404601F00701B14207D90770006800F0B9
:100620000700B04201D00120E7E72878400705D550
:100630002068E96820F4E05008432060287800072B
:1006400006D52068296920F4604040EAC100206096
:1006500000F018F82168084AC1F30311515CC84042
:100660000649086006480068FFF75CFE0020C4E702
:10067000003C0240083802408812000810000020A8
:1006800008000020154810B5006810F00C0214484E
:1006900013D01449042A0FD0082A0ED10F4C241F5E
:1006A0002268236802F03F025B0207D52068C0F38E
:1006B0008810A0FB010106E0084610BD2168C1F3C7
:1006C0008811A1FB00010023FFF77CFD2168C1F325
:1006D0000141491C4900B0FBF1F010BD083802404F
:1006E0000024F40040787D012DE9F84F04006ED01D
:1006F0002078DFF84C93C007A9F104054AD009F12E
:1007000004000168C1F38101012908D00068C0F329
:10071000810002280AD1D9F80000400206D52868D5
:10072000800337D560680028E1D033E06068B0F519
:10073000803F10D0B0F5A02F286810D020F4803072
:100740002860286820F4802028606068A8B1FFF73E
:10075000C1FD06460DE0286840F48030F4E740F41F
:1007600080202860F7E700BFFFF7B4FD801B6428F6
:1007700073D828688003F7D50CE0FFF7ABFD064679
:1007800005E000BFFFF7A6FD801B6428F0D82868AD
:100790008003F7D42078DFF8AC8280074FF0000A9E
:1007A0003ED5A748001D016811F00C0F08D0006865
:1007B000C0F3810002280BD1D9F80000400207D411
:1007C0002868800716D5E068012800D112E033E1DF
:1007D000E068B8B10120C8F80000FFF77BFD0646CD
:1007E00005E000BFFFF776FD801B0228C0D828680F
:1007F0008007F7D52868216920F0F80040EAC10099
:1008000028600DE0C8F800A0FFF764FD064604E08C
:10081000FFF760FD801B02281FD828688007F7D4E7
:100820002078000722D5864F87486169703771B1FB
:1008300001210160FFF74EFD064604E0FFF74AFD87
:10084000801B022809D838688007F7D50EE0C0F869
:1008500000A0FFF73FFD064605E082E0FFF73AFD06
:10086000801B02287DD838688007F7D4207840079D
:1008700068D5DFF8CCB100270BF13C0BDBF80000AA
:10088000C0000BD4DBF8001041F08051CBF8001011
:10089000DBF80000012700F0805000906B4E3068BC
:1008A000C00510D4306840F480703060FFF712FD4E
:1008B000009005E0FFF70EFD0099401A022850D87D
:1008C0003068C005F6D55E4EA0686C3601280FD0A2
:1008D0000528306810D020F001003060306820F02A
:1008E00004003060A068B8B1FFF7F4FC00900FE09E
:1008F000306840F00100F4E740F004003060F7E7B2
:10090000FFF7E8FC0099411A41F28830814266D82D
:1009100030688007F4D50EE0FFF7DCFC009007E0BC
:10092000FFF7D8FC0099411A41F28830814256D82D
:1009300030688007F4D42FB1DBF8001021F080512B
:10094000CBF80010A069C8B33D49091D0968C1F37F
:10095000810102294AD00228504607D0C8F8600019
:1009600000E03CE0FFF7B6FC04463BE04746C8F831
:100970006000FFF7AFFC064605E000BFFFF7AAFCEA
:10098000801B02282BD828688001F7D4D4E90701FE
:100990000843A16A2E4A490802EB0141626A41EA12
:1009A0008211084394F82C1040EA0161C9F8001044
:1009B00001203866FFF78EFC044606E03EE000BFEB
:1009C000FFF788FC001B022809D828688001F7D5AA
:1009D00034E000BFFFF77EFC001B022802D9032091
:1009E000BDE8F88F28688001F4D427E00128F7D00B
:1009F000D9F80000E26900F4800191421CD1226A1A
:100A000000F03F01914217D147F6C071626A014080
:100A1000B1EB821F10D1A26A4FF0FF3300F44031D6
:100A200003EB5202B1EB024F06D194F82C1000F008
:100A30007060B0EB016F01D00120D1E70020CFE75B
:100A40000438024000004742800E474200700040D8
:100A50000000FFFF70470000014901200870704747
:100A60000000002010B5044600688168C9040CD558
:100A7000C068C00509D52046FFF7EEFF2068C168B1
:100A800001F0800161F4C071C1602068816889044F
:100A90000CD5C068800509D52046FFF7DBFF20682C
:100AA000C16801F0800161F42071C16003494FF415
:100AB000003008600120607710BD0000143C014048
:100AC00010B500680B4641680D480140080CD8700D
:100AD000C1F304245C7001F03F049C70C1F3423107
:100AE000197052B900F0DCFAD870587800F0D8FAD2
:100AF0005870987800F0D4FA9870002010BD00006B
:100B00003FFFFF0010B50B460168896A5960016814
:100B10000969C1F30E019960006801680E4801403F
:100B2000C1F305401870C1F306245C7001F07F0426
:100B30009C70402404EA1141D97052B900F0B0FA17
:100B40001870587800F0ACFA5870987800F0A8FA4D
:100B50009870002010BD00007F7F7F0070B50400FA
:100B600002D0607F10B106E0012070BD0020207728
:100B7000204600F049F8022060772168CA204862C8
:100B8000216853204862204600F09EFAFF25042683
:100B900018BB206881681B4A114081602168886801
:100BA00062681043D4E904231A4310438860216823
:100BB000E068086120680169228941EA0241016117
:100BC0002068C16821F08001C160206880688006CB
:100BD00007D4204600F0C6F918B120684562667750
:100BE000C2E72068016C21F4802101642068016C57
:100BF000A2691143016420684562012060770020EA
:100C000070BD0000BFFF8FFF10B500680849884223
:100C10000CD1084901200860002211462920FFF765
:100C2000C7FBBDE810402920FFF7B4BB10BD000092
:100C3000002800403C0E4742F8B503465A480C468F
:100C40004FF4FA410068B0FBF1F0491148430090BD
:100C5000187F012863D001261E7702205877186874
:100C60000025002A80684FEA40605AD0002800DB47
:100C7000E570A0782278E77840EA02406278E1697E
:100C8000120242EA0742104394F8202040EA026030
:100C900008436169A269084361681F681143CA2259
:100CA0007A621F6853227A62626AFF27B2F5807FF8
:100CB0001A684FF0030C94684ED024F400749460CA
:100CC0001A68D46804F0800464F42074D4601A684C
:100CD000009CB4F1010ECDF800E05ED3D468A40707
:100CE000F6D51062186881641868816841F4007153
:100CF00081601868816841F4005181602B48016867
:100D000041F40031016029480830016841F40031A4
:100D10000160186847625E771D770020F8BD0220E9
:100D2000F8BD002800DBE570207800F0C2F902046D
:100D3000607800F0BEF942EA0022A07800F0B9F92C
:100D40000243E07842EA004294F8200000F0B1F952
:100D500042EA0060E1699BE724F4807494601A68B9
:100D6000D46804F0800464F4C074D4601A68009CF1
:100D7000B4F1010ECDF800E00FD3D468E407F6D04B
:100D8000D061186841641868816841F4807181609D
:100D90001868816841F48051AFE7576283F81DC03D
:100DA0001D770320F8BD000010000020003C01402A
:100DB0002DE9F0470446007F0B4601281FD04FF075
:100DC000010984F81C9002206077DAB19878D9780C
:100DD00040EA014558781978000240EA413005435D
:100DE0002168CA204862216853204862204600F0EA
:100DF0006BF90026FF274FF0040860BB1AE00220C1
:100E0000BDE8F0875878C10603D500F0EF000A303E
:100E10005870D87800F04DF90204587800F049F97C
:100E200042EA0022987800F044F90243187842EA36
:100E30004035D5E70F480540206845602068C16807
:100E400021F08001C1602068806880060AD42046B5
:100E500000F088F830B12068476284F81D8026775A
:100E60000120CDE72068476284F81D902677002096
:100E7000C6E700003FFFFF002DE9F0470446007F72
:100E80000D46012827D04FF0010A84F81CA002204B
:100E900060772068002680684FEA4060F2B1002841
:100EA00000DBEE70A878297840EA01476878E97895
:100EB000000240EA014007432168CA2048622168D5
:100EC00053204862204600F0FFF84FF0FF084FF033
:100ED0000409A0BB16E00220BDE8F087002800DB73
:100EE000EE70287800F0E5F80204687800F0E1F888
:100EF00042EA0022A87800F0DCF80243E87842EAEF
:100F00000047D9E7164807402068076020688168D5
:100F100021F480218160D5E90301084321688A68B2
:100F2000104388602068C16821F08001C16020689A
:100F3000806880060BD4204600F014F838B1216890
:100F4000C1F8248084F81D9026770120C4E7216829
:100F5000C1F8248084F81DA026770020BCE700009B
:100F60007F7F7F0070B504460068C16821F0A00152
:100F7000C160FFF7AFF905464FF47A7607E000BF8E
:100F8000FFF7A8F9401BB04201D9032070BD2068CB
:100F9000C0688006F4D5002070BD10B5401EB0F1C9
:100FA000807F01D3012010BD4FF0E02460610F214C
:100FB000601700F000F90020A061072020610020E8
:100FC00010BDFEE770B590B014210AA8FFF732F902
:100FD0000024282168460F94FFF72CF92A48294954
:100FE000C0E900147F218160FF21C0E9031444613E
:100FF0008461FFF7B3FD08B172B6FEE709258DF8ED
:10100000285010208DF829008DF82A400D940122D7
:101010000AA91D480E94FFF72FFF08B172B6FEE72C
:1010200001268DF83C6003208DF83D0029208DF8C5
:101030003E0021208DF83F0032460FA91248FFF7ED
:10104000B7FE08B172B6FEE78DF8005015208DF896
:10105000010004944FF480708DF8024001940394D1
:1010600009900594069407948DF820600122694642
:101070000548FFF7E1FD002801D072B6FEE710B089
:1010800070BD00000028004014000020FEE7FEE7CD
:10109000704700000148FFF7E5BC00001400002085
:1010A000010901EB810100F00F0000EB4100C0B22B
:1010B0007047002102E00A38C0B2491C0A28FAD25F
:1010C000090740EA1160704770B504460068C168BE
:1010D000490614D44FF0FF31C160FFF7FBF8054615
:1010E0004FF47A7607E000BFFFF7F4F8401BB042F8
:1010F00001D9032070BD2068C0684006F4D50020E7
:1011000070BD7047FFF7ECB810B596B03021684657
:10111000FFF790F814210CA8FFF78CF800241F4863
:101120001194129413941494016841F08051016059
:10113000006800F0805015901948016841F4804122
:101140000160006800F480401590062000900520A2
:101150000290012003901020049006946846FFF747
:10116000C3FA08B172B6FEE70F20CDE90C040E9465
:101170000F9400210CA81094FFF7EAF908B172B699
:10118000FEE702201190C001149011A8FFF742F968
:10119000002801D072B6FEE716B010BD40380240FC
:1011A000007000400248016841F47001016070471E
:1011B00088ED00E0FEE70907090E002804DB00F1D6
:1011C000E02080F80014704700F00F0000F1E020EC
:1011D00080F8141D704702E008C8121F08C1002AD9
:1011E000FAD170477047002001E001C1121F002AA8
:1011F000FBD1704788B0FFF77BF8FFF785FF2048E9
:10120000016841F004010160016801F004010691E8
:10121000016841F001010160006800F001000690E2
:10122000FFF7D0FE09208DF800000F208DF8010097
:1012300028208DF80200002269461248FFF71CFEA4
:101240001D208DF8160003208DF8150001208DF863
:10125000140015208DF81700002205A90948FFF792
:10126000A7FD002269460748FFF74CFC002205A9AC
:101270000448FFF725FCC820FFF71AF8F1E7000043
:101280003038024014000020000000000000000080
:101290000102030406070809B81200080000002034
:1012A00014000000D6110008CC1200081400002021
:1012B00024040000E6110008000000000100000006
:0C12C00010000000000000000024F400FA
:040000050800018965
:00000001FF
