:020000040800F2
:1000000058040020A101000801100008FD0F00089D
:10001000FF0F0008AD0200085513000800000000A3
:1000200000000000000000000000000005100008B3
:10003000AF020008000000000310000807100008CD
:10004000BB010008BB010008BB010008BB010008A0
:10005000BB010008BB010008BB010008BB01000890
:10006000BB010008BB010008BB010008BB01000880
:10007000BB010008BB010008BB010008BB01000870
:10008000BB010008BB010008BB010008BB01000860
:10009000BB010008BB010008BB010008BB01000850
:1000A000BB010008BB010008BB010008BB01000840
:1000B000BB010008BB010008BB010008BB01000830
:1000C000BB010008BB010008BB010008BB01000820
:1000D000BB010008BB01000849130008BB01000870
:1000E000BB010008BB010008BB010008BB01000800
:1000F000BB010008BB010008BB010008BB010008F0
:10010000BB010008BB010008BB010008BB010008DF
:10011000BB010008BB010008BB010008BB010008CF
:10012000BB010008BB010008BB010008BB010008BF
:10013000BB010008BB010008BB010008BB010008AF
:10014000BB010008BB010008BB010008BB0100089F
:10015000BB010008BB010008BB010008BB0100088F
:10016000BB010008BB010008BB010008BB0100087F
:10017000BB010008BB010008BB0100080000000033
:10018000BB010008BB010008DFF810D000F07CF8CC
:100190000048004795130008AFF300805804002082
:1001A0000648804706480047FEE7FEE7FEE7FEE711
:1001B000FEE7FEE7FEE7FEE7FEE7FEE7A110000828
:1001C000890100082DE9F05F0546002092469B4614
:1001D00088460646814640241BE02846414647465D
:1001E000224600F041F853465A46C01A914110D3B6
:1001F00011461846224600F028F82D1A67EB010830
:100200004F4622460120002100F01FF817EB00099D
:100210004E41201EA4F10104DFDC484631462A4647
:100220004346BDE8F09FD2B201E000F8012B491E21
:10023000FBD270470022F6E710B513460A46044683
:100240001946FFF7F0FF204610BD202A04DB203AB4
:1002500000FA02F1002070479140C2F1200320FA19
:1002600003F3194390407047202A04DB203A21FA17
:1002700002F00021704721FA02F3D040C2F12002BF
:100280009140084319467047064C074D06E0E06868
:1002900040F0010394E8070098471034AC42F6D3CD
:1002A000FFF776FF3814000858140008FEE770477F
:1002B0002DE9F0410446876D00F04AF9064694F8AE
:1002C00035000025022806D08020606584F834506F
:1002D0000120BDE8F0812068016821F0160101606D
:1002E0002068416921F080014161206C08B9A06C4F
:1002F00020B12068016821F00801016020680168D0
:1003000021F0010101600BE000F022F9801B0528BB
:1003100006D92020606504F8345F03206070D8E7B8
:1003200020680068C007EFD194F85C103F20884037
:10033000B86004F8345F012060700020C9E790F8CD
:100340003510022903D08021416501207047052125
:1003500080F835100068016821F00101016000207B
:10036000704700002DE9F84FDFF8B8A10022012501
:100370000AF1040B03264FF00F090BF1040E00BF26
:100380000B6805FA02F42340A3426FD10F7907F0FE
:100390000307012F01D0022F16D187684FEA4208C8
:1003A00006FA08FC27EA0C07D1F80CC00CFA08FC86
:1003B0004CEA070CC0F808C04768A7430C79C4F39F
:1003C000001494403C4344600C79E443A4070AD0F1
:1003D000C4684FEA420C06FA0CF7BC438F6807FA70
:1003E0000CF72743C7600C7904F00304022C12D1E8
:1003F000D40800EB840CDCF820405707FF0E09FA04
:1004000007F824EA0804D1F8108008FA07F848EA47
:100410000408CCF8208004684FEA420C06FA0CF776
:10042000BC430F7907F0030707FA0CF7274307606F
:100430004C68E40070D53C4C276847F4804727603F
:10044000246822F0030704F480440094374C07EB3F
:10045000040CDCF8084897074FEA177809FA08F700
:10046000BC43334FB84202D1002724E054E0314F5F
:10047000B84201D101271EE02F4FB84201D1022717
:1004800019E02E4FB84201D1032714E02C4FB84297
:1004900001D104270FE02B4FB84201D105270AE014
:1004A000294FB84201D1062705E0284FB84201D1B3
:1004B000072700E0082707FA08F72743CCF8087851
:1004C000DAF800405746D1F804C09C435FEACC3CC0
:1004D00000D51C433C60DBF800405F46D1F804C007
:1004E0009C435FEA8C3C00D51C433C60DEF8004036
:1004F0007746D1F804C09C435FEACC2C00D51C435E
:100500003C60084F0C373C68D1F804C09C435FEA5C
:100510008C2C00D51C433C60521C102AFFF430AFD9
:10052000BDE8F88F003C01404438024000300140F3
:10053000000002400004024000080240000C02409B
:10054000001002400014024000180240001C02404B
:10055000014880687047000004000020024881685C
:100560000278114481607047040000200B4810B5E8
:10057000016841F400710160016841F4806101602B
:10058000016841F480710160032000F06FF80020E1
:1005900000F006F800F024F8002010BD003C0240F6
:1005A00070B50D4D04464FF47A712878B1FBF0F028
:1005B0000A490968B1FBF0F000F00AFB48B9102CB9
:1005C00007D200222146501E00F030F800206C6057
:1005D00070BD012070BD000004000020100000204C
:1005E0000A4808B5016841F480410160006800F4E0
:1005F000804000900548001F016841F08051016073
:10060000006800F08050009008BD000044380240AF
:10061000002809DB00F01F02012191404009800001
:1006200000F1E020C0F8001170470000F0B40E4B5C
:100630001B680C46C3F30223C3F10705042D00D940
:100640000425191D072901D2002300E0DB1E012625
:1006500006FA05F1491E214099409E40761E16403B
:100660003143F0BC00F077BE0CED00E0064900F02D
:10067000070208684FF6FF03184040EA0220034AC9
:1006800010430860704700000CED00E00000FA0520
:100690002DE9F0470E46050065D0DFF81481D8F843
:1006A0000000F7B200F00700B04207D288F80070EF
:1006B000D8F8000000F00700B04254D128683D4C43
:1006C000810712D5400703D5206840F4E050206030
:1006D0002878000703D5206840F460402060206837
:1006E000A96820F0F000084320602878C0072DD0CA
:1006F000304968680839012812D0022813D003282D
:1007000011D00968890700292DDA216821F0030139
:1007100001432160FFF71CFF814641F2883A0EE059
:1007200009688903EFE709688901ECE7FFF710FF23
:10073000A0EB0901514502D90320BDE8F0872068EC
:10074000696800F00C00B0EB810FEFD1D8F8001011
:10075000404601F00701B14207D90770006800F078
:100760000700B04201D00120E7E72878400705D50F
:100770002068E96820F4E0500843206028780007EA
:1007800006D52068296920F4604040EAC100206055
:1007900000F038F82168084AC1F30311515CC840E1
:1007A0000649086006480068FFF7FAFE0020C4E723
:1007B000003C0240083802402014000810000020CD
:1007C000080000200448054900680968044AC1F38C
:1007D0008221515CC8407047100000200838024058
:1007E000301400080448054900680968044AC1F348
:1007F0004231515CC8407047100000200838024068
:1008000030140008154810B5006810F00C021448A8
:1008100013D04110042A0FD0082A0ED10F4C241FE8
:100820002268236802F03F025B0207D52068C0F30C
:100830008810A0FB010106E0084610BD2168C1F345
:100840008811A1FB00010023FFF7BCFC2168C1F364
:100850000141491C4900B0FBF1F010BD08380240CD
:100860000024F4002DE9F84F04006ED02078DFF862
:100870004C93C007A9F104054AD009F104000168AE
:10088000C1F38101012908D00068C0F3810002286A
:100890000AD1D9F80000400206D52868800337D570
:1008A00060680028E1D033E06068B0F5803F10D088
:1008B000B0F5A02F286810D020F480302860286878
:1008C00020F4802028606068A8B1FFF741FE06464A
:1008D0000DE0286840F48030F4E740F48020286080
:1008E000F7E700BFFFF734FE801B642873D8286841
:1008F0008003F7D50CE0FFF72BFE064605E000BFAE
:10090000FFF726FE801B6428F0D828688003F7D400
:100910002078DFF8AC8280074FF0000A3ED5A74868
:10092000001D016811F00C0F08D00068C0F38100B1
:1009300002280BD1D9F80000400207D428688007AC
:1009400016D5E068012800D112E033E1E068B8B1C3
:100950000120C8F80000FFF7FBFD064605E000BFD8
:10096000FFF7F6FD801B0228C0D828688007F7D55E
:100970002868216920F0F80040EAC10028600DE0F5
:10098000C8F800A0FFF7E4FD064604E0FFF7E0FD2D
:10099000801B02281FD828688007F7D4207800071A
:1009A00022D5864F87486169703771B10121016096
:1009B000FFF7CEFD064604E0FFF7CAFD801B0228C4
:1009C00009D838688007F7D50EE0C0F800A0FFF717
:1009D000BFFD064605E082E0FFF7BAFD801B022856
:1009E0007DD838688007F7D42078400768D5DFF8CD
:1009F000CCB100270BF13C0BDBF80000C0000BD49E
:100A0000DBF8001041F08051CBF80010DBF800005B
:100A1000012700F0805000906B4E3068C00510D464
:100A2000306840F480703060FFF792FD009005E080
:100A3000FFF78EFD0099401A022850D83068C00593
:100A4000F6D55E4EA0686C3601280FD005283068B8
:100A500010D020F001003060306820F004003060D9
:100A6000A068B8B1FFF774FD00900FE0306840F067
:100A70000100F4E740F004003060F7E7FFF768FD9D
:100A80000099411A41F28830814266D83068800767
:100A9000F4D50EE0FFF75CFD009007E0FFF758FD8E
:100AA0000099411A41F28830814256D83068800757
:100AB000F4D42FB1DBF8001021F08051CBF80010F6
:100AC000A069C8B33D49091D0968C1F38101022924
:100AD0004AD00228504607D0C8F8600000E03CE049
:100AE000FFF736FD04463BE04746C8F86000FFF7D5
:100AF0002FFD064605E000BFFFF72AFD801B0228F8
:100B00002BD828688001F7D4D4E907010843A16AEB
:100B10002E4A490802EB0141626A41EA8211084308
:100B200094F82C1040EA0161C9F8001001203866E1
:100B3000FFF70EFD044606E03EE000BFFFF708FDAC
:100B4000001B022809D828688001F7D534E000BFCF
:100B5000FFF7FEFC001B022802D90320BDE8F88F36
:100B600028688001F4D427E00128F7D0D9F80000E4
:100B7000E26900F4800191421CD1226A00F03F0139
:100B8000914217D147F6C071626A0140B1EB821FF2
:100B900010D1A26A4FF0FF3300F4403103EB520250
:100BA000B1EB024F06D194F82C1000F07060B0EB5E
:100BB000016F01D00120D1E70020CFE704380240C7
:100BC00000004742800E4742007000400000FFFFD7
:100BD00010B5401EB0F1807F01D3012010BD4FF051
:100BE000E02460610F21601700F0B5FB0020A061D8
:100BF00007202061002010BD70477047F8B50268DB
:100C000004461068D168536910F00F0F4FF00005CB
:100C100053D003F0010601F4907737435FD0C20749
:100C200005D0CA0503D5226C42F0010222644207B6
:100C300005D5DA0703D0226C42F002022264820753
:100C400005D5DA0703D0226C42F0040222640207C1
:100C500007D501F02002324303D0226C42F0080293
:100C60002264226C002A34D0800604D5880602D57E
:100C7000204600F03DFA20684069216CC0F38010E6
:100C8000090700D430B3204600F01AFA2068416901
:100C900049061BD5416921F040014161A06BA8B113
:100CA00059490165A06BFFF74AFB002811D0A06BE2
:100CB000016D01B0BDE8F040084783060FD58B06F3
:100CC0000DD52046BDE8F84000F012BA2046FFF7E7
:100CD00094FFF8BD2046FFF790FF2564F8BD266B12
:100CE0002023012E53D1C60651D5CE064FD510680C
:100CF00050680090506940062BD5A16B0868406889
:100D00000004000CEAD0A68D8642E7D9E085C869C8
:100D1000B0F5807F18D0D06820F48070D060206853
:100D2000416921F0010141612068416921F04001E0
:100D3000416184F83E3025632068C16821F01001CC
:100D4000C160A06BFFF7B4FAA08DE18D401A81B2AB
:100D500019E0A08DE18D401A81B2E08D0028BDD050
:100D60000029BBD0D06820F49070D0602068426920
:100D700022F00102426184F83E3025632068C26897
:100D800022F01002C2602046FFF736FFF8BD0506CC
:100D90002BD50D0629D594F83D002128F6D1A06861
:100DA000B0F5805F01D12069B0B1206A411C216299
:100DB000216800784860E08C401E0004000CE0844C
:100DC000E4D12068C16821F08001C1602068C16859
:100DD00041F04001C160F8BD206A0088C0F30800FE
:100DE0005060206A801C2062E5E74006F3D5480683
:100DF000F1D5D168204621F04001D16084F83D3022
:100E000000F0FBF8F8BD0000B110000870B5040058
:100E100004D094F83D00002510B106E0012070BD1B
:100E200084F83C50204600F023F8242084F83D004C
:100E30002068C16821F40051C160204600F0B0F97B
:100E40002068016921F4904101612068416921F025
:100E50002A0141612068C16841F40051C1602564E4
:100E6000202084F83D0084F83E00002070BD000082
:100E700010B586B0044614216846FFF7DBF9174920
:100E80002068884228D116480021026842F40032C6
:100E90000260006800F400300590114810380268C4
:100EA00042F001020260006800F0010005900C2091
:100EB00000900220CDE90101032003900720049057
:100EC00069460848FFF74EFA002211462620FFF730
:100ED000ADFB2620FFF79CFB06B010BD0044004090
:100EE000403802400000024090F83E30202B0ED1E6
:100EF00059B152B190F83C30012B08D0012380F851
:100F00003C300023036300F0D1B901207047022078
:100F10007047000010B50A490068096888420DD181
:100F2000012208490648FFF7DFFFBDE810404FF4F3
:100F30007A7301220349024800F006B810BD000090
:100F400014000020000000202DE9F843044690F82A
:100F50003D001F4616460D4620284CD1C5B1BEB1F6
:100F600094F83C00012846D0012084F83C004FF062
:100F70000008C4F84080212084F83D00FFF7E8FA1B
:100F8000A6848146E684A068B0F5805F03D004E0C3
:100F90000120BDE8F883206928B12E465FF00005E6
:100FA00084F83C800EE00026FAE78021204600F01D
:100FB00098F9A0B9AEB116F8010B21684860E08C31
:100FC000401EE084E08C4B464FF000020097002862
:100FD000EBD14FF04001204600F083F930B10320FF
:100FE000D7E735F8020BC0F30800E6E7202084F8C5
:100FF0003D000020CDE70220CBE77047FEE7FEE78B
:10100000FEE770477047FFF7A9BA000030B593B00C
:1010100030216846FFF70EF914210CA8FFF70AF9F2
:101020001D480025016841F080510160006800F012
:10103000805011901948016841F4804101600068B6
:10104000022400F4804011900120039010200490AD
:10105000009406940820CDE90750A820CDE90904A2
:1010600004200B906846FFF7FDFB08B172B6FEE75F
:101070000CA90F2081E831004FF4A0500F904FF4DD
:101080008050109005210CA8FFF702FB002801D02A
:1010900072B6FEE713B030BD403802400070004029
:1010A0000248016841F470010160704788ED00E07A
:1010B00010B5806B0021C185C184FFF79EFD10BD76
:1010C0000168CA6822F49072CA6001684A6922F015
:1010D00001024A61016B012904D10168CA6822F04A
:1010E0001002CA60202180F83E1000210163704781
:1010F00010B5044690F83E00222801D0022010BD11
:10110000A1684FF48052914201D1206920B1A06AB8
:1011100091421BD049B10AE02168A06A4968C1F335
:1011200008010180A06A801C08E0216971B1216872
:10113000496801F07F010170A06A401CA062E08D47
:10114000401E0004000CE08503D01CE021684968C3
:10115000F1E72068C16821F02001C1602068C16802
:1011600021F48071C1602068416921F00101416171
:10117000202084F83E00206B012806D02046FFF78F
:10118000C9FE00202063002010BD2068C16821F046
:101190001001C160A18D2046FFF72EFDF1E7000090
:1011A00070B5044600680169E26821F440511143BA
:1011B00001612169A068E26908436169114308433C
:1011C0002168CA6849F20C639A430243CA602068E6
:1011D0004169A26921F4407111434161314920689C
:1011E000884202D03049884202D1FFF7FBFA01E081
:1011F000FFF7E8FAE2690023192164253226B2F5E7
:10120000004F626828D0A0FB0101930F9200FEF707
:10121000D9FF0146B0FBF5F06FF01802504301EB27
:10122000800006EB0010B0FBF5F000F0F002B1FB1F
:10123000F5F002EB0012B1FBF5F06FF01803584324
:1012400001EB800006EB0010B0FBF5F000F00F00A2
:1012500021681044886070BDA0FB010192185B41B9
:10126000FEF7B0FF0146B0FBF5F00201B1FBF5F06F
:101270006FF01803584301EB800006EBC000B0FB91
:10128000F5F000F0F80002EB4002B1FBF5F0584336
:1012900001EB800006EBC000B0FBF5F000F00700AA
:1012A000D6E70000001001400014014081628285F1
:1012B000C28500210164222280F83E2080F83C1083
:1012C0000168CA6842F48072CA6001684A6942F0E3
:1012D00001024A610068C16841F02001C16000203C
:1012E00070472DE9F041984617460E460446069D84
:1012F0001DE0681C1BD02DB1FFF72AF9A0EB0800F8
:10130000A84214D92068C16821F4D071C160206856
:10131000416921F001014161202084F83D0084F8F9
:101320003E00002084F83C000320BDE8F0812068E6
:10133000006836EA000004D00020B842D9D000206E
:10134000F3E70120F9E700000148FFF757BC000070
:1013500014000020FEE70907090E002804DB00F155
:10136000E02080F80014704700F00F0000F1E0204A
:1013700080F8141D704702E008C8121F08C1002A37
:10138000FAD170477047002001E001C1121F002A06
:10139000FBD1704708B5FFF7E9F8FFF737FE1848AB
:1013A0000021026842F080020260026802F08002BE
:1013B0000092026842F0010202600068114A00F0E7
:1013C00001000090104802604FF4E132C0E90121B1
:1013D0000C22C160C0E904128161C161FFF716FDF2
:1013E00008B172B6FEE74FF47A730D2207A10648E2
:1013F000FFF7AAFD012209490348FFF757FFFEE75F
:1014000030380240004400401400002048656C6CF5
:101410006F20776F726C64200D0A000000000020BE
:101420000000000000000000010203040607080994
:10143000000000000102030458140008000000200E
:1014400014000000761300086C140008140000203B
:1014500044040000861300080000000001000000A2
:0C14600010000000000000000024F40058
:040000050800018965
:00000001FF
