:020000040800F2
:10000000400600209D010008031F0008FF1E000895
:10001000011F0008C9060008B12D000800000000FB
:10002000000000000000000000000000112900088E
:10003000A5080008000000005D240008452900080C
:10004000B7010008B7010008B7010008B7010008B0
:10005000B7010008B7010008B7010008B7010008A0
:10006000B7010008B7010008B7010008B701000890
:10007000B7010008B7010008B7010008B701000880
:10008000B7010008B7010008B7010008B701000870
:10009000B7010008B7010008B7010008B701000860
:1000A000B7010008B7010008B7010008B701000850
:1000B000B7010008B7010008B7010008B701000840
:1000C000B7010008B7010008B7010008B701000830
:1000D000B7010008B7010008B7010008B701000820
:1000E000B7010008B7010008B7010008B701000810
:1000F000B7010008B7010008B7010008B701000800
:10010000B7010008B7010008B7010008B7010008EF
:10011000B7010008B7010008B7010008B7010008DF
:10012000B7010008B7010008B7010008B7010008CF
:10013000B7010008B7010008B7010008B7010008BF
:10014000B7010008B7010008B7010008B7010008AF
:10015000B7010008B7010008B7010008B70100089F
:10016000B7010008B7010008B7010008B70100088F
:10017000B7010008B7010008B7010008000000003F
:10018000B7010008B7010008DFF80CD000F08AFAC8
:1001900000480047E12D000840060020064880473F
:1001A00006480047FEE7FEE7FEE7FEE7FEE7FEE75C
:1001B000FEE7FEE7FEE7FEE7E929000889010008FF
:1001C0002DE9F05F0546002092469B46884606468C
:1001D000814640241BE0284641464746224600F01F
:1001E000AAF953465A46C01A914110D311461846EF
:1001F000224600F091F92D1A67EB01084F4622467E
:100200000120002100F088F917EB00094E41201E63
:10021000A4F10104DFDC484631462A46434600F09B
:1002200000B830BCBDE8C09F40EA01039B0703D083
:1002300009E008C9121F08C0042AFAD203E011F825
:10024000013B00F8013B521EF9D27047D2B201E0E7
:1002500000F8012B491EFBD270470022F6E710B5CB
:1002600013460A4604461946FFF7F0FF204610BD24
:10027000421C10F8011B0029FBD1801A70472DE9A0
:10028000FE4F804681EA0300C00F0C46009021F02B
:10029000004123F00045B8EB0200A94105D24046D9
:1002A000214690461C460B46024623F00040104370
:1002B00047D0270DC7F30A00C3F30A510290401A32
:1002C000019040286BDAC3F3130040F4801B0098C0
:1002D000924620B10023D2EB030A63EB0B0B01988B
:1002E0005946C0F14002504600F016F906460D4648
:1002F00050465946019A00F02EF910EB0800614172
:10030000002487EA115284EAE7731A4340D0009A26
:1003100062B3019A012A4FEA075215DC001B61EB18
:1003200002014FF0004202EA0752CDE90042001CF0
:1003300041F5801132462B4600F065F903B000F01C
:1003400045B840462146F9E7001B61EB0201001C5D
:1003500041F5801300185B412018A2F5001747EB08
:10036000030140EAD570B6196D4111E06D084FEAFE
:10037000360645EAC0754FEA0752001B61EB0201E1
:10038000001C41F5801149084FEA30000019514125
:1003900032462B4603B000F01CB800F025B9009897
:1003A000012240000023D0EB020263EBE0730098CF
:1003B00021464FEAE074B8EB000061EB0401E9E785
:1003C00083F000435BE781F0004158E730BCBDE8B3
:1003D000C08F30BCBDE8C04FFFF7DFBF2DE9F04D47
:1003E00081EA030404F0004B21F0004514464FF06D
:1003F000000A23F0004150EA050220D054EA01022D
:100400001DD0C5F30A570246C5F31303C1F3130009
:10041000C1F30A5640F4801543F48013A7EB060895
:10042000101BD64608F2FD3873EB050002D308F125
:10043000010801E092185B41B8F1000F03DA0020D7
:100440000146BDE8F08D00204FF480110646844639
:100450000EE0171B73EB050705D3121B63EB0503B7
:1004600006434CEA010C49084FEA300092185B4100
:1004700050EA0107EDD152EA030012D082EA0400EB
:1004800083EA0501084305D0101BAB4106D20122C7
:10049000002306E000224FF0004302E06FF001026B
:1004A00053101AEB06004CEB085110EB0A0041EB1D
:1004B0000B01BDE8F04D00F097B800F0004230F0BD
:1004C00000400AD0C10D01F56071C0F3160042EA88
:1004D0000151C20840071143704700200146704790
:1004E00001F0004330B421F0004150EA010206D08F
:1004F0000A0DA2F56072C1F31301002A02DC30BCC0
:1005000000207047440F44EAC104C100E01830BC29
:1005100000EBC25000F031B8202A04DB203A00FA88
:1005200002F1002070479140C2F1200320FA03F34A
:10053000194390407047202A04DB203A21FA02F048
:100540000021704721FA02F3D040C2F1200291400D
:10055000084319467047202A06DBCB17203A41FA98
:1005600002F043EAE07306E041FA02F3D040C2F140
:10057000200291400843194670470029A8BF7047E0
:10058000401C490008BF20F00100704710B4B0FAC9
:1005900080FC00FA0CF050EA010404BF10BC704764
:1005A00049B1CCF1200421FA04F411FA0CF118BF7E
:1005B000012121430843A3EB0C01CB1D4FEA00614D
:1005C0004FEA102042BF002010BC704700EBC35020
:1005D00010440029A4BF10BC7047401C490008BF4C
:1005E00020F0010010BC704710B5141E73F1000418
:1005F00008DA401C41F1000192185B411A4301D115
:1006000020F0010010BD2DE9F04D92469B4611B13E
:10061000B1FA81F202E0B0FA80F220329046FFF7A0
:100620007BFF04460F4640EA0A0041EA0B015346AD
:100630005A46084313D0114653EA010019D0C8F1B5
:1006400040025046FFF777FF05460E465046594692
:100650004246FFF761FF084305D0012004E0204631
:100660003946BDE8F08D0020054346EAE0762C438C
:1006700037430A986305E40AA0EB08000022FD0A4C
:1006800044EA47540A3002D500200146E9E7010553
:1006900010196941DDE9084500196941BDE8F04DCF
:1006A000A2E70000064C074D06E0E06840F00103B9
:1006B00094E8070098471034AC42F6D3FFF768FD82
:1006C000683E0008883E0008FEE70000B0B528201C
:1006D00002F070FB624C4FF40071204600F0C1F94B
:1006E00008B100250CE0502002F064FB20464FF4D6
:1006F000007100F0B6F90125002808BF4FF0FF3562
:1007000020464FF4007100F0ACF90028F8D1E8B2AF
:10071000B0BD00BF0000000070B5044600F07CF8DA
:10072000FFF7D4FF224D234E2870B0476870B047C2
:10073000A870B047E870B0472871B047E8806B7880
:10074000AE78EA782979F51815440D44854224D10C
:1007500000EE103AB8EE400A84ED010A00EE102ACD
:1007600001EE101AB8EE400AB8EE411AB2EE042AB1
:1007700000EE021A11EE100AFFF79FFE9FED080B24
:1007800053EC102BFFF77BFD9FED070B53EC102B69
:10079000FFF724FEFFF7A4FE206070BD00BF00BF7E
:1007A0007B14AE47E17A843F000000000000244043
:1007B00038000020B90700082DE9F843284C00262E
:1007C0004FF00108082E23D020464FF4007100F0AE
:1007D00048F90028F8D0282002F0ECFA20464FF41F
:1007E000007100F03EF90546C6F1070008FA00F76F
:1007F00020464FF4007100F034F90028F8D149EA9E
:100800000700002D08BF29EA070001368146D9E715
:100810005FFA89F0BDE8F88310B500F023F8104CBA
:100820004FF40071204602F080F820464FF400712A
:10083000002200F01BF944F2506002F0BBFA20469F
:100840004FF40071012200F011F9142002F0B2FA05
:1008500020464FF40071BDE8104002F05AB800BFC6
:10086000000400480D48016821F0807101600168B2
:1008700041F0807101600A48016821F001010160C6
:10088000016841F0010101600021416000BF00BF2B
:1008900000BF4068B0FA80F040097047FCED00E00E
:1008A000001000E070470000B0B5044600F0E4F826
:1008B00005468F48611C406818BF044400F0DCF80E
:1008C000401BA042FAD3B0BD2DE9FC4F5E4A07247D
:1008D000904200F1384208BF06244FEAB2234FF09D
:1008E000000B4FF0010A4FF003094FF000080026FB
:1008F000062B38BF4FEAB22400940B6833FA06F493
:1009000008BF00F0ABB80AFA06F413EA040C00F0D2
:1009100094804F68122F16D80AFA07F313F0061FB7
:1009200011D0D0F808E0CD6809FA08F32EEA0303E5
:1009300005FA08F52B438360C7F300134568B340FD
:10094000A5432B43436007F00303032B09D1C7F3EF
:10095000C00505FA06FEC56A25EA040444EA0E0449
:10096000C462C5688A6809FA08F4A54302FA08F265
:100970002A43C26047F01002E443122A13D16FF0F9
:10098000030505EA560505440BF01C020F232F6AE8
:10099000934027EA03030F6907FA02F21A432A6217
:1009A0004F6807F0030303FA08F2036823401A4371
:1009B0000260FA0041D5274A244D1346126826F0FA
:1009C000030442F001021A601A682F4602F0010285
:1009D00001922C44019D204D0BF00C020F23AE46DA
:1009E0006559934025EA0303009D05FA02F21A4374
:1009F00044F80E203A684C6842EA0C03E50358BFFD
:100A000022EA0C033B607A68A50342EA0C0358BF54
:100A100022EA0C037B60BA68E50242EA0C0358BF85
:100A200022EA0C030A4ABB6015461268A40242EA95
:100A30000C0358BF22EA0C032B600BF1040B08F1E6
:100A40000208013659E700BF0018004800040140C1
:100A50000C0401406010024008FCFFFF1CBCBDE814
:100A6000E08F0069084018BF012070471823002A52
:100A700008BF2823C150704705480068704700BF71
:100A80001B48034940680A6810440860704700BF6B
:100A90003802002080B5032000F06CF8002000F040
:100AA00007F808B1012080BD00F024F8002080BDC7
:100AB00070B50F4E04467068B0B14FF47A71B1FB57
:100AC000F0F04C490968B1FBF0F001F03BF9012569
:100AD0000F2C0AD848B94FF0FF30214600220025DC
:100AE00000F020F8346000E00125284670BD00BF0A
:100AF0002800002082B00A48816841F0010181602D
:100B0000816801F0010101910199016841F0805172
:100B10000160006800F080500090009802B07047BB
:100B200058100240B0B500F00F04184D043C2C449E
:100B30000C340F4BB0F1FF3FC8BFC41828684FF00A
:100B4000FF35C0F30220C31E80F0070038BF00232A
:100B5000042828BF042005FA00F021EA000005FA65
:100B600003F1984022EA0101084300012070B0BD62
:100B700000E400E005494FF6FF030A681A4060F3FD
:100B80000A22034810430860704700BF0CED00E0E4
:100B90000000FA05F049B0F5007F0A6802F4C0626F
:100BA0001DD1B2F5007F22D00868012262F34A20ED
:100BB000086010483222006850430F4AB0FBF2F040
:100BC0000130421E4B69824203D213F4806010460A
:100BD000F7D14869400544BF0320704707E0B2F5EC
:100BE000806F04D00868022262F34A200860002067
:100BF000704700BF3000002040420F00D648006818
:100C000000F4C060704700BF2DE9FC4704464078FF
:100C1000D04F000721D5606E4FEAB051032908D8A4
:100C2000DFE801F002091216201D002101F018FC76
:100C300006E0012612E004F12000002101F09EFCF4
:100C4000064658B9606E03E0396841F48031396076
:100C5000F96F21F440010843F86700266078C00668
:100C600001D4B2462BE0A06E4FEA3060032809D8C9
:100C7000B246DFE800F0020C1318201D002101F03D
:100C8000EFFB09E04FF0010A4FF0010818E004F112
:100C90002000002101F072FC824604E03868B24670
:100CA00040F480303860BAF1000FD04608D1A06E11
:100CB000F96F4FF0000A21F040710843F867B04621
:100CC000A078800701D4C24665E0F86CC0000BD460
:100CD000F86C4FF0010940F08050F864F86C00F0B7
:100CE00080500190019801E04FF000099A4D28686A
:100CF00040F480702860FFF7BFFE06462868C005F4
:100D000007D4FFF7B9FE801B0228F7D94FF0030A7A
:100D10003AE0BAF1000F37D1D7F8840010F44070F0
:100D200028D0D4F88410884211D0D7F88400D7F89E
:100D3000841020F4407041F48031C7F88410D7F853
:100D4000841021F48031C7F88410C7F88400C007EC
:100D500010D0FFF791FE064641F288354FF0030AA6
:100D6000D7F88400800705D4FFF786FE801BA842D1
:100D7000F6D909E0D4F88400D7F88410C24621F4EB
:100D800040710843C7F88400B9F1000F03D0F86C34
:100D900020F08050F8642068C10705D0A16BFA6F7D
:100DA00022F003021143F967810705D5E16BFA6F61
:100DB00022F00C021143F967410705D5216CFA6F47
:100DC00022F030021143F967010705D5616CFA6F13
:100DD00022F0C0021143F967C10605D5A16CFA6F74
:100DE00022F440721143F967810605D5E16CFA6F70
:100DF00022F440621143F967810505D5E16DFA6F70
:100E000022F440221143F967410505D5216EFA6F9E
:100E100022F440121143F967410605D5216DFA6F9E
:100E200022F440521143F967010605D5616DFA6F4E
:100E300022F440421143F967C10505D5A16DFA6F4F
:100E400022F440321143F967810419D5E16EFA6F3B
:100E5000B1F1806F22F0406242EA0102FA6707D0E6
:100E6000B1F1006F0CD1396841F48011396007E0AD
:100E7000201D012101F0F4FA002818BF82462068E5
:100E8000010319D5216FFA6FB1F1806F22F0406232
:100E900042EA0102FA6707D0B1F1006F0CD139685C
:100EA00041F48011396007E0201D012101F0D8FADA
:100EB000002818BF82462068410319D5616FFA6F78
:100EC000B1F1806F22F0406242EA0102FA6707D076
:100ED000B1F1006F0CD1396841F48011396007E03D
:100EE000201D012101F0BCFA002818BF82462068AD
:100EF000400419D5A06FF96FB0F1005F21F04051A7
:100F000041EA0001F96707D0B0F1805F0CD1201DE4
:100F1000022101F0A5FA04E004F12000022101F011
:100F20002DFB002818BF82462068010405D5E16F1B
:100F3000FA6F22F080421143F967C00306D5D4F856
:100F40008000F96F21F000410843F867504600F037
:100F500005B800BF0C100240007000400CBCBDE89A
:100F6000F08700002DE9F843002800F08880454B09
:100F700004461868884600F0070088420AD21868BC
:100F800020F0070040EA08001860186800F0070029
:100F9000404574D120684D4EC10735D060680228A5
:100FA00006D0032809D156F8081C89010DD466E043
:100FB00056F8081C890308D461E056F8081C10B1E3
:100FC000490502D45BE0890759D53168994621F07B
:100FD0000301084335463060FFF74EFD064641F2F7
:100FE000883729466068296801F00C01B1EB800F51
:100FF00007D0FFF741FD801BB842F2D90320BDE8BE
:10100000F88320682E464B46810705D5A1683268D3
:1010100022F0F00211433160196801F007014145E7
:101020000AD9196821F0070141EA08011960196815
:1010300001F00701414522D1410705D5E168326839
:1010400022F4E06211433160000706D5206931685F
:1010500021F4605141EAC000306000F03BF8316893
:10106000094AC1F30311515C01F01F01C840164940
:10107000086006480068BDE8F843FFF719BD012085
:10108000BDE8F88300200240723A000828000020E2
:101090000D480068704700BF0B480C49006809689C
:1010A0000B4AC1F30221515C01F01F01C840704797
:1010B0000548064900680968054AC1F3C221515C28
:1010C00001F01F01C84070473000002008100240A6
:1010D000823A000810B524498A68C86812F00C02E8
:1010E00005D00C2A20D100F0030001281CD108688B
:1010F000000703D4D1F89400000A01E00868000951
:101100001C4B00F00F0053F82030002A184618BF7F
:1011100000200C2A21D1C86800F00300022809D061
:10112000032808BF124B06E0042A17D0082A17D15B
:101130000F4810BD0D4BC868CA68C9680224C1F3C6
:101140004161C2F30622C0F302105A430130B2FBE0
:10115000F0F004EB4101B0FBF1F010BD034810BD0D
:1011600000200023D5E700BF001002400024F40057
:1011700000127A008C3A00082DE9F843002800F0AC
:101180001682D74E0446B06800F00C09F06800F0F3
:1011900003082078C00628D42078C0075AD0B9F1B7
:1011A000080F50D0B9F10C0F08BFB8F1030F4AD0A7
:1011B0006768B7F5803F07D03068B7F5A02F40F0DB
:1011C000308240F480203060306840F480303060FD
:1011D000FFF752FC0546306880033BD4FFF74CFC18
:1011E000411B03206429F6D969E2B9F1000F1BD035
:1011F000B9F10C0F08BFB8F1010F15D03068A16923
:10120000002900F0AC8140F001003060FFF734FCB1
:1012100005463068800700F1B381FFF72DFC411BC4
:1012200003200229F5D94AE23068800703D5A06976
:10123000002800F0BC81206A3168090752D4D6F832
:10124000941009094FE03068800303D560680028D6
:1012500000F0AD81207880072BD5B9F1040F1AD0AA
:10126000B9F10C0F08BFB8F1020F14D03068E16873
:10127000002900F09F8140F480703060FFF7FCFB94
:101280000546306840050DD4FFF7F6FB411B0320EF
:101290000229F6D913E23068400503D5E06800283A
:1012A00000F085812069716821F0F85141EA006001
:1012B0007060207800076CD5D6F894006169002929
:1012C00055D040F00100C6F89400FFF7D5FB054665
:1012D000D6F8940080075CD4FFF7CEFB401B0228B1
:1012E000F6D9F9E0316801F0F001884216D901F031
:1012F000C9F9002840F05B81306840F00800306098
:10130000D4E90701326822F0F002114331607168BC
:1013100021F47F4141EA0020706014E03168B9F1A6
:10132000000F41F008013160316821F0F00141EA1D
:1013300000013160E169726822F47F4242EA0121D2
:10134000716000F02F81FFF7C5FEB168DE4AC1F37E
:101350000311515C01F01F01C840DC490860DC4802
:101360000068FFF7A5FB002840F0A98114E720F0F2
:101370000100C6F89400FFF77FFB0546D6F89400FD
:10138000800706D5FFF778FB411B03200229F5D91A
:1013900095E12078400758D4A06A002800F08F819A
:1013A000022840F09F80E16AF06800F003028A4260
:1013B00040F0B980216B6FF00F0202EB011100F0D9
:1013C00070028A4240F0AF80616B00F4FE42B2EBE3
:1013D000012F40F0A880A16B00F40032073918BF3C
:1013E00001218A4240F09F80E16BBB4A02EA015131
:1013F000A1F5001100F4C0028A4240F09480216CF3
:101400004FF07E4202EA016101F17E4100F0C060CE
:10141000884240F088803068800100F15281306855
:1014200040F080703060F06840F08070F060FFF74E
:1014300023FB04463068800100F14381FFF71CFB69
:10144000011B03200229F5D939E1B06DC0000BD48E
:10145000B06D4FF0010840F08050B065B06D00F005
:1014600080500090009801E04FF00008994F3868D4
:10147000C00510D4386840F480703860FFF7FCFA7B
:1014800005463868C00506D4FFF7F6FA411B03206D
:101490000229F6D913E1A768012F08D0D6F89000E9
:1014A000052F40F0988040F00400C6F89000D6F870
:1014B000900040F00100C6F89000FFF7DDFA054605
:1014C00041F28837D6F89000800700F1A180FFF73D
:1014D000D3FA401BB842F5D90320BDE8F88300BF1A
:1014E00000100240B9F10C0F61D0306820F080701C
:1014F0003060306810F0205F03D1F06820F0030006
:10150000F060F06877490840F060FFF7B5FA0446EC
:101510003068800140F1D580FFF7AEFA011B03204F
:101520000329F5D3CBE0B9F10C0F40D0306840016E
:101530005CBF30685FEAC00039D4306820F080704A
:101540003060FFF799FA05463068800140F18180EC
:10155000FFF792FA411B03200229F5D9AFE020F0F2
:1015600001003060FFF788FA0546306880077FF594
:1015700013AEFFF781FA411B03200229F5D99EE043
:10158000306840F008003060D4E90701326822F08A
:10159000F00211433160716821F47F4141EA00207B
:1015A0007060F9E501F06EF800283FF4CCAE012040
:1015B000BDE8F88320F480703060FFF75DFA0546DF
:1015C000306840057FF575AEFFF756FA411B0320E2
:1015D0000229F5D973E020F00100C6F89000D6F892
:1015E000900020F00400C6F89000FFF745FA054689
:1015F000002F7FF465AF41F28837D6F8900080075E
:1016000006D5FFF739FA411B0320B942F5D956E058
:10161000B8F1000F3FF4C0AEB06D20F08050B0655F
:10162000BAE620F480303060306820F480203060EA
:10163000FFF722FA0546002F7FF4CDAD05E0FFF756
:101640001BFA411B0320642939D830688003F6D483
:1016500000E604F12C030FCB6FF00F0505EB011131
:10166000F5681E4F3D402843084340EA0220E16BE5
:10167000194A02EA0151A1F500110843216C4FF00B
:101680007E4202EA016101F17E410843144901EA08
:1016900043310843F060306840F080703060F0689B
:1016A00040F08070F060FFF7E7F904463068800191
:1016B00007D4FFF7E1F9011B03200229F6D9BDE8A1
:1016C000F8830020BDE8F883723A0008300000205B
:1016D00028000020007000400000E0FF8C809DF991
:1016E0000000FEFFFFFFEEFE40B1F8B50446406A81
:1016F00030B10020206104F1140007E001207047A0
:101700006068B0F5827F03D004F11C000021016005
:101710000025A562206E18B92046E56500F04AF85C
:10172000022020662068E1680268B1F5E06F22F0CF
:10173000400241F40063026098BF0125B3F5706F69
:101740001CBF0023A3622A03D4E90135D4E904674E
:1017500003F4827305F404452B4406F002052B4480
:1017600007F001052B44A56901F4706105F40076CA
:101770003344E669114306F038063344266A06F01E
:1017800080063344A66A06F40056334303600423FC
:10179000626A03EA1543194302F010021143626BB7
:1017A00002F00802114341600020012160662166B9
:1017B000F8BD000010B586B0044601A81421FEF75C
:1017C0004CFD20681349884221D11348416941F4F6
:1017D00080514161416901F4805100910099016893
:1017E00041F001010160006801A900F001000090D2
:1017F0000520059003200490002003900220029011
:10180000E020019000984FF09040FFF75DF806B09F
:1018100010BD00BF003001404C1002402DE9F843DC
:10182000044640681D4617460E46B0F5827F03D138
:10183000A068002800F08180E06D012804BF02202C
:10184000BDE8F8834FF00109C4F85C90FFF714F984
:101850008046206E01286ED10120002E00F0868087
:10186000002F00F083800420206600206066A4F82A
:101870004670E087A4F844702664A087A063C4E99A
:1018800013002168D4E902204B68B0F5E06F43F4FF
:10189000805688BF23F48056B2F5004F4E6007D1C2
:1018A0000A6822F040020A600A6822F480420A6054
:1018B0000A68520603D40A6842F040020A606E1CAD
:1018C000B0F5E06F1CD8B4F84600002840D020687E
:1018D0008168C90708D1FFF7CFF8002EF3D0A0EB3D
:1018E0000800A842EFD340E0007B216C0870206C18
:1018F00001302064B4F846000138A4F84600E2E75D
:10190000B4F8460020B320688168C90708D1FFF702
:10191000B3F8002EF4D0A0EB0800A842F0D324E0E6
:10192000216CC06821F8020B2164B4F8460001382C
:10193000A4F84600E4E7022018E0042020662046D0
:10194000314632463B46009500F0DEF8BDE8F883AC
:1019500020462946424600F0D7FE08B120206066A6
:10196000606E002818BF012000E003200021E1651F
:10197000C4F86090BDE8F8832DE9F8430446C06DD3
:10198000012804BF0220BDE8F8834FF001091D467D
:1019900016460F46C4F85C90FFF76EF88046206E3E
:1019A000012857D10120002F00F0A880002E00F060
:1019B000A5800320206600206066E687A687A763CF
:1019C000A4F844002064C4E91300A4F84600A16808
:1019D0002068B1F5004F07D1016821F04001016096
:1019E000016841F4804101600168490603D401683F
:1019F00041F0400101606168721EE368B1FA81F153
:101A0000B2FA82F2490952090A43B3F5E06F23D9C9
:101A100032B137F8021BC160A763E08F0138E0875D
:101A20006E1CE08F002851D020688168890708D497
:101A3000FFF722F8002EF4D0A0EB0800A842F0D364
:101A40005BE0A16B31F8022BC260A163E08F01382B
:101A5000E087E6E7022051E04FF6FE718AB1E28F9F
:101A6000022A05D337F8022BC2604FF6FE7004E05D
:101A70003A780273A26B481C571CA763E28F10448C
:101A8000E0876E1C4F1CE08F00B3216888688007D8
:101A900008D4FEF7F1FF002EF5D0A0EB0800A84215
:101AA000F1D32AE0A06BE28F022A05D330F8022B93
:101AB000CA604FF6FE7104E000780873A06B3946E7
:101AC0000130A063E08F0844E087DCE72046294628
:101AD000424600F04FFE08B120206066A06838B989
:101AE000002000902068C1680091806800900098F4
:101AF000606E002818BF012000E003200021E1658E
:101B0000C4F86090BDE8F8832DE9F8430446C06D41
:101B1000012804BF0220BDE8F88301201E461546B7
:101B20000F46E065FEF7A8FF216E814601297ED1B0
:101B30000120002F00F00081002D00F0FD80002E1C
:101B400000F0FA80206E4FF0000C04281CBF052026
:101B50002066C4F864C0A4F84660E6872068D4F81C
:101B60000CE04368BEF5E06F23F480510A4698BF4D
:101B700043F48052012E88BF0A4642602564A4F8CF
:101B80004460A763C4E913CCA6870168490603D45F
:101B9000016841F0400101606168721EB1FA81F193
:101BA000B2FA82F2DDF82080490952090A43BEF5F3
:101BB000E06F4AD932B137F8021BC160A763E08FEA
:101BC0000138E087012608F10105E08F20B9B4F85B
:101BD0004600002800F0A5802068816889070CD5A0
:101BE000E18F012E09D141B1A16B002631F8022B02
:101BF000C260A163E18F0139E1878168C9070DD017
:101C0000B4F8461051B1216CC068012621F8020BCE
:101C10002164B4F846000138A4F84600FEF72CFF12
:101C2000002DD2D0A0EB09004045CED377E060680C
:101C3000B0F5827F07D1022004297DD1A168002957
:101C40003FF476AF78E0022076E08AB1E28F4FF67B
:101C5000FE71022A03D337F8022BC26004E03A78FF
:101C600001310273A06B471CA763E08F0844E08733
:101C7000012608F10105E08F18B9B4F846000028E4
:101C80004FD020688168890718D5E18F012E15D1C2
:101C9000A1B1A16BE28F022A06D331F8022BC260F8
:101CA000A163E18F023907E009780173A16B206815
:101CB0000131A163E18F01390026E1878168C907FD
:101CC00025D0B4F8461011B3B4F84610022912D347
:101CD000216CC26821F8022BB4F84620023AA4F81D
:101CE00046202164B4F8461001290FD8416841F418
:101CF000805141600AE0007B216C0870206C01304B
:101D00002064B4F846000138A4F846000126FEF726
:101D1000B3FE002DAFD0A0EB09004045ABD30320AC
:101D20000AE0204641464A4600F024FD00280FBF45
:101D300000202020606601200021E165012121664C
:101D4000BDE8F883411E0020B0EB116F1CBF0120DD
:101D50007047044AF023516003490B7007219060DB
:101D60001160704710E000E023ED00E010B598B17D
:101D70000446406F20B900202067204600F026F876
:101D8000242060672068016821F00101016020467D
:101D900000F0D2FE012801D1012010BD606A10B10F
:101DA000204600F047FE2068416821F490414160E0
:101DB000816821F02A018160016841F00101016020
:101DC0002046BDE8104000F08ABE000010B586B085
:101DD000044601A81421FEF740FA206813498842FE
:101DE00022D11348416941F480414161416901F4C4
:101DF000804100910099016841F001010160006893
:101E000001A900F001000090072005900320049034
:101E100000200390022002904FF4C06001900098CF
:101E20004FF09040FEF750FD06B010BD0038014065
:101E30004C1002402DE9FC470446406F202809D190
:101E40000D460120002955D01646002A52D0206F99
:101E5000012802D1022000F04FB84FF0000A012003
:101E6000C4F87CA02067212099466067FEF704FE35
:101E7000A4F85260A4F850608046A068B0F5805F76
:101E800006D127690026002F0CBF2E462F4601E001
:101E90002F460026C4F870A0B4F85200D8B12046EE
:101EA000802100224346CDF8009000F035FFD8B9DC
:101EB00027B117F8010B2168088506E036F8021BE8
:101EC00020686FF35F2101850027B4F852000138C4
:101ED000A4F85200E0E72046402100224346CDF816
:101EE000009000F019FF10B1032000F005B8202089
:101EF0006067002000F000B80CBCBDE8F087FEE78A
:101F0000FEE7FEE7E0B5002000F0EAF847F25030C7
:101F1000ADF80600B7480DF1060102226423FFF771
:101F20002BFD012000F0DCF88CBD00BF0020AFF3DA
:101F3000008070B5064600F0F7F810F040040ED0AF
:101F4000054616B1C5F3420030700720402100F06D
:101F50004DFAA80603D50720202100F047FA002CEF
:101F600018BF0124204670BD81B02DE9FC43064610
:101F70004F4814460D4609A968220993FEF754F903
:101F8000DFF830810120A8F80640A8F80450C8F80E
:101F9000086000F0A5F8002000F098F80520FEF792
:101FA00083FC454D00200821A84701203F21A84778
:101FB00002200321A84703200321A847042003216E
:101FC000A84705200221A84706200F21A84707207F
:101FD0000E21A84708200021A84709200021A84772
:101FE0006C46364F6FF018094FF0E7360A2021464D
:101FF00005228DF804900096B8476FF03D008DF8EB
:1020000004004FF0C23000900B2021460522B84753
:102010000C20C321A8470D20C421A8470E20C521AC
:10202000A8470F20C621A8471020214605228DF879
:1020300004900096B84711200021A84712200021E3
:10204000A84713200021A84714200021A8471520E5
:102050000021A84716200021A847FFF753FF1C20A6
:102060000021A8471D200021A84700F0BBFF042045
:10207000FF21A847032000F003F9012000F0E4F855
:10208000022000F0C5F800F035F8202088F80200A2
:1020900000F0B2F84C2000F0CFF800F03EF800F06D
:1020A00038F800F05DF800F00BB801B0704700BFE1
:1020B0005001002040000020ED2300081D240008EE
:1020C0000CBCBDE8F043FFF7F0BF00000246B84883
:1020D000002AC188806818BF0122FEF7C7BC00BF74
:1020E0000246B348002A8188806818BF0122FEF7A3
:1020F000BDBC00BF80B51D2000F03EF800F0FB0124
:102100001D2000F073F91C200021BDE8804000F084
:102110006DB9E220FF2100F069B9E120FF2100F054
:1021200065B9602000F028B8072000F025B800004D
:102130001CB56C46CDE900010A202146052200F0BD
:102140006DF910202146052200F068F99848817841
:102150001120202928BF202100F048F91CBD00BF14
:1021600080B5002000F008F800F0FD010020BDE877
:10217000804000F03BB90000BCB504460020FFF7EA
:10218000AFFF04F01F00B44C0DF105058DF80500FC
:102190002046294601226423FFF7EEFB691C2046F6
:1021A00001226423FFF73AFB9DF806400120FFF768
:1021B00097FF2046BCBD00BF7CB5064600201446F4
:1021C0000D46FFF78DFF06F01F00A34E8DF80500AA
:1021D0000DF10501304601226423FFF7CDFB3046A7
:1021E000294622466423FFF719FB0120FFF778FFF9
:1021F0007CBD00BF500100200720702100F0F6B820
:10220000014600284FF0010018BF3F2100F0EEB852
:1022100010B504460020FFF7AFFF00F0F30134B122
:1022200040F00C00012C08BF41F0080001460020DE
:10223000BDE8104000F0DAB801467F284FF00500F5
:1022400028BF7F2100F0D2B8B0B505460620FFF7C1
:1022500093FF00F0D704012D04D0022D08BF44F0F5
:10226000200401E044F008040620214600F0BEF8F6
:102270000620FFF781FF001BB0FA80F04009B0BDD7
:1022800010B504460620FFF777FF621E00F0F90143
:10229000032A0BD8DFE802F00508020240F006012D
:1022A00004E041F0020101E041F004010620BDE834
:1022B000104000F09BB800003D49202828BF202096
:1022C0008870704770B50D4E054600200C46B0472B
:1022D0000020FFF751FF00F0FC00811C002000F0FF
:1022E00085F80120B0472846214600F063F8012018
:1022F000B04700203146BDE870400847CD200008B7
:1023000080B50020FFF7E2FEFFF707FFBDE8804041
:10231000FFF7FFBEF8B514460D460646FFF704FF6B
:102320000746002030700720702100F05FF8C7F3E7
:1023300040103070C7F300102870C7F38010207071
:10234000F8BD0000BCB50C460546FFF755FF284612
:102350002146FFF7B7FFFEF78FFB04460DF1070597
:10236000082029460122FFF727FFFFF7DDFE10F0C6
:10237000300F04D1FEF780FB001B0A28F0D30C4D70
:102380000DF106000DF105012A46FFF7C3FF28787D
:102390009DF8064010B1FFF7C4FE6870002C18BF0E
:1023A0000124FFF7C3FDFFF7B8FE2046BCBD00BF08
:1023B000400000207CB5054600200C46FFF790FE4B
:1023C000254EA0208DF807000DF1070130460122AF
:1023D0006423FFF7D1FA3046294622466423FFF7EB
:1023E000CBFA0120FFF77CFE7CBD00BFBCB50546E3
:1023F00000200C46FFF774FE45F020008DF80640E3
:102400008DF8050014480DF1050102226423FFF741
:10241000B3FA0120FFF764FEBCBD00BF7CB50646E1
:10242000002014460D46FFF75BFE46F020000A4EE2
:102430008DF805000DF10501304601226423FFF7F8
:102440009BFA3046294622466423FFF795FA01207D
:10245000FFF746FE7CBD00BF500100207047000022
:10246000F8B5844F0446F8680D46800710D02168FF
:10247000F86800F0030201208A427BD1002979D05C
:102480006068F968C1F30211013181420AD11DE08F
:102490002068032808D002283AD0012802D13968E0
:1024A000890708D40120F8BD396889035CBF396801
:1024B0005FEA4131F6D561686FF00F0202EB01115E
:1024C000FA6822F0730210430843F860386820F07D
:1024D00080603860FEF7D0FA06463868000105D5FE
:1024E000FEF7CAFA801B0228F7D93CE0A5B138698B
:1024F0006149012D1BD101F1B4610840A168226935
:1025000040EA01201C4901EA0251A1F5001119E03D
:1025100039684905C6D5CEE7D4E90201584A574B78
:1025200002EA41313A691A4042EA00200AE00840D2
:10253000A168626940EA01204FF07E4101EA026130
:1025400001F17E4108433861386840F080603860AE
:10255000FEF792FA05463868000106D4FEF78CFAB9
:10256000401B0228F7D90320F8BDA0693969084348
:1025700038610020F8BD00BF0000E0FFF8B53D4F16
:102580000446F8680D46800710D02168F86800F00E
:10259000030201208A426BD1002969D06068F96882
:1025A000C1F30211013181420AD11DE020680328E4
:1025B00008D0022837D0012802D13968890708D409
:1025C0000120F8BD396889035CBF39685FEA413191
:1025D000F6D561686FF00F0202EB0111FA6822F084
:1025E000730210430843F860386820F08050386068
:1025F000FEF742FA06463868800005D5FEF73CFA39
:10260000801B0228F7D92CE0786985B11A49226924
:102610000840A16840EA01204FF07E4101EA0261D2
:1026200001F17E410CE039684905C9D5D1E713496C
:102630000840D4E9021240EA0120114901EA42317E
:1026400008437861386840F080503860FEF714FA2B
:1026500005463868800006D4FEF70EFA401B0228B3
:10266000F7D90320F8BD60697969084378610020D3
:10267000F8BD00BF00100240FF80FFF9FF80FDFFA2
:102680000000FEFFBCB51E4D04462868C0000FD4F4
:10269000286840F080502860286800F08050019041
:1026A0000198FEF7ABFA296821F08051296001E01A
:1026B000FEF7A4FAB0F5007F06D1812C08D30120E3
:1026C000A02C88BF02200DE0802C03D9032009E054
:1026D000002007E0A4F17000B0FA80F04009802CDF
:1026E00008BF022007490A6822F0070202440A6074
:1026F000096801F00701081A18BF0120BCBD00BF1E
:10270000581002400020024070B50446406815464B
:102710000E46B0F5827F0BD1A068B0F5004F02D015
:10272000B0F5806F04D12068016821F0400101609C
:10273000204631462A4600F09BF828B1606E40F0F2
:1027400020006066032070BD6068B0F5827F0FD105
:10275000A068B0F5004F02D0B0F5806F08D12046D8
:102760004FF4C06132462B4600F026F80028E5D130
:10277000002070BD70B515460E464FF4C05132466C
:102780002B46044600F018F868B9204631462A4620
:1027900000F06EF838B920464FF4C06132462B463F
:1027A00000F00AF828B1606E40F020006066032057
:1027B00070BD002070BD00002DE9FC411E4617468B
:1027C0000D468046FEF758F9301AC419FEF754F941
:1027D00006464E482321006801374843000D6043F8
:1027E0000190D8F800008168294213D0B5F5C06F78
:1027F00008BF017B002FF6D0FEF73EF9801BA042F8
:102800000BD2019801990028A1F10101019108BFA3
:102810000446E6E70020BDE8FC81D8E900014268F3
:10282000B1F5827F22F0E00242600BD1D8F80810A7
:10283000B1F5004F02D0B1F5806F03D1016821F0EE
:1028400040010160D8F82810B1F5005F07D1016898
:1028500021F400510160016841F400510160002041
:10286000C8F85C000120C8F860000320BDE8FC81C6
:10287000F8B515460E460446FEF7FEF8281A8719E5
:10288000FEF7FAF80546214801360068C0F3CB3060
:10289000784300902068816809060FD5002EFAD091
:1028A000FEF7EAF8401BB8420AD2009800990028C7
:1028B000A1F10101009108BF0746EBE70020F8BD38
:1028C000D4E900014268B1F5827F22F0E002426063
:1028D0000AD1A168B1F5004F02D0B1F5806F03D1E4
:1028E000016821F040010160A16AB1F5005F07D1E4
:1028F000016821F400510160016841F40051016058
:102900000020E065012020660320F8BD3000002093
:102910007047FEB500220592CDE90322CDE90112F0
:1029200001A9FDF7D1FF06B080BDFEB500220592DA
:10293000CDE903220122CDE9011201A9FDF7C4FF6F
:1029400006B080BDFEF79CB8B0B5B8B027AC201D6E
:102950002421FDF782FC22A81421FDF77EFC6846A5
:102960008821FDF77AFC02200721CDE93600359158
:102970002821349101213391CDE9310160202F903C
:1029800000251020CDE92D1527902046FEF7F4FBF9
:1029900018B1EFF3108072B6FEE703202695CDE95B
:1029A000245523900F20229022A80421FEF7DAFA62
:1029B00018B1EFF3108072B6FEE700200E900120F0
:1029C00000906846FEF720F918B1EFF3108072B658
:1029D000FEE74FF40070FEF7DDF818B1EFF310805A
:1029E00072B6FEE738B0B0BD10B50F48104CD0F845
:1029F000801041F47001C0F880100C490A6842F060
:102A000001020A6000228A600B6823400B604FF4C9
:102A10008053CB600B6823F480230B608A614FF0F6
:102A20000061016010BD00BF08ED00E00010024031
:102A3000FFFFF6EA10B5416ACA0706D00268836A4A
:102A4000546824F40034234353608A0706D502688F
:102A5000C36A546824F48034234353604A0706D57C
:102A60000268036B546824F48024234353600A07EC
:102A700006D50268436B546824F400442343536032
:102A8000CA0606D50268836B946824F480542343F5
:102A900093608A0606D50268C36B946824F40054D8
:102AA000234393604A0610D50268036C5468B3F55B
:102AB000801F24F4801444EA0304546005D1436C5D
:102AC000546824F4C00423435360090606D5016802
:102AD000806C4A6822F400221043486010BDBCB5E7
:102AE00004460020E067FDF7C7FF0546206801683F
:102AF00009070BD56FF07E40009020464FF400117F
:102B000000222B4600F008F970B9206800684007E1
:102B10000CD56FF07E40009020464FF480010022DB
:102B20002B4600F0F9F808B10320BCBD202100209D
:102B300061672067A167BCBD70B501680446806805
:102B4000D4E903320D68654E104335406669E26989
:102B50003043104328430860486820F4405018432D
:102B600048605F4BA06999421CBF256A28438D6865
:102B700025F43065284388605A48814211D05A486C
:102B8000814212D05948814213D05948814214D011
:102B9000994216D05748814249D1574858A50068F4
:102BA00013E05548006880080EE0534800680009AB
:102BB0000AE051480068800906E04F480068000AB2
:102BC00002E04D480068800A4C4D00F0030055F8C3
:102BD00020504F48994210D00121B2F5004F1AD130
:102BE000082D00F27580DFE805F005464F73497344
:102BF00073734D00FEF750FA42E00121082D00F2F8
:102C00006780DFE805F005651C65166565651A00D7
:102C1000FEF742FA0FE0082D5AD8DFE805F0054329
:102C20004C59465959594A00FEF736FA3FE01025EB
:102C3000CFE7FEF74FFA10B947E04FF40040626863
:102C4000012102EB4203984242D3130398423FD83A
:102C500000215FEA51014FEA320313EB002341EBFD
:102C6000106118460023FDF7ABFA2A4AA0F540711F
:102C7000914228D92BE0FEF71BFA01E0FEF72AFA71
:102C800010B922E04FF4004061684A0802EB4000AE
:102C9000B0FBF1F04FF6F071014018D0C0F34200E4
:102CA000084310E0FEF704FA01E0FEF713FA10B94A
:102CB0000BE04FF40040616800EB5100B0FBF1F015
:102CC00080B2102803D32168C860002100E00121F0
:102CD0000020C4E91800084670BD00BFF369FFEF8B
:102CE000008000400044004000480040004C00408C
:102CF000005000400038014088100240BC3A0008F3
:102D000001000000040000000200000008000000B4
:102D10000024F400FFFC0F002DE9F843DDF82090BB
:102D20000F46016898461646044609F10105C86930
:102D30003840C01BB0FA80F04009B04223D1002DCA
:102D4000F5D0FDF799FE2168B9F1000F0A681DD092
:102D5000A0EB0800484519D8500744BFC8695FEA8E
:102D60000050E4D54FF400600862086820F4D07089
:102D70000860886820F00100886020206067A067F4
:102D800004F17C000DE00020BDE8F88322F4D0704F
:102D90000860886820F0010088602020606704F1E6
:102DA000780000212167202101600320BDE8F8831D
:102DB000FEE70000BCB5084C01902568FEF768F9F5
:102DC0000649B0FBF1F00199484301902068019950
:102DD000401B8842FAD3BCBD041000E040420F0003
:102DE000A2B0FDF757FEFFF7AFFD00276B48219714
:102DF0000168002241F08001016001684FF4C05574
:102E000001F080011C911C99016841F001010160F1
:102E1000016801F001011C911C99016841F0020157
:102E2000016000684FF4C05100F002001C901C9833
:102E30004FF09040FDF71AFE594C4FF400712046B8
:102E400000224FF40078FDF711FE0126CDE91F772F
:102E5000CDE91D561DAD4FF090402946FDF734FDDC
:102E600020462946CDE91F77CDE91D86A146FDF70D
:102E70002BFD4C4E4C4C304640F8104F0821072299
:102E8000C0E90977C0E90B27416320214FF4407264
:102E90004FF48273C0E90137C0E90327C0E9057820
:102EA000C0E90717FEF720FC18B1EFF3108072B6E7
:102EB000FEE722463D4D0C204FF4E13102F5006261
:102EC000C5E90877C5E90021C5E90277C5E90470BD
:102ED00028464C46C5E90677FEF748FF18B1EFF3E0
:102EE000108072B6FEE720464FF40071FFF711FD27
:102EF000324906F114006A4650F8043B043942F89E
:102F0000043BF9D133694FF090404FF480514FF4B6
:102F10000062FFF729F82A4905F110006A4650F8C7
:102F2000043B043942F8043BF9D10FCD00F04AF8D4
:102F300000F058F8FFF7E4F91D4DD5E90001FFF75F
:102F4000F7F80020FFF75CF93420FFF775F920202F
:102F5000FFF7B2F920464FF40071FFF7E6FCDFF807
:102F60004C8006F10804083512A72046FDF7D4FB73
:102F7000D6E90201C6E900014FF4FA60FDF794FCBE
:102F800028462021FFF7DEF90028EED040463946DA
:102F900006220A23FEF74EFFE7E700BF4C1002406F
:102FA000000400485800002000300140D0000020FC
:102FB00000000020646F6E650D0A000064000000D0
:102FC0007000000084B080B502AF0FC7044802A9AA
:102FD0008022FDF729F9BDE8804004B0704700BFAA
:102FE000B80100202DE9F04F9FB006ACDFF8AC141B
:102FF00020463322FDF718F92046FDF739F982B251
:10300000DFF89C0421460A23FEF714FF0020FFF797
:10301000B3F801070BD4DFF8C40407AC06900FF235
:10302000BC40031D0ECB00690EC40A9017E0400798
:103030000FD4DFF88C0407AE06900FF28440051D14
:103040003ECD3EC6018B807EADF830108DF832004B
:1030500005E006A80FF24C411C22FDF7E5F806AC8E
:10306000DFF88CB42046D847DFF83454DFF8848486
:1030700082B2284621460A23C047DFF87C6401203B
:10308000B047C0F340110391C0F300110291C0F3A7
:10309000C0010191C0F380010091DFF86014DFF8F6
:1030A00060A400F00102C0F340032046D047204650
:1030B000D84782B2284621460A23C0470220B0479B
:1030C000C0F340110391C0F300110291C0F3C0019D
:1030D0000191C0F380010091DFF8281400F0010293
:1030E000C0F340032046D0472046D84782B2284646
:1030F00021460A23C0470320B04700F00300821C8A
:103100000FF204412046D0472046D84782B22846D5
:1031100021460A23C0470520B04700F07F020FF286
:1031200004412046D0472046D84782B2284621464F
:103130000A23C0470620B0470446000706D4DFF83C
:10314000100406AF90E86E006EC708E0DFF8E803F1
:1031500007AE06900FF2E030051D2ECD2EC6818AF7
:10316000807D06ADADF82C108DF82E002846FDF7B9
:103170007FF882B2CA4829460A23FEF75BFEC4F3F1
:103180004100DFE800F0021B0512DFF8D40316E06F
:10319000DFF8C40306AD90E81E001EC5018A807CDE
:1031A000ADF828108DF82A0013E0EA4806AD90E843
:1031B0001E00008A1EC5ADF828000AE0E748016835
:1031C00042688368C468006906910792089309946D
:1031D0000A9006AC2046D847DFF8C49282B248462F
:1031E00021460A23C0470DF11206DE4F0A20314660
:1031F0000522B8479DF813109DF814509DF8120051
:103200009DF816209DF81530CDE90051D649029061
:103210002046D0472046D84782B2484621460A2356
:10322000C0470B2031460522B8479DF813109DF882
:1032300014509DF812009DF816209DF81530CDE928
:103240000051CA4902902046D0472046D84782B252
:10325000484621460A23C0470C2031460122B84780
:103260009DF81220C2492046D0472046D84782B256
:10327000484621460A23C0470D2031460122B8475F
:103280009DF81220BB492046D0472046D84782B23D
:10329000484621460A23C0470E2031460122B8473E
:1032A0009DF81220B4492046D0472046D84782B224
:1032B000484621460A23C0470F2031460122B8471D
:1032C0009DF81220AD492046D0472046D84782B20B
:1032D000484621460A23C047102031460522B847F8
:1032E0009DF813109DF814509DF812009DF81620BB
:1032F0009DF81530CDE90051A14902902046D047F4
:103300002046D84782B2484621460A23C0477A4D14
:103310001120A8479B4900F03F022046D047204695
:10332000D84782B2484621460A23C0471220A84700
:10333000954900F03F022046D0472046D84782B248
:10334000484621460A23C0471320A8478F4900F06A
:103350003F022046D0472046D84782B24846214601
:103360000A23C0471420A847894900F03F0220469D
:10337000D0472046D84782B2484621460A23C04754
:103380001520A847834900F03F022046D047204639
:10339000D84782B2484621460A23C0471620A8478C
:1033A0007D4900F03F022046D0472046D84782B2F0
:1033B000484621460A23C0471C20A847C0F34011B5
:1033C0000391C0F300110291C0F3C0010191C0F359
:1033D00080010091714900F00102C0F340032046D2
:1033E000D0472046D84782B2484621460A23C047E4
:1033F0001D20A847044640070BD46A4806AF90E852
:103400006E006EC7818A807DADF82C108DF82E007D
:1034100007E0634806AF90E86E00808A6EC7ADF89B
:103420002C0006AD2846FCF723FF82B21C48294633
:103430000A23FEF7FFFCA0070BD45C4806AF90E818
:103440007E007EC7018B807EADF830108DF8320093
:1034500007E0554806AF90E87E00008B7EC7ADF8C8
:10346000300006AC2046FCF703FF0D4D82B2284623
:1034700021460A23FEF7DEFC084920463322FCF7EA
:10348000D3FE2046FCF7F4FE82B2284621460A23EA
:10349000FEF7D0FC1FB000F08BB800BF343E000830
:1034A000B80100204352433A0D0A0909456E616292
:1034B0006C65642C2032204279746573200D0A00FB
:1034C0004352433A0D0A0909456E61626C65642CEA
:1034D00020312042797465200D0A00004352433A9E
:1034E0000D0A090944697361626C6564200D0A0064
:1034F00071020008351E0008792100088C3C000884
:10350000B9350008D03C000853455455505F415729
:103510003A0D0A09092564206279746573200D0A41
:103520000000000052465F43483A0D0A090925642D
:10353000204348200D0A00004461746120526174E8
:10354000653A0D0A0909324D627073200D0A0000B8
:103550001C3E0008643D00088C3D0008783D0008D2
:10356000A03D0008B9210008CC3A0008FC3A000848
:10357000563B00087E3B0008A63B0008CE3B0008F7
:103580002C3B0008F63B00080F3C0008283C0008D4
:10359000413C00085A3C0008733C0008193D0008F3
:1035A000B43D0008E83D0008CC3D0008003E00089E
:1035B00030BCBDE8C08F00000FB4084B10B504A9A3
:1035C00002AA039800F01CF8044602A9002000F0AB
:1035D0004BFA204610BC5DF814FB0000693A000865
:1035E00002E008C8121F08C1002AFAD170477047CC
:1035F000002001E001C1121F002AFBD1704700002A
:103600002DE9FF4F8DB00F460546002606E0252820
:103610000BD0DDE90F1290476D1C761C287800282E
:10362000F5D111B0304600F0F3B90024A246A1460E
:103630000122EC4900E0044315F8013F203B02FA67
:1036400003F00842F7D128782A2810D06FF02F0213
:103650002878A0F13001092914D80AEB8A0102EB7D
:10366000410144F0020400EB010A6D1CF0E701CFB8
:103670005FEA000A03D544F40054CAF1000A44F09A
:1036800002046D1C28782E2817D115F8010F44F07C
:1036900004042A280ED06FF02F022878A0F1300100
:1036A00009290AD809EB890102EB410100EB010964
:1036B0006D1CF2E757F8049B6D1C28786C280FD01E
:1036C00006DC4C2817D068280DD06A2814D104E0F5
:1036D000742810D07A280FD10DE044F400140AE0C9
:1036E00044F4801401E044F440146978814202D12A
:1036F00004F580146D1C6D1C2A786E2A1FD00CDC1A
:10370000632A31D004DC002A8BD0582A11D1A3E0DF
:10371000642A68D0692A0CD165E0732A2ED004DCB3
:103720006F2A73D0702A04D19BE0752A6FD0782A53
:103730006ED01046DDE90F129047761C50E1C4F3BD
:103740000250022806D0032809D0042801CF09D04E
:10375000066045E101CFF117C0E9006140E101CF0A
:1037600006803DE106703BE117F8040B8DF8000080
:1037700000208DF80100EB46012003E057F804BB60
:103780004FF0FF3061074FF0000102D40DE008F167
:103790000101884649450FDA8045F8DB1BF808101F
:1037A0000029F4D108E008F1010188468142FADBE2
:1037B0001BF808100029F6D1DDE90F23AAEB080059
:1037C0008146214600F039F9304400EB080604E058
:1037D000DDE90F121BF8010B9047B8F10108F7D291
:1037E00021464846F7E00A21C4F302534FF0000B8C
:1037F0000891022B04D001CFC117032B09D00AE096
:10380000FF1D27F00707F7E8020108E032E01FE09C
:1038100020E000B2C117042B01D140B2C117031E32
:1038200071F1000307DA4FF0000CD0EB0C006CEBE9
:1038300001012D2302E0230504D52B238DF824302C
:10384000012303E0E30701D02023F7E7984658E07F
:103850000A2110E010210EE010204FF0000B08901C
:103860000CE010214FF0000B44F004044FF0080965
:10387000089103E008214FF0000B0891C4F30253B4
:10388000022B04D001CF0021032B06D006E0FF1D40
:1038900027F00707F7E8020103E080B2042B00D10C
:1038A000C0B24FF0000823072BD5702A07D0DDF8EF
:1038B00020C08CF0100C5CEA0B0C05D00EE040230D
:1038C0008DF82430012308E050EA010306D03023AC
:1038D0008DF824308DF8252002239846DDF820C08D
:1038E0008CF0080C5CEA0B0C0BD150EA010301D1FF
:1038F000630706D530238DF824304FF00108A9F175
:103900000109582A04D038A20B9208AA0A920BE0A7
:103910003AA2F9E75B46089AFCF752FC0B9B9B5CCA
:103920000A9A521E0A92137050EA0102F2D10A98C2
:10393000ADEB000000F1200B600702D524F48034C9
:1039400001E04FF00109D94502DDA9EB0B0000E0D1
:10395000002000EB0B0141440890AAEB010AE003B0
:1039600006D4DDE90F232146504600F066F80644F0
:103970004FF0000908E009A911F80900DDE90F126C
:10398000904709F10109761CC145F4DBE0030CD531
:10399000DDE90F232146504600F04FF8064404E0CD
:1039A000DDE90F1230209047761C0899481E0890D8
:1039B0000029F5DC08E00A980A990078491C0A9168
:1039C000DDE90F129047761CBBF10001ABF1010B52
:1039D000F1DC21465046DDE90F2300F01CF80644D7
:1039E0006D1C1BE60928010030313233343536377F
:1039F000383961626364656600000000303132333B
:103A000034353637383941424344454600000000DA
:103A100030BCBDE8C08F2DE9F041044600251E46AC
:103A20001746880404D405E039462020B0476D1CB1
:103A3000641EF9D52846BDE8F0812DE9F041044621
:103A400000251E469046C80301D5302700E02027F8
:103A5000880404D505E041463846B0476D1C641E15
:103A6000F9D52846BDE8F0810A68531C0B60107038
:103A70007047000000000000000001020304060778
:103A8000080900000000010203040000A0860100F4
:103A9000400D0300801A060000350C0040420F0064
:103AA00080841E0000093D0000127A000024F4000A
:103AB00000366E010048E801006CDC0200000000E6
:103AC00004000000020000000800000052585F508F
:103AD000697065302041646472733A0D0A090925E2
:103AE0003032582C253032582C253032582C253085
:103AF00032582C2530325820200D0A0052585F5081
:103B0000697065312041646472733A0D0A090925B0
:103B10003032582C253032582C253032582C253054
:103B200032582C2530325820200D0A00545820419C
:103B3000646472733A0D0A0909253032582C253015
:103B400032582C253032582C253032582C25303222
:103B50005820200D0A0052585F506970653220418C
:103B6000646472733A0D0A090978782C78782C7895
:103B7000782C78782C2530325820200D0A005258A5
:103B80005F50697065332041646472733A0D0A09AD
:103B90000978782C78782C78782C78782C25303225
:103BA0005820200D0A0052585F506970653420413A
:103BB000646472733A0D0A090978782C78782C7845
:103BC000782C78782C2530325820200D0A00525855
:103BD0005F50697065352041646472733A0D0A095B
:103BE0000978782C78782C78782C78782C253032D5
:103BF0005820200D0A0052585F50575F50303A0D40
:103C00000A09092564206279746573200D0A00523F
:103C1000585F50575F50313A0D0A090925642062F8
:103C200079746573200D0A0052585F50575F503207
:103C30003A0D0A09092564206279746573200D0A1A
:103C40000052585F50575F50333A0D0A09092564F6
:103C5000206279746573200D0A0052585F50575FD7
:103C600050343A0D0A09092564206279746573207D
:103C70000D0A0052585F50575F50353A0D0A090936
:103C80002564206279746573200D0A00454E414118
:103C90003A0D0A090950303A0925640D0A090950FC
:103CA000313A0925640D0A090950323A0925640D93
:103CB0000A090950333A0925640D0A090950343AB2
:103CC0000925640D0A090950353A0925640D0A00D1
:103CD000454E5F5258414444523A0D0A090950304A
:103CE0003A0925640D0A090950313A0925640D0A7B
:103CF000090950323A0925640D0A090950333A0975
:103D000025640D0A090950343A0925640D0A090988
:103D100050353A0925640D0A0044594E50445F70ED
:103D20006970653A0D0A090950303A0925640D0A8F
:103D3000090950313A0925640D0A090950323A0936
:103D400025640D0A090950333A0925640D0A090949
:103D500050343A0925640D0A090950353A09256499
:103D60000D0A000052465F5057523A0D0A090930B9
:103D70006442200D0A00000052465F5057523A0D2F
:103D80000A09092D31326442200D0A0052465F5063
:103D900057523A0D0A09092D366442200D0A0000D7
:103DA00052465F5057523A0D0A09092D3138644284
:103DB000200D0A00454E5F44504C3A0D0A09094552
:103DC0006E61626C6564200D0A000000454E5F4123
:103DD000434B5F5041593A0D0A0909456E61626CC7
:103DE0006564200D0A000000454E5F44504C3A0DBA
:103DF0000A090944697361626C6564200D0A000058
:103E0000454E5F41434B5F5041593A0D0A09094401
:103E1000697361626C6564200D0A0000446174611D
:103E200020526174653A0D0A0909314D62707320A0
:103E30000D0A00000D0A2A2A2A2A2A2A2A2A2A2AB0
:103E40002A2A2A2A2A2A2A2A2A2A2A2A2A2A2A2AD2
:103E50002A2A2A2A2A2A2A2A2A2A2A2A2A2A2A2AC2
:103E60002A2A2A2A0D0A0000883E000800000020A5
:103E700038000000E0350008C03E0008380000208F
:103E800008060000F0350008AA44332211000000A3
:103E9000746F6E00000000000000000000000000D1
:103EA0000000000000000000000000000000000012
:103EB000100000000100000000093D0000000000AB
:040000050800018965
:00000001FF
