:020000040800F2
:100000002006002001010008A1170008FD150008C6
:100010009D17000841020008BD21000800000000F3
:10002000000000000000000000000000211F000888
:1000300045020008000000009D1D0008551F000833
:100040001B0100081B0100081B0100081B01000820
:100050001B0100081B0100081B0100081B01000810
:100060001B0100081B0100081B0100081B01000800
:100070001B0100081B0100081B0100081B010008F0
:100080001B0100081B0100081B0100081B010008E0
:100090001B0100081B0100081B0100081B010008D0
:1000A0001B010008C11F00081B0100081B010008FC
:1000B0001B0100081B0100081B0100081B010008B0
:1000C0001B0100081B0100081B0100081B010008A0
:1000D0001B0100081B0100081B0100081B01000890
:1000E0001B0100081B0100081B010008DFF80CD0F1
:1000F00000F074F800480047712200082006002034
:100100000648804706480047FEE7FEE7FEE7FEE7B1
:10011000FEE7FEE7FEE7FEE7FEE7FEE7BD1F00089D
:10012000ED00000840EA01039B0703D009E008C97D
:10013000121F08C0042AFAD203E011F8013B00F8AC
:10014000013B521EF9D27047D2B201E000F8012BF8
:10015000491EFBD270470022F6E710B513460A4647
:1001600004461946FFF7F0FF204610BD421C10F868
:10017000011B0029FBD1801A70472DE9F05F05466D
:10018000002092469B4688460646814640241BE056
:10019000284641464746224600F041F853465A4613
:1001A000C01A914110D311461846224600F028F893
:1001B0002D1A67EB01084F4622460120002100F06E
:1001C0001FF817EB00094E41201EA4F10104DFDCEB
:1001D000484631462A464346BDE8F09F064C074D47
:1001E00006E0E06840F0010394E807009847103407
:1001F000AC42F6D3FFF77EFF00340008203400083D
:10020000202A04DB203A00FA02F1002070479140D6
:10021000C2F1200320FA03F3194390407047202ACB
:1002200004DB203A21FA02F00021704721FA02F3A0
:10023000D040C2F1200291400843194670470000A7
:10024000FEE7000070470000EFF3108072B600BFB9
:10025000FEE70000B0B5044600F014F9054640F290
:100260000C00C2F200000068611C18BF044400BF0B
:1002700000F008F9401BA042FAD3B0BD2DE9F04FC1
:1002800082B00E68002E00F0F38041F20042C4F20A
:100290000102042340F2004E904208BF03234FF6B0
:1002A000FF7CC4F2010E009300240123C1F2100C64
:1002B0004FF0000A4FF0000940E0012504F00C0364
:1002C0000F279F402BEA070705FA03F33B4342F849
:1002D00026304E68F203DEF8002054BF22EA0802FE
:1002E00042EA0802CEF80020DEF80420B30354BF2F
:1002F00022EA080242EA0802CEF80420F302DEF8FD
:10030000082054BF22EA080242EA0802B30240F27F
:100310000C43CEF80820C4F201031A6854BF22EA45
:10032000080242EA08021A6001230E680AF1010A73
:1003300036FA0AF204F1040400F09A8003FA0AFB88
:1003400016EA0B08F1D04A68624511DC122A51D82E
:10035000DFE802F0340A424650505050505050509E
:100360005050505050494D00D1F80C9042E000BF21
:100370004FF6FF75C1F22105AA420FDC0025C1F23C
:100380001105AA421AD00025C1F21205AA4215D0C1
:100390000025C1F22105AA4210D02BE00025C1F2B0
:1003A0002205AA420AD00025C1F23105AA4205D091
:1003B0000025C1F23205AA421CD100BF8A6842B1B1
:1003C000012A14BFC0F814B0C0F810B04FF00809EB
:1003D00010E04FF004090DE0CA6802F1080909E0D5
:1003E0004FF0000906E0CA6802F1040902E0CA6899
:1003F00002F10C0922460546B8F5807F24BF203A59
:1004000004352E680F279740BE4309FA02F23243A3
:100410002A60CA79D2067FF588AF41F21803C4F288
:1004200002031A684FEA9A0642F001021A601A683B
:1004300040F6000302F001020192019AAEF57E72CD
:1004400052F826B0C4F2010398420FD040F60043A0
:10045000C4F2010398423FF430AF41F20003C4F20A
:100460000103009D984208BF022527E7002525E7E4
:1004700002B0BDE8F08F0000002A08BF0904016146
:100480007047000040F21C20C2F200000068704774
:1004900040F20C0040F21C21C2F20000C2F2000146
:1004A00000680A68104408607047000080B542F296
:1004B0000000C4F20200016841F010010160032055
:1004C00000F066F8002000F005F800F02BF800209E
:1004D00080BD0000B0B540F20C02C2F2000240F252
:1004E00008011268C2F200014FF47A730968B3FB85
:1004F000F2F20446B1FBF2F1084600F0C7FD0F2C02
:100500004FF001050CD858B94FF0FF3021460022BA
:10051000002500F02DF840F21000C2F20000046047
:100520002846B0BD82B041F21800C4F20200016852
:10053000022241F001010160016801F00101019115
:100540000199416841F080514160406800F080505D
:10055000009000980420C4F20100016862F31A615F
:10056000016002B07047000080B501F029FE80BD37
:1005700070B514460D46064601F032FE2946224665
:1005800001F0F6FB0146304601F032FE70BD00007E
:1005900080B501F03FFE80BD2DE9F04381B0002819
:1005A00000F0898042F20008C4F202080446D8F83C
:1005B00000000D4600F0070088420CD2D8F8000079
:1005C00020F007002843C8F80000D8F8000000F029
:1005D0000700A8426FD1206841F204098107C4F2E4
:1005E000020917D5410705D5D9F8001041F4E0619B
:1005F000C9F80010010705D5D9F8001041F4605181
:10060000C9F80010D9F80010A26821F0F0011143D8
:10061000C9F80010C00745D1D8F8000000F0070065
:10062000A8420CD9D8F8000020F007002843C8F8E9
:100630000000D8F8000000F00700A8423BD1206875
:10064000410707D5D9F80010E26821F4E0611143B1
:10065000C9F80010000708D5D9F80000216920F476
:10066000605040EAC100C9F8000000F079F8D9F8FC
:10067000001043F23402C1F30311C0F60002515CD2
:1006800040F2080220FA01F140F21000C2F200002C
:100690000068C2F200021160FFF71CFF002001B0E9
:1006A000BDE8F0836068022809D0012829D159F8F3
:1006B000041C890307D4012001B0BDE8F08359F878
:1006C000041C8901F7D5D9F8001021F00301084373
:1006D000C9F80000FFF7D6FE064641F2883700BF92
:1006E000D9F80000616800F00C00B0EB810F93D0E6
:1006F000FFF7C8FE801BB842F2D9032001B0BDE865
:10070000F08359F8041C8907D5D5DCE740F20800CE
:10071000C2F200000068704780B5FFF7F7FF41F2B2
:100720000401C4F20201096843F24402C1F3022148
:10073000C0F60002515CC84080BD000080B5FFF7E4
:10074000E5FF41F20401C4F20201096843F24402E8
:10075000C1F3C221C0F60002515CC84080BD000058
:1007600041F2040CC4F2020CDCF8003003F00C007F
:10077000082841F20020C0F27A0018BF7047C3F386
:1007800083420AA18A5CD90305D440F60010C0F266
:100790003D0050437047DCF8001008A3C1F340410E
:1007A000595C5043B0FBF1F0704700BF02030405F1
:1007B000060708090A0B0C0D0E0F101001020000AD
:1007C0002DE9F04182B0002800F0C4800446007892
:1007D00041F20006C007C4F2020643D0706800F080
:1007E0000C00042817D0706800F00C00082802D113
:1007F0007068C0030FD465682DB1B5F5A02F10D077
:10080000B5F5803F11D0306820F48030306030681A
:1008100020F480200CE03068800323D5606808BB9A
:1008200098E0306840F480203060306840F48030D8
:100830003060FFF727FE002D054610D0306880039A
:1008400010D4FFF71FFE401B6428F7D904E100BF56
:10085000FFF718FE401B64284FF0030077D830687C
:100860008003F5D42078800718D5706810F00C0F3D
:1008700007D0706800F00C00082826D17068C0030B
:1008800023D43068800702D52069012862D13068FE
:10089000616920F0F80040EAC1003060207800076C
:1008A0003DD5A06938B30020C4F242200121C0F830
:1008B0008014FFF7E7FD0546706A80072DD4FFF727
:1008C000E1FD401B0228F7D9C6E02069002840F26C
:1008D0000000C4F2422000F0968001210160FFF781
:1008E000D1FD054630688007D1D4FFF7CBFD401B12
:1008F0000228F7D9B0E00020C4F242200021C0F85D
:100900008014FFF7BFFD0546706A800707D5FFF723
:10091000B9FD401B0228F7D99EE001F041FA20788A
:1009200040071BD4E5698DB1706800F00C00082801
:1009300047D1012D0ED07068216A00F480328A42BE
:1009400008D1616A00F47010884203D1002002B01F
:10095000BDE8F081012002B0BDE8F081F06910F03F
:10096000805808D1F06940F08050F061F06900F0E3
:1009700080500190019847F20007C4F200073868E0
:10098000C00510D4386840F480703860FFF77AFDF5
:10099000054600BF3868C00505D4FFF773FD401B4E
:1009A0006428F7D958E0E5681DB1052D3CD0012D2C
:1009B0003ED0306A20F001003062306A20F004003E
:1009C00039E00027C4F2422700203866FFF75AFDBD
:1009D000022D05460CD100BF3068800154D5FFF7C9
:1009E00051FD401B02284FF00300F5D9AFE700BFCF
:1009F00030688001AAD5FFF745FD401B02284FF063
:100A00000300F5D9A3E700210160FFF73BFD054690
:100A1000306880077FF542AFFFF734FD401B0228A6
:100A20004FF00300F4D992E7306A40F004003062DE
:100A3000306A40F001003062FFF724FD002D0546CA
:100A400041F2883714D000BF306A800713D4FFF713
:100A500019FD401BB842F7D9032002B0BDE8F08170
:100A6000FFF710FD401BB8424FF003003FF66FAF99
:100A7000306A8007F4D4B8F1000F7FF453AFF06907
:100A800020F08050F0614DE7206AB0F5803F05D13D
:100A90007168A26821F40031114371607168626A63
:100AA00021F4741110430843706001203866FFF789
:100AB000E9FC0446306880013FF548AFFFF7E2FCEF
:100AC000001B02284FF00300F4D940E770B538B19D
:100AD0000446406A30B10020206104F1140007E0B0
:100AE000012070BD6068B0F5827F03D004F11C0066
:100AF000002101600026A662606D18B920462665B7
:100B000000F036F80220606594E8071001F4827165
:100B1000036802F4044223F0400303602369114494
:100B20000CF40062114403F002026369114403F003
:100B30000102A369E569114403F40072114405F050
:100B40003802256A114405F08002A56A114305F4B4
:100B5000005211430160042101EA13414160C1695F
:100B600021F40061C1610120A6656065304670BD59
:100B700070B586B040F60044C4F20104006804F584
:100B80001051002688420596CDE90366029601D0F1
:100B900006B070BD41F21800C4F20200016802AD57
:100BA00041F480510160016801F480510191019983
:100BB000016841F0080101600068294600F0080062
:100BC00001900198282002900220039003200590B4
:100BD0002046FFF753FB1020CDE9020620462946A8
:100BE0000496FFF74BFB0420C4F20100016841F0BA
:100BF000E06141F00101016006B070BD2DE9F043F4
:100C000081B0044640681D461746B0F5827F0E4607
:100C100002D1A068002858D0206D012803D10220FD
:100C200001B0BDE8F0834FF00109C4F85090FFF720
:100C300029FC616D012946D18046002E4FF001004C
:100C400018BF002F76D0042060650020A065A66341
:100C5000A787E7872063A086E086A1682064B1F5B6
:100C6000004F606408D12068016821F040010160F4
:100C7000016821F48041016020680168490603D4BD
:100C8000016841F040010160E168E08F49B300284C
:100C900043D06E1C0AE000BFC068A16B21F8020BB4
:100CA000A163E08F0138E087E08FB0B320688168EE
:100CB000C907F1D1FFF7E6FB002EF5D0A0EB080045
:100CC000A842F1D327E0022034E0042060652046EA
:100CD000314632463B46009500F0EEF801B0BDE8E3
:100CE000F083D0B16E1C0AE0007BA16B0870A06B92
:100CF0000130A063E08F0138E087E08F68B12068A1
:100D00008168C907F0D1FFF7BDFB002EF5D0A0EB3D
:100D10000800A842F1D303200CE0204629464246B1
:100D200001F054F800281CBF2020A065A06D002809
:100D300018BF01200021C4F85490216501B0BDE81E
:100D4000F08300002DE9F04381B00446006D0128D6
:100D500003D1022001B0BDE8F0834FF001091D4628
:100D600016460F46C4F85090FFF78CFB616D0129C1
:100D70005BD18046002F4FF0010018BF002E00F01D
:100D80009380032060650020A0652763A686E68621
:100D9000A063A087E087A168C4E91000B1F5004F07
:100DA00008D12068016821F040010160016841F428
:100DB0008041016020680168490603D4016841F060
:100DC000400101606168731EE268B1FA81F1B3FA13
:100DD00083F349095B09B2F5006F41EA030126D1AB
:100DE00039B1216B0988C160B81C2063E08E0138DD
:100DF000E086E08E002840D06E1C09E0216B31F8BF
:100E0000022BC2602163E08E0138E086E08EA0B341
:100E1000206881688907F1D4FFF734FB002EF5D0F4
:100E2000A0EB0800A842F1D325E002203CE039B154
:100E300039780173206B01302063E08E0138E08641
:100E4000E08ED0B16E1C0AE0216B09780173206B33
:100E500001302063E08E0138E086E08E68B12068C2
:100E600081688907F0D4FFF70DFB002EF5D0A0EBC9
:100E70000800A842F1D3032016E020462946424646
:100E800000F0D4FF00281CBF2020A065A06838B95E
:100E9000002000902068C168009180680090009850
:100EA000A06D002818BF01200021C4F854902165CE
:100EB00001B0BDE8F08300002DE9F04381B00446A5
:100EC000006D012803D1022001B0BDE8F0830120AC
:100ED0001E4615460F462065FFF7D4FA616D814620
:100EE00001290CD06068B0F5827F73D104294FF0DE
:100EF000020040F0C380A168002940F0BF80002FAD
:100F00004FF0010018BF002D00F0B880002E00F057
:100F1000B580606D002104281CBF05206065A165B7
:100F2000A563E687A6872763E6862068A6862164F0
:100F300061640168490603D4016841F04001016021
:100F40006168731EE268B1FA81F1B3FA83F3DDF8E8
:100F5000208049095B09B2F5006F41EA03013BD1EA
:100F600039B1216B0988C160B81C2063E08E01385B
:100F7000E086012608F10105E08E10B9E08F002817
:100F800066D02068816889070CD5E18E012E09D1D1
:100F900041B1216B002631F8022BC2602163E18E42
:100FA0000139E1868168C9070AD0E18F41B1C06883
:100FB000A16B012621F8020BA163E08F0138E087C5
:100FC000FFF760FA002DD7D0A0EB09004045D3D33E
:100FD000032053E0022051E039B139780173206BCE
:100FE00001302063E08E0138E086012608F101051A
:100FF000E08E08B9E08F58B32068816889070DD565
:10100000E18E012E0AD149B1216B002609780173C6
:10101000206B01302063E08E0138E0862068816813
:10102000C9070BD0E18F49B1C068A16B01260870D8
:10103000A06B0130A063E08F0138E087FFF722FA50
:10104000002DD5D0A0EB09004045D1D3032015E0F9
:10105000204641464A4600F0E9FE18B12020A0652E
:1010600001200BE0A06800284FF0000006D100909E
:101070002168CA6800928968009100990121616520
:101080000021216501B0BDE8F083000080B500F0CB
:1010900049FF80BD704700007047000010B5C26B6B
:1010A000012A4FF002022DD00123C36302640268BB
:1010B000D2F804E0D2F808C00C682EF07003234385
:1010C00040F2FF74C4F20004A242536005DCB2F1A6
:1010D000804F0ED040F2004307E042F60043C4F2D6
:1010E00001039A4205D040F60003C4F200039A427D
:1010F00004D149682CF0800319439160012100223A
:101100000164C263104610BD002804BF012070476F
:1011100010B50446006C20B90020E063204600F0C2
:1011200013F8022020642068211D00F051FF0120E7
:1011300060666064A064E06420656065A065E06549
:1011400020662064002010BD80B582B0006842F6A1
:101150000041C4F20101884201D002B080BD41F2D9
:101160001800C4F202000168002241F4006101602D
:101170000068002100F40060019001981920FFF739
:10118000F7F91920FFF7F0F902B080BD016C0129D1
:101190001CBF0120704702210164006840F2FF7209
:1011A000C168C4F20002904241F00101C16005DC57
:1011B000B0F1804F0ED040F2004107E042F600410E
:1011C000C4F20101884205D040F60001C4F20001DA
:1011D000884206D1816801F00701062904BF00207A
:1011E0007047016841F00101016000207047000074
:1011F00010B50446C06B01284FF0020008BF10BDB7
:101200000122E263206420684FF6777382689A4374
:1012100082600A683F2A14DD5F2A18DD602A28D020
:10122000B2F5005F2DD0702A40D1D1E9012CCB68F6
:10123000614600F013FF2068816841F0770181600A
:1012400034E01F2A0FDC92B1102A10D02EE0402A81
:1012500023D0502A2AD14B68CA68194600F012FFE1
:101260002068502120E0202A01D0302A1ED11146CA
:101270001AE04B68CA68194600F016FF2068602122
:1012800012E0D1E9012CCB68614600F0E7FE20684E
:10129000816841F48041816008E04B68CA68194662
:1012A00000F0F0FE2068402100F0E4FE0120206400
:1012B0000020E06310BD00007047000010B5044638
:1012C00000680169890744BFC1685FEA817138D449
:1012D00020680169490744BFC1685FEA41713CD495
:1012E00020680169090744BFC1685FEA017141D400
:1012F00020680169C90644BFC1685FEAC16145D47D
:1013000020680169C9071CBFC1685FEAC1714AD181
:1013100020680169090644BFC1685FEA016149D4D8
:1013200020680169490644BFC1685FEA416148D449
:1013300020680169890644BFC1685FEA816147D4BA
:1013400010BD6FF0020101610121E1618069800738
:1013500045D02046FFF7B0FF47E06FF00401016180
:101360000221E161806910F4407F41D02046FFF7FF
:10137000A3FF43E06FF0080101610421E161C0694E
:1013800080073ED02046FFF797FF40E06FF0100146
:1013900001610821E161C06910F4407F3AD0204624
:1013A000FFF78AFF3CE06FF001010161204600F089
:1013B0003FF8ADE76FF0800101612046FFF76AFE5C
:1013C000AEE76FF040010161204600F049F8AFE759
:1013D0006FF0200101612046FFF75EFE10BD204640
:1013E00000F022F8204600F021F80020E0616FE7CD
:1013F000204600F019F8204600F018F80020E061BF
:101400006EE7204600F010F8204600F00FF80020AC
:10141000E0616DE7204600F007F8204600F006F88E
:101420000020E0616CE7000070470000704700009A
:1014300010B540F21C04C2F20004207800F0FAFE5D
:10144000207840F21801C2F20001085C00F0CCFFE5
:1014500020780130C1B2032988BF0020207010BD60
:1014600070470000002804BF0120704710B50446F3
:10147000C06B20B90020A063204600F01DF8242096
:10148000E0632068C16821F40051C160204600F08B
:101490001DFE2068016921F490410161416921F03C
:1014A0002A014161C16841F40051C160002020213E
:1014B0006064E163216410BD70B586B040F600043D
:1014C000C4F20104006804F54051002688420596E4
:1014D000CDE90366029601D006B070BD41F2180056
:1014E000C4F20200016802AD41F48041016001686C
:1014F00001F4804101910199016841F0040101600A
:101500000068294600F00400019001984FF4007033
:10151000029002200390032005902046FEF7AEFEC5
:101520004FF48060CDE90206204629460496FEF776
:10153000A5FE06B070BD00002DE9F04381B0044661
:10154000C06B20280AD10E4600294FF0010051D06F
:101550001746002A4ED0A06B012803D1022001B00B
:10156000BDE8F0830120A0634FF0000921201D4653
:10157000C4F84490E063FEF785FFA784E784A16880
:101580000746B1F5805F07D1206900281CBF3046AF
:101590004E46B046064601E04FF00008C4F83890C9
:1015A00007E000BF16F8010B21684860E08C0138A5
:1015B000E084E08C80B1204680213A462B4600F042
:1015C000CDFD80B9002EEDD138F8020B21686FF304
:1015D0005F2048600026E9E7204640213A462B4636
:1015E00000F0BCFD18B1032001B0BDE8F08320205D
:1015F000E063002001B0BDE8F0830000FEE70000DA
:101600002DE9F04786B0002741F21800CDE90477B4
:10161000CDE90277C4F20200016840F6000441F00F
:10162000200101600168C4F2010401F02001019170
:1016300001990168002241F0040101600168FF2660
:1016400001F0040101910199016841F00801016074
:101650000068FF2100F00800019001982046FEF785
:101660000BFF04F5806528464FF2C00100224FF2BF
:10167000C008FEF701FF029602AE4FF001094FF0DD
:10168000020A20463146CDE90397CDF814A0FEF7B3
:10169000F5FD28463146CDE90289CDE9047AFEF709
:1016A000EDFD06B0BDE8F08780B540F2200043F2C2
:1016B0000001C2F20000C4F201014FF48272002363
:1016C00080E80E0000F114014FF4007C4FF0100E82
:1016D00081E808500A21C0E90333C0E90833C0E9B2
:1016E0000A31FFF7F3F9002808BF80BDFEF7ACFD13
:1016F00080B586B040F27C0042F600420021C2F282
:101700000000C4F20102472340F2E73CCDE9041196
:10171000CDE90211CDE90011C0E90023C0E9021CA6
:10172000C0E904118161FFF7EFFCC0B94FF48050AC
:10173000029040F27C00C2F2000002A9FFF758FDBF
:1017400068B90020CDE9000040F27C00C2F2000040
:101750006946FFF7A3FC002804BF06B080BDFEF772
:1017600073FD000080B540F2E40043F60001C2F2D0
:101770000000C4F2010100234FF00C0C4FF4E132E1
:1017800080E80E00C0E90333C0E905C3C361FFF779
:1017900069FE002808BF80BDFEF756FDFEE7000089
:1017A000FEE7000080B582B0002000F00DF947F29E
:1017B0005030ADF8060040F23410C2F200000DF1D6
:1017C000060102226423FFF7BDFA012000F0FCF8B5
:1017D00002B080BD80B5002000F002F880BD00009E
:1017E00070B5064600F028F910F040040FD0054609
:1017F000002E1CBFC5F3420030700720402100F0CE
:1018000079FAA80603D50720202100F073FA002CEE
:1018100018BF0124204670BD81B070B583B0064664
:1018200040F2341014460D46C2F2000007A95C22B3
:101830000793FEF777FC40F23010C2F2000006601A
:1018400040F22E10C2F20000058040F22C10C2F2CD
:1018500000000480012000F0B7F8002000F0A2F89A
:101860000520FEF7F7FC0020082100F043FA0120D4
:101870003F2100F03FFA0220032100F03BFA032051
:10188000032100F037FA0420032100F033FA052089
:10189000022100F02FFA06200F2100F02BFA07207A
:1018A0000E2100F027FA0820002100F023FA092079
:1018B000002100F01FFA01AC6FF018054FF0E73679
:1018C0000A20214605228DF80850019600F02EFAD4
:1018D0006FF03D008DF808004FF0C23001900B20F2
:1018E0002146052200F022FA0C20C32100F002FA62
:1018F0000D20C42100F0FEF90E20C52100F0FAF9F8
:101900000F20C62100F0F6F91020214605228DF89F
:101910000850019600F00AFA1120002100F0EAF9BF
:101920001220002100F0E6F91320002100F0E2F976
:101930001420002100F0DEF91520002100F0DAF972
:101940001620002100F0D6F9FFF72CFF1C20002103
:1019500000F0D0F91D20002100F0CCF900F07CFD52
:101960000F200F2100F09CF9032000F071F90120F5
:1019700000F052F9022000F033F900F037F820208F
:1019800000F084F900F01CF94C2000F03BF900F065
:1019900041F800F039F800F08DF803B0BDE8704070
:1019A00001B0704780B50246002840F2301040F286
:1019B0002C11C2F20000C2F200010068098818BFB1
:1019C0000122FEF759FD80BD80B50246002840F295
:1019D000301040F22E11C2F20000C2F20001006885
:1019E000098818BF0122FEF747FD80BD80B51D2084
:1019F00000F0A0F800F0FB011D2000F07BF91C2096
:101A0000002100F077F980BD80B5E220FF2100F0D1
:101A100071F980BD80B5E120FF2100F06BF980BD38
:101A200080B5602000F086F880BD000040F2D8103C
:101A3000C2F200000078704780B5072000F07AF805
:101A400080BD000010B582B004460193009218B129
:101A5000062C09D902B010BD40F2E010C2F200001D
:101A6000C0E90023062CF5D80EA0005D05226946CA
:101A7000012C88BF012200F059F940F2D8110BA0C7
:101A8000C2F20001005D097800F034F9022000F094
:101A900051F80121A1400843C1B2022000F02AF907
:101AA00002B010BD0A0B0C0D0E0F10001112131412
:101AB0001516000080B5002000F03CF800F0FD0194
:101AC000002000F017F980BD10B500F00BF81720CA
:101AD00000F030F800F00104FFF796FFFFF7A0FFD9
:101AE000204610BD70B582B00C460546FFF79EFF3C
:101AF0000646A0424FF0000088BF2646FFF764FF6D
:101B000040F234146120C2F200048DF807000DF198
:101B10000701204601226423FFF714F920462946D5
:101B200032466423FFF76AF80120FFF74DFF02B049
:101B300070BD0000B0B582B004460020FFF744FF3E
:101B400004F01F0040F23414C2F200040DF1050548
:101B50008DF805002046294601226423FFF7F2F89C
:101B6000691C204601226423FFF748F89DF80640CF
:101B70000120FFF729FF204602B0B0BD70B582B04A
:101B80000646002014460D46FFF71EFF06F01F0014
:101B900040F23416C2F200068DF805000DF1050181
:101BA000304601226423FFF7CDF83046294622460D
:101BB0006423FFF723F80120FFF706FF02B070BD92
:101BC00080B50720702100F095F880BD80B50146F2
:101BD00000284FF0010018BF3F2100F08BF880BDB6
:101BE00010B504460020FFF7A5FF00F0F3012CB16B
:101BF000012C14BF40F00C0141F00801002000F05E
:101C000079F810BD80B501467F284FF0050028BF48
:101C10007F2100F06FF880BDB0B505460620FFF7C4
:101C200089FF012D00F0D70404D0022D08BF44F035
:101C3000200401E044F008040620214600F05AF890
:101C40000620FFF777FF001BB0FA80F04009B0BD17
:101C500010B504460620FFF76DFF621E032A00F050
:101C6000F9010ED8DFE802F00205080B41F002018D
:101C700007E041F0040104E040F0060101E040F01B
:101C80000601062000F036F810BD000040F2D81121
:101C9000C2F20001202828BF2020087070470000F1
:101CA00080B501F00F0141EA0010C1B2042000F03C
:101CB00021F880BD80B50020FFF73CFF40F0030114
:101CC000002000F017F840F2E010C2F2000003C854
:101CD000084307D040F2E011C2F200010A200522B9
:101CE00000F024F8FFF796FEFFF78EFE0120FFF7C5
:101CF00059FE80BDB0B582B0054600200C46FFF706
:101D000063FE45F020008DF8050040F23410C2F269
:101D100000000DF10501022264238DF80640FFF753
:101D200011F80120FFF750FE02B0B0BD70B582B0CF
:101D30000646002014460D46FFF746FE46F02000FA
:101D400040F23416C2F200068DF805000DF10501CF
:101D5000304601226423FEF7F5FF3046294622462D
:101D60006423FEF7EFFF0120FFF72EFE02B070BDE7
:101D700000F0070080F00703042B28BF04234FF076
:101D8000FF3C03380CFA03F338BF0020994381402D
:101D90000CFA00F022EA0000084370477047000088
:101DA00081B040F20800C2F20000006844F6D3514E
:101DB000C1F26201A0FB0101480A009000BF009837
:101DC000411E00280091F9D101B0704710B50446BA
:101DD00040689446B0F5827F0A461AD1A168B1F5F1
:101DE000004F02D0B1F5806F04D121680B6823F059
:101DF00040030B60B0F5827F0BD1A068B0F5806F17
:101E000007D120460121634600F022F840B90020A6
:101E100010BD20468021634600F01AF80028F6D055
:101E2000A06D40F02000A065032010BD10B5134642
:101E30000A468021044600F00BF800280FBF00205E
:101E4000A06D40F02000A06518BF032010BD000069
:101E50002DE9F04381B01E4690460D468146FEF7BF
:101E600011FB301A00EB0807FEF70CFB40F20801EB
:101E7000C2F200010968C1F3CB3179430091D9F86E
:101E8000001089682940A94219D1064608F10104C9
:101E900006E000BFD9F8000080682840A8420ED1B3
:101EA000002CF7D0FEF7EEFA801BB8420BD2009858
:101EB0000099002808BF0746481E0090EAE7002066
:101EC00001B0BDE8F083D9E900014268B1F5827F35
:101ED00022F0E00242600BD1D9F80810B1F5004FB2
:101EE00002D0B1F5806F03D1016821F0400101609B
:101EF000D9F82810B1F5005F07D1016821F400512D
:101F00000160016841F4005101600120C9F85400EA
:101F10000020C9F85000032001B0BDE8F0830000A4
:101F200070470000B0B501380024B4EB106F1CBF3F
:101F30000120B0BD4EF21005CEF2000568604FF0F2
:101F4000FF300F2100F054F90720AC6028602046D4
:101F5000B0BD000080B5FEF79BFA80BD70B590B0B3
:101F600006AC20462821FEF7F6F8012006900A90DC
:101F70004FF4E01000254FF4803102260F902046E8
:101F80000595CDE90355CDE90155CDE90715CDE915
:101F90000D61FEF715FC78B90F20CDE901064FF46D
:101FA0008060CDE9040501A802210395FEF7F4FA4B
:101FB000002804BF10B070BDFEF746F9704700005E
:101FC00080B540F27C00C2F20000FFF777F980BDD7
:101FD00010B540F2FF7E0368C4F2000E42F6004CDA
:101FE0007045C4F2010C05DCB0F1804F0AD040F21C
:101FF000004203E0604505D040F60002C4F2000252
:10200000904203D14A6823F070031343704505DC06
:10201000B0F1804F0AD040F2004203E0604505D0A5
:1020200040F60002C4F20002904203D1CA6823F4D1
:102030004073134323F080024B69D1F800E08C68B1
:102040001A4360450260C462C0F828E002D1096901
:10205000CCF830100121416110BD0000D0F808C05B
:1020600011432CF47F4C41EA032141EA0C018160C9
:1020700070470000826822F07002114341F00701AE
:1020800081607047D0F820C0036A23F00103036227
:10209000836923F0F00343EA02122CF00A03194388
:1020A0008261016270470000036A23F0100303623B
:1020B0008369D0F820C023F4704343EA02322CF045
:1020C000A00343EA011182610162704710B5044622
:1020D0000068D4E902C22369016921F44051114327
:1020E0000161616943EA0C021143C26841F20C6369
:1020F0009A431143C1604169A26921F440711143BF
:1021000043F60002C4F201029042416102D0FEF7A0
:1021100003FB01E0FEF712FB6268192148439100BE
:10212000B0FBF1F048F21F51C5F2EB11A0FB012307
:102130005A096FF0630302FB0300322303EB001024
:10214000A0FB0101F02303EA5113206803EB021204
:10215000C1F343111144816010BD00002DE9F0412D
:102160000446006800680840884202D10020BDE8AB
:10217000F0811D460E4690465F1C04E02068006812
:102180003040B042F2D0002FF8D02DB1FEF77AF9EE
:10219000A0EB0800A842F1D92068C16821F4D071F1
:1021A000C160416921F0010141612020E0632064A8
:1021B0000020A0630320BDE8F0810000FEE70000DE
:1021C000002848BF704700F01F01012202FA01F108
:1021D0004EF200124009CEF2000242F82010704781
:1021E0004EF60C50CEF200000068C0F3022070479B
:1021F0004EF6145300F00F02CEF2000309011A4408
:1022000000F16043B0F1FF3FC8BF03F564421170B5
:10221000704700004EF60C51CEF200010A684FF6EE
:10222000FF031A4060F30A2242F0806040F0FD7024
:102230000860704710B5044600F0CAF8032C88BF48
:1022400010BD4FF48051DFE804F00A0205084FF496
:10225000005104E04FF4804101E04FF4004140F6AA
:102260000040C4F201000022FEF706F910BD000094
:1022700096B0FEF71BF9FFF771FEFFF7C1F9FFF704
:1022800037FAFFF711FAFFF76DFA40F27C00C2F25D
:102290000000FEF77BFF40F22001C2F2000151F87E
:1022A000043B6846582251F8044B043A40F8044B6A
:1022B000F9D140F60040C4F2010040218022FFF72E
:1022C000ABFA40F2E404C2F2000404F1100050F84A
:1022D000042B694641F8042B50F8042B41F8042BD9
:1022E00050F8042B41F8042B50F8042B41F8042B30
:1022F00050F8042B41F8042B50F8042B41F8042B20
:1023000050F8042B41F8042B50F8042B41F8042B0F
:1023100050F8042B41F8042B50F8042B41F8042BFF
:1023200050F8042B41F8042B50F8042B41F8042BEF
:1023300050F8042B41F8042B50F8042B41F8042BDF
:1023400094E80F0000F032F800F086F80020FFF764
:102350003DFC3420FFF756FC2020FFF797FC40F2AD
:102360000000C2F20000D0E900230120FFF76AFB61
:10237000FFF7A0FC40F2E815C2F2000540F60D267A
:1023800004E000BF4FF4FA60FDF764FFFFF722FAA4
:102390000028F7D028462021FFF796FB2046294643
:1023A00022220A232E84FFF7C7F8EBE784B080B51A
:1023B0000DF1080C8CE80F0040F29010C2F2000002
:1023C00002A94822FDF7AEFEBDE8804004B0704788
:1023D00080B540F60040C4F201004FF47041012284
:1023E000FEF74AF880BD0000B0B540F60005C4F223
:1023F0000105044600F0010228460121FEF73CF8E1
:10240000C4F3400228460221FEF736F8C4F38002E6
:1024100028460421FEF730F8C4F3C00228460821FC
:10242000FEF72AF8C4F3001228461021FEF724F81C
:10243000C4F3401228462021FEF71EF8C4F3801290
:1024400028464021FEF718F8C4F3C0122846802120
:10245000FEF712F8B0BD00002DE9F04FABB043F22B
:10246000CC30C0F60000D0E90037D0E904410D932C
:10247000CDE9123708AB00F1200AD0E90265D0E9B6
:1024800006C2F2C3CDE916419AE88A0490F832B048
:10249000B0F8308012AC0DF1680E2046CDE914651D
:1024A000CDE9057307918EE88A04CDE90E2CCDE9BC
:1024B00018C28DF87AB0ADF87880FDF757FE82B279
:1024C00040F29010C2F2000021460A23FFF734F8D0
:1024D0000020FFF72FFB01070CD443F21C30C0F69D
:1024E000000090E84E0000690DF1480C8CE84E00A9
:1024F000169026E0400714D443F26430C0F6000082
:1025000090E84E000DF1480CD0E904548CE84E00E0
:10251000018B807ECDE91654ADF860108DF8620015
:102520000FE043F28030C0F6000090E84E00D0E9A2
:10253000045480690DF1480C8CE84E00CDE9165426
:10254000189012AC2046FDF711FE40F29019C2F22D
:10255000000982B2484621460A23FEF7EDFF01201A
:10256000FFF7E8FAC0F38001C0F3C006C0F300171C
:102570008DE8C20043F2C11100F00102C0F3400334
:10258000C0F34015C0F600012046039500F0F8FAAC
:102590002046FDF7EBFD82B2484621460A23FEF7AE
:1025A000CBFF0220FFF7C6FAC0F38001C0F3C007DB
:1025B000CDE9001743F2052100F00102C0F340030A
:1025C000C0F30016C0F34015C0F600012046029685
:1025D000039500F0D5FA2046FDF7C8FD82B24846C3
:1025E00021460A23FEF7A8FF0320FFF7A3FA00F015
:1025F0000300821C0FF20451204600F0C1FA20466D
:10260000FDF7B4FD82B2484621460A23FEF794FF47
:102610000520FFF78FFA00F07F020FF2FC41204601
:1026200000F0AEFA2046FDF7A1FD82B248462146F1
:102630000A23FEF781FF0620FFF77CFA0446000715
:1026400059BF43F29C30C0F6000043F2B430C0F6EC
:102650000000016842688368C76806691291818A30
:10266000807D12AD1392149315971696ADF85C10F9
:102670008DF85E002846FDF779FD82B240F2901099
:10268000C2F2000029460A23FEF756FFC4F34100B8
:10269000022807D0012816D020BB43F2D420C0F670
:1026A000000014E043F2C020C0F6000090E88E0065
:1026B0000DF1480C8CE88E00018A807CADF8581032
:1026C0008DF85A001CE043F2AC20C0F6000001680F
:1026D00042688368C7680069129113921493159732
:1026E00016900DE043F29820C0F6000090E88E00AE
:1026F000008A0DF1480C8CE80E001597ADF85800D3
:1027000012AC2046FDF732FD40F29019C2F20009EA
:1027100082B2484621460A23FEF70EFF0DF142061B
:102720000A2031460522FFF729FA9DF843009DF85B
:1027300044109DF846209DF842709DF84530CDE943
:10274000001043F24C01C0F600012046029700F051
:1027500017FA2046FDF70AFD82B2484621460A23B1
:10276000FEF7EAFE0B2031460522FFF707FA9DF837
:1027700043009DF844109DF846209DF842709DF856
:102780004530CDE9001043F27C01C0F6000120463F
:10279000029700F0F5F92046FDF7E8FC82B24846C2
:1027A00021460A23FEF7C8FE0C2031460122FFF71E
:1027B000E5F99DF8422043F2D601C0F6000120461B
:1027C00000F0DEF92046FDF7D1FC82B248462146F2
:1027D0000A23FEF7B1FE0D2031460122FFF7CEF9A4
:1027E0009DF8422043F2FE01C0F60001204600F0B1
:1027F000C7F92046FDF7BAFC82B2484621460A23B3
:10280000FEF79AFE0E2031460122FFF7B7F99DF838
:10281000422043F22611C0F60001204600F0B0F934
:102820002046FDF7A3FC82B2484621460A23FEF764
:1028300083FE0F2031460122FFF7A0F99DF84220C8
:1028400043F24E11C0F60001204600F099F92046EF
:10285000FDF78CFC82B2484621460A23FEF76CFE47
:10286000102031460522FFF789F99DF843009DF8B5
:1028700044109DF846209DF842709DF84530CDE902
:10288000001043F2AC01C0F600012046029700F0B0
:1028900077F92046FDF76AFC82B2484621460A23B2
:1028A000FEF74AFE1120FFF745F943F2761100F0DA
:1028B0003F02C0F60001204600F062F92046FDF715
:1028C00055FC82B2484621460A23FEF735FE122007
:1028D000FFF730F943F28F1100F03F02C0F600011C
:1028E000204600F04DF92046FDF740FC82B24846F4
:1028F00021460A23FEF720FE1320FFF71BF943F2BF
:10290000A81100F03F02C0F60001204600F038F99F
:102910002046FDF72BFC82B2484621460A23FEF7EB
:102920000BFE1420FFF706F900F03F027FA12046BE
:1029300000F026F92046FDF719FC82B248462146F0
:102940000A23FEF7F9FD1520FFF7F4F800F03F0227
:102950007DA1204600F014F92046FDF707FC82B265
:10296000484621460A23FEF7E7FD1620FFF7E2F866
:1029700000F03F027BA1204600F002F92046FDF75F
:10298000F5FB82B2484621460A23FEF7D5FD1C20FE
:10299000FFF7D0F8C0F38001C0F3C007CDE90017FE
:1029A00043F24E2100F00102C0F34003C0F30016D1
:1029B000C0F34015C0F6000120460296039500F0D2
:1029C000DFF82046FDF7D2FB82B2484621460A23B3
:1029D000FEF7B2FD1D20FFF7ADF80446400712D404
:1029E00043F23030C0F6000090E88E000DF1480C44
:1029F00006698CE88E00818A807D1696ADF85C10A1
:102A00008DF85E000EE043F2E820C0F6000090E88A
:102A10008E000669808A0DF1480C8CE88E001696AF
:102A2000ADF85C0012AD2846FDF7A0FB82B240F283
:102A30009010C2F2000029460A23FEF77DFDA00790
:102A400014D443F24830C0F6000090E88E000DF137
:102A5000480CD0E904658CE88E00018B807ECDE9BE
:102A60001665ADF860108DF8620010E043F200309A
:102A7000C0F6000090E88E00D0E90465008B0DF1EF
:102A8000480C8CE88E0016961795ADF8600012ACD5
:102A90002046FDF76BFB40F29015C2F2000582B2B2
:102AA000284621460A23FEF747FD0D98CDF874A06D
:102AB00012900C988DF87AB013900B98ADF878803E
:102AC00014900A98159009981690089817900598F0
:102AD0001C9006981B9007981A900E9819900F98C2
:102AE00018902046FDF742FB82B2284621460A2371
:102AF000FEF722FD2BB0BDE8F08F00BF53455455C3
:102B0000505F41573A0D0A090925642062797465BE
:102B100073200D0A0000000052465F43483A0D0A38
:102B200009092564204348200D0A000052585F50CF
:102B3000575F50333A0D0A0909256420627974659C
:102B400073200D0A0000000052585F50575F503448
:102B50003A0D0A09092564206279746573200D0A0B
:102B60000000000052585F50575F50353A0D0A0977
:102B7000092564206279746573200D0A0000000045
:102B80000FB4084B10B504A902AA039800F01CF872
:102B9000044602A9002000F048FA204610BC5DF867
:102BA00014FB00002B30000802E008C8121F08C107
:102BB000002AFAD170477047002001E001C1121FBE
:102BC000002AFBD1704700002DE9FF4F8DB00F4662
:102BD0000546002606E025280BD0DDE90F129047B8
:102BE0006D1C761C28780028F5D111B03046BDE860
:102BF000F08F0024A246A1460122EC4900E00443E4
:102C000015F8013F203B02FA03F00842F7D128787B
:102C10002A2810D06FF02F022878A0F1300109295E
:102C200014D80AEB8A0102EB410144F0020400EBE4
:102C3000010A6D1CF0E701CF5FEA000A03D544F4F6
:102C40000054CAF1000A44F002046D1C28782E28B2
:102C500017D115F8010F44F004042A280ED06FF0A4
:102C60002F022878A0F1300109290AD809EB89013F
:102C700002EB410100EB01096D1CF2E757F8049BE0
:102C80006D1C28786C280FD006DC4C2817D06828DB
:102C90000DD06A2814D104E0742810D07A280FD1FE
:102CA0000DE044F400140AE044F4801401E044F41C
:102CB00040146978814202D104F580146D1C6D1CAA
:102CC0002A786E2A1FD00CDC632A31D004DC002A5B
:102CD0008BD0582A11D1A3E0642A68D0692A0CD17C
:102CE00065E0732A2ED004DC6F2A73D0702A04D1D9
:102CF0009BE0752A6FD0782A6ED01046DDE90F125E
:102D00009047761C50E1C4F30250022806D00328F5
:102D100009D0042801CF09D0066045E101CFF117A1
:102D2000C0E9006140E101CF06803DE106703BE172
:102D300017F8040B8DF8000000208DF80100EB4619
:102D4000012003E057F804BB4FF0FF3061074FF05C
:102D5000000102D40DE008F10101884649450FDA6F
:102D60008045F8DB1BF808100029F4D108E008F1D1
:102D7000010188468142FADB1BF808100029F6D1D0
:102D8000DDE90F23AAEB08008146214600F036F961
:102D9000304400EB080604E0DDE90F121BF8010BDC
:102DA0009047B8F10108F7D221464846F7E00A21DA
:102DB000C4F302534FF0000B0891022B04D001CF53
:102DC000C117032B09D00AE0FF1D27F00707F7E81A
:102DD000020108E032E01FE020E000B2C117042B3E
:102DE00001D140B2C117031E71F1000307DA4FF0A1
:102DF000000CD0EB0C006CEB01012D2302E023054D
:102E000004D52B238DF82430012303E0E30701D000
:102E10002023F7E7984658E00A2110E010210EE041
:102E200010204FF0000B08900CE010214FF0000B29
:102E300044F004044FF00809089103E008214FF022
:102E4000000B0891C4F30253022B04D001CF0021E0
:102E5000032B06D006E0FF1D27F00707F7E8020165
:102E600003E080B2042B00D1C0B24FF0000823076A
:102E70002BD5702A07D0DDF820C08CF0100C5CEA4E
:102E80000B0C05D00EE040238DF82430012308E020
:102E900050EA010306D030238DF824308DF8252028
:102EA00002239846DDF820C08CF0080C5CEA0B0C7D
:102EB0000BD150EA010301D1630706D530238DF809
:102EC00024304FF00108A9F10109582A04D038A292
:102ED0000B9208AA0A920BE03AA2F9E75B46089A1D
:102EE000FDF74BF90B9B9B5C0A9A521E0A921370DA
:102EF00050EA0102F2D10A98ADEB000000F1200B7C
:102F0000600702D524F4803401E04FF00109D9456F
:102F100002DDA9EB0B0000E0002000EB0B014144B7
:102F20000890AAEB010AE00306D4DDE90F2321464D
:102F3000504600F063F806444FF0000908E009A984
:102F400011F80900DDE90F12904709F10109761C1B
:102F5000C145F4DBE0030CD5DDE90F2321465046E3
:102F600000F04CF8064404E0DDE90F1230209047F1
:102F7000761C0899481E08900029F5DC08E00A989C
:102F80000A990078491C0A91DDE90F129047761CD6
:102F9000BBF10001ABF1010BF1DC21465046DDE94C
:102FA0000F2300F019F806446D1C1BE609280100E8
:102FB00030313233343536373839616263646566AF
:102FC0000000000030313233343536373839414271
:102FD00043444546000000002DE9F0410446002529
:102FE0001E461746880404D405E039462020B04721
:102FF0006D1C641EF9D52846BDE8F0812DE9F0412D
:10300000044600251E469046C80301D5302700E03F
:103010002027880404D505E041463846B0476D1C9A
:10302000641EF9D52846BDE8F0810A68531C0B6080
:10303000107070470000000000000000010203044F
:1030400006070809000000000102030452585F50FF
:10305000697065302041646472733A0D0A0909256C
:103060003032582C253032582C253032582C25300F
:1030700032582C2530325820200D0A0052585F500B
:10308000697065312041646472733A0D0A0909253B
:103090003032582C253032582C253032582C2530DF
:1030A00032582C2530325820200D0A005458204127
:1030B000646472733A0D0A0909253032582C2530A0
:1030C00032582C253032582C253032582C253032AD
:1030D0005820200D0A0052585F5069706532204117
:1030E000646472733A0D0A090978782C78782C7820
:1030F000782C78782C2530325820200D0A00525830
:103100005F50697065332041646472733A0D0A0937
:103110000978782C78782C78782C78782C253032AF
:103120005820200D0A0052585F50697065342041C4
:10313000646472733A0D0A090978782C78782C78CF
:10314000782C78782C2530325820200D0A005258DF
:103150005F50697065352041646472733A0D0A09E5
:103160000978782C78782C78782C78782C2530325F
:103170005820200D0A0052585F50575F50303A0DCA
:103180000A09092564206279746573200D0A0052CA
:10319000585F50575F50313A0D0A09092564206283
:1031A00079746573200D0A0052585F50575F503292
:1031B0003A0D0A09092564206279746573200D0AA5
:1031C00000454E41413A0D0A090950303A0925643B
:1031D0000D0A090950313A0925640D0A09095032CE
:1031E0003A0925640D0A090950333A0925640D0A84
:1031F000090950343A0925640D0A090950353A097C
:1032000025640D0A00454E5F5258414444523A0D20
:103210000A090950303A0925640D0A090950313A62
:103220000925640D0A090950323A0925640D0A0975
:103230000950333A0925640D0A090950343A092521
:10324000640D0A090950353A0925640D0A004459EC
:103250004E50445F706970653A0D0A090950303A62
:103260000925640D0A090950313A0925640D0A0936
:103270000950323A0925640D0A090950333A0925E3
:10328000640D0A090950343A0925640D0A090950E8
:10329000353A0925640D0A0052465F5057523A0DDF
:1032A0000A0909306442200D0A00000052465F50AE
:1032B00057523A0D0A09092D31326442200D0A0095
:1032C00052465F5057523A0D0A09092D3664422082
:1032D0000D0A000052465F5057523A0D0A09092D57
:1032E00031386442200D0A00454E5F44504C3A0D7F
:1032F0000A0909456E61626C6564200D0A000000D0
:10330000454E5F41434B5F5041593A0D0A0909450B
:103310006E61626C6564200D0A0000004352433AFE
:103320000D0A090944697361626C6564200D0A0025
:10333000454E5F44504C3A0D0A0909446973616275
:103340006C6564200D0A0000454E5F41434B5F50A1
:1033500041593A0D0A090944697361626C65642038
:103360000D0A00004352433A0D0A0909456E616295
:103370006C65642C20312042797465200D0A0000B0
:103380004352433A0D0A0909456E61626C65642C2B
:103390002032204279746573200D0A004461746103
:1033A00020526174653A0D0A0909314D627073202B
:1033B0000D0A00004461746120526174653A0D0A7F
:1033C0000909324D627073200D0A00000D0A2A2A85
:1033D0002A2A2A2A2A2A2A2A2A2A2A2A2A2A2A2A4D
:1033E0002A2A2A2A2A2A2A2A2A2A2A2A2A2A2A2A3D
:1033F0002A2A2A2A2A2A2A2A2A2A2A2A0D0A0000BE
:10340000203400080000002018000000A82B00084D
:10341000383400081800002008060000B82B000807
:10342000AA443322110000000024F400010000002F
:08343000100000000000000084
:04000005080000ED02
:00000001FF
