:020000040800F2
:10000000C0040020A10100081F1000081B100008F8
:100010001D100008AD020008491300080000000090
:100020000000000000000000000000002310000895
:1000300061030008000000002110000825100008DE
:10004000BB010008BB010008BB010008BB010008A0
:10005000BB010008BB010008BB010008BB01000890
:10006000BB010008BB010008BB010008BB01000880
:10007000BB010008BB010008BB010008BB01000870
:10008000BB010008BB010008BB010008BB01000860
:10009000BB010008BB010008BB010008BB01000850
:1000A000BB010008BB010008BB010008BB01000840
:1000B000BB010008BB010008BB010008BB01000830
:1000C000BB010008BB010008BB010008BB01000820
:1000D000BB010008BB010008BB010008BB01000810
:1000E000BB010008BB010008BB010008BB01000800
:1000F000BB010008BB010008BB010008BB010008F0
:10010000BB010008BB010008BB010008BB010008DF
:10011000BB010008BB010008BB010008BB010008CF
:10012000BB010008BB010008B1020008BB010008C8
:10013000BB010008BB010008BB010008BB010008AF
:10014000BB010008BB010008BB010008BB0100089F
:10015000BB010008BB010008BB010008BB0100088F
:10016000BB010008BB010008BB010008BB0100087F
:10017000BB010008BB010008BB0100080000000033
:10018000BB010008BB010008DFF810D000F07CF8CC
:100190000048004789130008AFF30080C004002026
:1001A0000648804706480047FEE7FEE7FEE7FEE711
:1001B000FEE7FEE7FEE7FEE7FEE7FEE7BD1000080C
:1001C000890100082DE9F05F0546002092469B4614
:1001D00088460646814640241BE02846414647465D
:1001E000224600F041F853465A46C01A914110D3B6
:1001F00011461846224600F028F82D1A67EB010830
:100200004F4622460120002100F01FF817EB00099D
:100210004E41201EA4F10104DFDC484631462A4647
:100220004346BDE8F09FD2B201E000F8012B491E21
:10023000FBD270470022F6E710B513460A46044683
:100240001946FFF7F0FF204610BD202A04DB203AB4
:1002500000FA02F1002070479140C2F1200320FA19
:1002600003F3194390407047202A04DB203A21FA17
:1002700002F00021704721FA02F3D040C2F12002BF
:100280009140084319467047064C074D06E0E06868
:1002900040F0010394E8070098471034AC42F6D3CD
:1002A000FFF776FF3814000858140008FEE7000036
:1002B000014800F059B800005C00002001681823D4
:1002C000CAB2103AB2FBF3F2054B6FF30901032AED
:1002D0009B5CC36500D9091D816508467047000015
:1002E0001814000810B5014600208B698A6A4FF087
:1002F000C07453B1B3F5005F15D072B1012A0CD0B0
:10030000022A0AD0032A09D104E01AB1012A06D030
:10031000022A03D1C96AC90100D5012010BDC96AEA
:10032000A142FAD010BD002AF7D0012AF2D0022A49
:10033000F3D0032AF3D010BD30B50468256825F446
:1003400080252560046863608368402B036803D0C0
:1003500099600068C26030BD9A600068C16030BDBD
:10036000704772B6FEE700002DE9F84304464FF0EF
:100370000009CDF8009063484FF41651A56D006850
:10038000B0FBF1F72E6894F85C10082000FA01F138
:1003900031420FD021680A6852070BD50A6822F053
:1003A00004020A6094F85C108840A860606D40F018
:1003B0000100606594F85C104FF0010808FA01F044
:1003C000304208D021684969090604D5A860606DEB
:1003D00040F00200606594F85C10042088403042D0
:1003E00008D021680968890704D5A860606D40F0CD
:1003F0000400606594F85C1010208840304218D0EA
:1004000021680968090714D5A860206801684903B4
:1004100004D50068000308D5A16C07E00168C90590
:1004200003D4016821F008010160216C09B1204664
:10043000884794F85C1020208840304231D02168F1
:100440000968C9062DD5A86094F8350005282068EC
:10045000016806D0490347D5006800031DD4616CCC
:100460001CE021F0160101602068416921F0800143
:100470004161206C08B9A06C20B12068016821F0AE
:100480000801016094F85C103F208840A86084F85F
:10049000349084F83580216D1FE0E16B09B120466E
:1004A0008847606D00282BD0606DC00714D00520F0
:1004B00084F835002068016821F00101016000988E
:1004C000401C0090B84203D820680068C007F6D1ED
:1004D00084F8349084F83580E16C002910D001B0A4
:1004E0002046BDE8F04308470168C905D5D4016836
:1004F00021F01001016084F8349084F83580CCE755
:10050000BDE8F883140000202DE9F041044600F016
:1005100093F906465CB1002584F83450022084F833
:1005200035002068016821F0010101600DE0012023
:10053000BDE8F08100F080F9801B052805D9202056
:100540006065032084F83500F2E720680068C00782
:10055000F0D12268116820480140D4E90103184312
:10056000D4E903363343184363691843A369184336
:10057000E3691843236A18430843616A042903D1D5
:10058000D4E90B1319430843106020684069666A78
:1005900020F0070130460E43012704280CD1A06A41
:1005A0000643E06A40B12046FFF79CFE20B14020A0
:1005B000606584F83570BAE7206846612046FFF729
:1005C0007DFE94F85C203F2191408160656584F850
:1005D00035700020ACE700003F8010F02DE9F041BD
:1005E0000446866D90F83400002501280DD00120C6
:1005F00084F8340094F835700020012F07D084F877
:10060000340002252846BDE8F0810220FBE70227DE
:1006100084F8357060652046FFF78EFE94F85C1014
:100620003F208840B0602068016841F016010160F9
:10063000206C20B12068016841F008010160206849
:10064000016841F001010160DCE700002DE9F84F8D
:10065000DFF8B8A1002201250AF1040B03264FF0B0
:100660000F090BF1040E00BF0B6805FA02F42340DA
:10067000A3426FD10F7907F00307012F01D0022F9A
:1006800016D187684FEA420806FA08FC27EA0C07E9
:10069000D1F80CC00CFA08FC4CEA070CC0F808C0F2
:1006A0004768A7430C79C4F3001494403C4344606A
:1006B0000C79E443A4070AD0C4684FEA420C06FA56
:1006C0000CF7BC438F6807FA0CF72743C7600C7917
:1006D00004F00304022C12D1D40800EB840CDCF8E3
:1006E00020405707FF0E09FA07F824EA0804D1F85A
:1006F000108008FA07F848EA0408CCF8208004685B
:100700004FEA420C06FA0CF7BC430F7907F00307D7
:1007100007FA0CF7274307604C68E40070D53C4C9F
:10072000276847F480472760246822F0030704F411
:1007300080440094374C07EB040CDCF8084897071A
:100740004FEA177809FA08F7BC43334FB84202D191
:10075000002724E054E0314FB84201D101271EE0C8
:100760002F4FB84201D1022719E02E4FB84201D1D4
:10077000032714E02C4FB84201D104270FE02B4F80
:10078000B84201D105270AE0294FB84201D1062716
:1007900005E0284FB84201D1072700E0082707FAF3
:1007A00008F72743CCF80878DAF800405746D1F824
:1007B00004C09C435FEACC3C00D51C433C60DBF8A2
:1007C00000405F46D1F804C09C435FEA8C3C00D5F2
:1007D0001C433C60DEF800407746D1F804C09C43DF
:1007E0005FEACC2C00D51C433C60084F0C373C68BA
:1007F000D1F804C09C435FEA8C2C00D51C433C60BC
:10080000521C102AFFF430AFBDE8F88F003C0140C5
:100810004438024000300140000002400004024021
:1008200000080240000C0240001002400014024088
:1008300000180240001C0240014880687047000018
:1008400008000020024881680278114481607047E6
:10085000080000200B4810B5016841F400710160E8
:10086000016841F480610160016841F480710160B8
:10087000032000F06FF8002000F006F800F024F8E4
:10088000002010BD003C024070B50D4D04464FF4F1
:100890007A712878B1FBF0F00A490968B1FBF0F0F1
:1008A00000F00AFB48B9102C07D200222146501E46
:1008B00000F030F800206C6070BD012070BD0000B9
:1008C00008000020140000200A4808B5016841F41F
:1008D00080410160006800F4804000900548001FDE
:1008E000016841F080510160006800F08050009084
:1008F00008BD000044380240002809DB00F01F0258
:10090000012191404009800000F1E020C0F8001171
:1009100070470000F0B40E4B1B680C46C3F3022373
:10092000C3F10705042D00D90425191D072901D29B
:10093000002300E0DB1E012606FA05F1491E2140D6
:1009400099409E40761E16403143F0BC00F0FDBC3D
:100950000CED00E0064900F0070208684FF6FF03BF
:10096000184040EA0220034A104308607047000024
:100970000CED00E00000FA052DE9F0470E460500F9
:1009800065D0DFF81481D8F80000F7B200F0070056
:10099000B04207D288F80070D8F8000000F00700D5
:1009A000B04254D128683D4C810712D5400703D589
:1009B000206840F4E05020602878000703D52068C4
:1009C00040F4604020602068A96820F0F0000843EF
:1009D00020602878C0072DD0304968680839012880
:1009E00012D0022813D0032811D0096889070029E2
:1009F0002DDA216821F0030101432160FFF71CFF7C
:100A0000814641F2883A0EE009688903EFE70968F8
:100A10008901ECE7FFF710FFA0EB0901514502D96E
:100A20000320BDE8F0872068696800F00C00B0EB97
:100A3000810FEFD1D8F80010404601F00701B14214
:100A400007D90770006800F00700B04201D001200C
:100A5000E7E72878400705D52068E96820F4E050EA
:100A6000084320602878000706D52068296920F40B
:100A7000604040EAC100206000F038F82168084A70
:100A8000C1F30311515CC84006490860064800687C
:100A9000FFF7FAFE0020C4E7003C0240083802409D
:100AA00020140008140000200C0000200448054910
:100AB00000680968044AC1F38221515CC84070474C
:100AC000140000200838024030140008044805498A
:100AD00000680968044AC1F34231515CC84070475C
:100AE000140000200838024030140008154810B5E2
:100AF000006810F00C02144813D04110042A0FD0E3
:100B0000082A0ED10F4C241F2268236802F03F02EE
:100B10005B0207D52068C0F38810A0FB010106E046
:100B2000084610BD2168C1F38811A1FB0001002314
:100B3000FFF748FB2168C1F30141491C4900B0FBA4
:100B4000F1F010BD083802400024F4002DE9F84F00
:100B500004006ED02078DFF84C93C007A9F104059B
:100B60004AD009F104000168C1F38101012908D0CC
:100B70000068C0F3810002280AD1D9F800004002C1
:100B800006D52868800337D560680028E1D033E0B7
:100B90006068B0F5803F10D0B0F5A02F286810D065
:100BA00020F480302860286820F480202860606865
:100BB000A8B1FFF741FE06460DE0286840F48030FA
:100BC000F4E740F480202860F7E700BFFFF734FE29
:100BD000801B642873D828688003F7D50CE0FFF7E2
:100BE0002BFE064605E000BFFFF726FE801B6428AB
:100BF000F0D828688003F7D42078DFF8AC8280072B
:100C00004FF0000A3ED5A748001D016811F00C0FF7
:100C100008D00068C0F3810002280BD1D9F8000089
:100C2000400207D42868800716D5E068012800D163
:100C300012E033E1E068B8B10120C8F80000FFF726
:100C4000FBFD064605E000BFFFF7F6FD801B02280E
:100C5000C0D828688007F7D52868216920F0F800F7
:100C600040EAC10028600DE0C8F800A0FFF7E4FDED
:100C7000064604E0FFF7E0FD801B02281FD8286825
:100C80008007F7D42078000722D5864F874861690E
:100C9000703771B101210160FFF7CEFD064604E017
:100CA000FFF7CAFD801B022809D838688007F7D5EE
:100CB0000EE0C0F800A0FFF7BFFD064605E082E0A9
:100CC000FFF7BAFD801B02287DD838688007F7D46B
:100CD0002078400768D5DFF8CCB100270BF13C0B3A
:100CE000DBF80000C0000BD4DBF8001041F08051AD
:100CF000CBF80010DBF80000012700F080500090D6
:100D00006B4E3068C00510D4306840F4807030609D
:100D1000FFF792FD009005E0FFF78EFD0099401A65
:100D2000022850D83068C005F6D55E4EA0686C36F3
:100D300001280FD00528306810D020F00100306065
:100D4000306820F004003060A068B8B1FFF774FD8F
:100D500000900FE0306840F00100F4E740F004003C
:100D60003060F7E7FFF768FD0099411A41F28830DB
:100D7000814266D830688007F4D50EE0FFF75CFD4D
:100D8000009007E0FFF758FD0099411A41F28830C2
:100D9000814256D830688007F4D42FB1DBF80010B8
:100DA00021F08051CBF80010A069C8B33D49091D5E
:100DB0000968C1F3810102294AD00228504607D0B0
:100DC000C8F8600000E03CE0FFF736FD04463BE079
:100DD0004746C8F86000FFF72FFD064605E000BF54
:100DE000FFF72AFD801B02282BD828688001F7D442
:100DF000D4E907010843A16A2E4A490802EB0141E0
:100E0000626A41EA8211084394F82C1040EA0161B9
:100E1000C9F8001001203866FFF70EFD044606E011
:100E20003EE000BFFFF708FD001B022809D8286834
:100E30008001F7D534E000BFFFF7FEFC001B02285D
:100E400002D90320BDE8F88F28688001F4D427E098
:100E50000128F7D0D9F80000E26900F4800191423E
:100E60001CD1226A00F03F01914217D147F6C071B0
:100E7000626A0140B1EB821F10D1A26A4FF0FF33CA
:100E800000F4403103EB5202B1EB024F06D194F86B
:100E90002C1000F07060B0EB016F01D00120D1E7A1
:100EA0000020CFE70438024000004742800E47424E
:100EB000007000400000FFFF10B5401EB0F1807FC1
:100EC00001D3012010BD4FF0E02460610F216017B5
:100ED00000F03BFA0020A06107202061002010BD37
:100EE0007047704770B5040004D094F83D000025A9
:100EF00010B106E0012070BD84F83C50204600F09F
:100F000023F8242084F83D002068C16821F40051B2
:100F1000C160204600F05AF92068016921F490412F
:100F200001612068416921F02A0141612068C1689E
:100F300041F40051C1602564202084F83D0084F80C
:100F40003E00002070BD000070B586B0064614213A
:100F50006846FFF76FF920493068884239D11F4849
:100F60000025016841F010010160006800F01000E8
:100F700005901A481438016841F0010101600068C9
:100F8000694600F0010005904FF4C0600090022017
:100F9000CDE9010503200390072004901048FFF7D6
:100FA00055FB114C0F4820604FF00060C4E901056B
:100FB0004014C4E9035080106561C4E906502562FD
:100FC00020466562FFF7A0FA08B1FFF7CAF9B463DB
:100FD000A66306B070BD0000001001404438024016
:100FE00000000240406402405C00002090F83E3067
:100FF000202B0ED159B152B190F83C30012B08D0C2
:10100000012380F83C300023036300F065B9012020
:1010100070470220704770477047FEE7FEE7FEE723
:1010200070477047FFF70EBC30B593B0302168466B
:10103000FFF700F914210CA8FFF7FCF81D48002564
:10104000016841F080510160006800F0805011900B
:101050001948016841F4804101600068022400F4ED
:101060008040119001200390102004900094069479
:101070000820CDE90750A820CDE9090404200B90F1
:101080006846FFF763FD08B172B6FEE70CA90F20B2
:1010900081E831004FF4A0500F904FF48050109031
:1010A00005210CA8FFF768FC002801D072B6FEE706
:1010B00013B030BD40380240007000400248016863
:1010C00041F470010160704788ED00E070B5846BF9
:1010D0002068406994F83D10C0F3C0100025212914
:1010E00004D118B1E584204600F067F82068406913
:1010F00094F83E10C0F38010222904D118B1E58580
:10110000204600F042F8206C40F010002064204699
:10111000FFF7E7FE70BD10B50146806B09680968EE
:10112000C9051BD40021C1850168CA6822F48072F8
:10113000CA6001684A6922F001024A6101684A698D
:1011400022F040024A61202180F83E10016B012903
:1011500004D10168CA6822F01002CA60016B01293B
:1011600002D0FFF758FF10BD818DFFF7B9FE10BD0B
:1011700010B5806B016B012902D0FFF74DFF10BD48
:10118000818D4908FFF7ACFE10BD0168CA6822F4E2
:101190009072CA6001684A6922F001024A61016BDB
:1011A000012904D10168CA6822F01002CA60202116
:1011B00080F83E100021016370470168CA6822F080
:1011C000C002CA60202180F83D10704770B5044607
:1011D00000680169E26821F440511143016121690D
:1011E000A068E26908436169114308432168CA683D
:1011F00049F20C639A430243CA6020684169A269BC
:1012000021F440711143416131492068884202D084
:101210003049884202D1FFF759FC01E0FFF746FC54
:10122000E2690023192164253226B2F5004F626875
:1012300028D0A0FB0101930F9200FEF7C3FF0146E7
:10124000B0FBF5F06FF01802504301EB800006EBA5
:101250000010B0FBF5F000F0F002B1FBF5F002EB8E
:101260000012B1FBF5F06FF01803584301EB80005A
:1012700006EB0010B0FBF5F000F00F002168104401
:10128000886070BDA0FB010192185B41FEF79AFFD8
:101290000146B0FBF5F00201B1FBF5F06FF0180369
:1012A000584301EB800006EBC000B0FBF5F000F006
:1012B000F80002EB4002B1FBF5F0584301EB80006F
:1012C00006EBC000B0FBF5F000F00700D6E7000029
:1012D000001001400014014038B58162828500256C
:1012E000134604460564222084F83E00A26B13488E
:1012F000D063A26B12481064A26B1248D064A06B3A
:101300000A4605652168A06B091DFFF767F920688B
:1013100001684168009184F83C50C16841F48071D3
:10132000C1602068416941F0010141612068416963
:1013300041F040014161002038BD00001711000854
:1013400071110008CD100008FEE70907090E0028FA
:1013500004DB00F1E02080F80014704700F00F007B
:1013600000F1E02080F8141D704702E008C8121F49
:1013700008C1002AFAD170477047002001E001C17E
:10138000121F002AFBD1704708B5FFF763FAFFF779
:101390004BFE1D480024016841F080010160016896
:1013A00001F080010091016841F0010101600168D4
:1013B00001F001010091016841F4800101600068C1
:1013C000002200F48000009011463A20FFF7A2FAB4
:1013D0003A20FFF791FA0E480C4901604FF4E131D1
:1013E000C0E901140C21C460C0E904418461C461F6
:1013F000FFF778FD08B172B6FEE7082205490448F8
:10140000FFF7F4FDFEE70000303802400010014015
:10141000180000200000002000061016000610161C
:101420000000000000000000010203040607080994
:10143000000000000102030458140008000000200E
:10144000180000006A13000870140008180000203B
:10145000A80400007A13000800000000000000004B
:101460000100000010000000000000000024F40053
:040000050800018965
:00000001FF
