:020000040800F2
:10000000900500200101000861130008611200083A
:100010005D13000841020008751C00080000000084
:10002000000000000000000000000000E11A0008CD
:1000300045020008000000005D190008151B0008BB
:100040001B0100081B0100081B0100081B01000820
:100050001B0100081B0100081B0100081B01000810
:100060001B0100081B0100081B0100081B01000800
:100070001B0100081B0100081B0100081B010008F0
:100080001B0100081B0100081B0100081B010008E0
:100090001B0100081B0100081B0100081B010008D0
:1000A0001B0100081B0100081B0100081B010008C0
:1000B0001B0100081B0100081B0100081B010008B0
:1000C0001B0100081B0100081B0100081B010008A0
:1000D0001B0100081B0100081B0100081B01000890
:1000E0001B0100081B0100081B010008DFF80CD0F1
:1000F00000F074F800480047CD1C0008900500206F
:100100000648804706480047FEE7FEE7FEE7FEE7B1
:10011000FEE7FEE7FEE7FEE7FEE7FEE77D1B0008E1
:10012000ED00000840EA01039B0703D009E008C97D
:10013000121F08C0042AFAD203E011F8013B00F8AC
:10014000013B521EF9D27047D2B201E000F8012BF8
:10015000491EFBD270470022F6E710B513460A4647
:1001600004461946FFF7F0FF204610BD421C10F868
:10017000011B0029FBD1801A70472DE9F05F05466D
:10018000002092469B4688460646814640241BE056
:10019000284641464746224600F041F853465A4613
:1001A000C01A914110D311461846224600F028F893
:1001B0002D1A67EB01084F4622460120002100F06E
:1001C0001FF817EB00094E41201EA4F10104DFDCEB
:1001D000484631462A464346BDE8F09F064C074D47
:1001E00006E0E06840F0010394E807009847103407
:1001F000AC42F6D3FFF77EFFC02D0008E02D0008CB
:10020000202A04DB203A00FA02F1002070479140D6
:10021000C2F1200320FA03F3194390407047202ACB
:1002200004DB203A21FA02F00021704721FA02F3A0
:10023000D040C2F1200291400843194670470000A7
:10024000FEE7000070470000EFF3108072B600BFB9
:10025000FEE70000B0B5044600F014F9054640F290
:100260000C00C2F200000078611C18BF044400BFFB
:1002700000F008F9401BA042FAD3B0BD2DE9F04FC1
:1002800082B00E68002E00F0F38041F20042C4F20A
:100290000102042340F2004E904208BF03234FF6B0
:1002A000FF7CC4F2010E009300240123C1F2100C64
:1002B0004FF0000A4FF0000940E0012504F00C0364
:1002C0000F279F402BEA070705FA03F33B4342F849
:1002D00026304E68F203DEF8002054BF22EA0802FE
:1002E00042EA0802CEF80020DEF80420B30354BF2F
:1002F00022EA080242EA0802CEF80420F302DEF8FD
:10030000082054BF22EA080242EA0802B30240F27F
:100310000C43CEF80820C4F201031A6854BF22EA45
:10032000080242EA08021A6001230E680AF1010A73
:1003300036FA0AF204F1040400F09A8003FA0AFB88
:1003400016EA0B08F1D04A68624511DC122A51D82E
:10035000DFE802F0340A424650505050505050509E
:100360005050505050494D00D1F80C9042E000BF21
:100370004FF6FF75C1F22105AA420FDC0025C1F23C
:100380001105AA421AD00025C1F21205AA4215D0C1
:100390000025C1F22105AA4210D02BE00025C1F2B0
:1003A0002205AA420AD00025C1F23105AA4205D091
:1003B0000025C1F23205AA421CD100BF8A6842B1B1
:1003C000012A14BFC0F814B0C0F810B04FF00809EB
:1003D00010E04FF004090DE0CA6802F1080909E0D5
:1003E0004FF0000906E0CA6802F1040902E0CA6899
:1003F00002F10C0922460546B8F5807F24BF203A59
:1004000004352E680F279740BE4309FA02F23243A3
:100410002A60CA79D2067FF588AF41F21803C4F288
:1004200002031A684FEA9A0642F001021A601A683B
:1004300040F6000302F001020192019AAEF57E72CD
:1004400052F826B0C4F2010398420FD040F60043A0
:10045000C4F2010398423FF430AF41F20003C4F20A
:100460000103009D984208BF022527E7002525E7E4
:1004700002B0BDE8F08F0000002A08BF0904016146
:100480007047000040F28810C2F200000068704718
:1004900040F20C0040F28811C2F20000C2F20001EA
:1004A00000780A68104408607047000080B542F286
:1004B0000000C4F20200016841F010010160032055
:1004C00000F062F8002000F005F800F02BF80020A2
:1004D00080BD0000B0B540F20C02C2F2000240F252
:1004E00008011278C2F200014FF47A730968B3FB75
:1004F000F2F20446B1FBF2F1084600F0D7FD0F2CF2
:100500004FF001050CD858B94FF0FF3021460022BA
:10051000002500F029F840F21000C2F2000004604B
:100520002846B0BD82B041F21800C4F20200016852
:10053000022241F001010160016801F00101019115
:100540000199416841F080514160406800F080505D
:10055000009000980420C4F20100016862F31A615F
:10056000016002B07047000070B514460D460646A3
:1005700001F082FB2946224601F0DAF901463046B5
:1005800001F082FB70BD000080B501F08FFB80BDE3
:100590002DE9F04381B0002800F0898042F2000884
:1005A000C4F202080446D8F800000D4600F0070027
:1005B00088420CD2D8F8000020F007002843C8F881
:1005C0000000D8F8000000F00700A8426FD12068B2
:1005D00041F204098107C4F2020917D5410705D584
:1005E000D9F8001041F4E061C9F80010010705D501
:1005F000D9F8001041F46051C9F80010D9F8001082
:10060000A26821F0F0011143C9F80010C00745D1DC
:10061000D8F8000000F00700A8420CD9D8F8000074
:1006200020F007002843C8F80000D8F8000000F0C8
:100630000700A8423BD12068410707D5D9F8001030
:10064000E26821F4E0611143C9F80010000708D501
:10065000D9F80000216920F4605040EAC100C9F8CF
:10066000000000F079F8D9F8001042F6F412C1F356
:100670000311C0F60002515C40F2080220FA01F1B9
:1006800040F21000C2F200000068C2F200021160E5
:10069000FFF720FF002001B0BDE8F083606802286A
:1006A00009D0012829D159F8041C890307D4012055
:1006B00001B0BDE8F08359F8041C8901F7D5D9F8D9
:1006C000001021F003010843C9F80000FFF7DAFE2B
:1006D000064641F2883700BFD9F80000616800F093
:1006E0000C00B0EB810F93D0FFF7CCFE801BB8421B
:1006F000F2D9032001B0BDE8F08359F8041C890742
:10070000D5D5DCE740F20800C2F20000006870476F
:1007100080B5FFF7F7FF41F20401C4F20201096856
:1007200042F60422C1F30221C0F60002515CC84027
:1007300080BD000080B5FFF7E5FF41F20401C4F27F
:100740000201096842F60422C1F3C221C0F6000288
:10075000515CC84080BD000041F2040CC4F2020CA0
:10076000DCF8003003F00C00082841F20020C0F251
:100770007A0018BF7047C3F383420AA18A5CD90389
:1007800005D440F60010C0F23D0050437047DCF83D
:10079000001008A3C1F34041595C5043B0FBF1F095
:1007A000704700BF02030405060708090A0B0C0D79
:1007B0000E0F1010010200002DE9F04182B0002858
:1007C00000F0C4800446007841F20006C007C4F27D
:1007D000020643D0706800F00C00042817D070683F
:1007E00000F00C00082802D17068C0030FD46568BF
:1007F0002DB1B5F5A02F10D0B5F5803F11D03068E0
:1008000020F480303060306820F480200CE03068C4
:10081000800323D5606808BB98E0306840F48020EE
:100820003060306840F480303060FFF72BFE002DE0
:10083000054610D03068800310D4FFF723FE401B1C
:100840006428F7D904E100BFFFF71CFE401B6428B1
:100850004FF0030077D830688003F5D42078800704
:1008600018D5706810F00C0F07D0706800F00C00FD
:10087000082826D17068C00323D43068800702D5C9
:100880002069012862D13068616920F0F80040EAEF
:10089000C1003060207800073DD5A06938B3002042
:1008A000C4F242200121C0F88014FFF7EBFD054699
:1008B000706A80072DD4FFF7E5FD401B0228F7D9A9
:1008C000C6E02069002840F20000C4F2422000F097
:1008D000968001210160FFF7D5FD0546306880074D
:1008E000D1D4FFF7CFFD401B0228F7D9B0E000209C
:1008F000C4F242200021C0F88014FFF7C3FD054672
:10090000706A800707D5FFF7BDFD401B0228F7D9A5
:100910009EE001F025F8207840071BD4E5698DB1F1
:10092000706800F00C00082847D1012D0ED07068C7
:10093000216A00F480328A4208D1616A00F47010A2
:10094000884203D1002002B0BDE8F081012002B04E
:10095000BDE8F081F06910F0805808D1F06940F0EE
:100960008050F061F06900F080500190019847F2EA
:100970000007C4F200073868C00510D4386840F496
:1009800080703860FFF77EFD054600BF3868C005FF
:1009900005D4FFF777FD401B6428F7D958E0E568D8
:1009A0001DB1052D3CD0012D3ED0306A20F0010054
:1009B0003062306A20F0040039E00027C4F2422798
:1009C00000203866FFF75EFD022D05460CD100BF02
:1009D0003068800154D5FFF755FD401B02284FF0C9
:1009E0000300F5D9AFE700BF30688001AAD5FFF753
:1009F00049FD401B02284FF00300F5D9A3E7002171
:100A00000160FFF73FFD0546306880077FF542AF84
:100A1000FFF738FD401B02284FF00300F4D992E79E
:100A2000306A40F004003062306A40F00100306209
:100A3000FFF728FD002D054641F2883714D000BF8E
:100A4000306A800713D4FFF71DFD401BB842F7D969
:100A5000032002B0BDE8F081FFF714FD401BB8424F
:100A60004FF003003FF66FAF306A8007F4D4B8F15F
:100A7000000F7FF453AFF06920F08050F0614DE734
:100A8000206AB0F5803F05D17168A26821F4003179
:100A9000114371607168626A21F474111043084354
:100AA000706001203866FFF7EDFC04463068800175
:100AB0003FF548AFFFF7E6FC001B02284FF00300AC
:100AC000F4D940E770B538B10446406A30B100202F
:100AD000206104F1140007E0012070BD6068B0F5EA
:100AE000827F03D004F11C00002101600026A66271
:100AF00094F8510020B9204684F8506000F038F88E
:100B0000022084F8510094E8071001F48271036810
:100B100002F4044223F040030360236911440CF4FF
:100B20000062114403F002026369114403F0010200
:100B3000A369E569114403F40072114405F0380219
:100B4000256A114405F08002A56A114305F400529C
:100B500011430160042101EA13414160C16921F49C
:100B60000061C1610120666584F85100304670BDA6
:100B700070B586B040F60044C4F20104006804F584
:100B80001051002688420596CDE90366029601D0F1
:100B900006B070BD41F21800C4F20200016802AD57
:100BA00041F480510160016801F480510191019983
:100BB000016841F0080101600068294600F0080062
:100BC00001900198282002900220039003200590B4
:100BD0002046FFF753FB1020CDE9020620462946A8
:100BE0000496FFF74BFB0420C4F20100016841F0BA
:100BF000E06141F00101016006B070BD2DE9F043F4
:100C000081B0044640681D461746B0F5827F0E4607
:100C100002D1A06800285AD094F85000012803D1CE
:100C2000022001B0BDE8F0834FF0010984F8509034
:100C3000FFF728FC94F85110012946D18046002E78
:100C40004FF0010018BF002F77D0042084F8510026
:100C500000206065A663A787E7872063A086E086FB
:100C6000A1682064B1F5004F606408D12068016874
:100C700021F040010160016821F480410160206899
:100C80000168490603D4016841F040010160E16850
:100C9000E08F49B3002843D06E1C09E0C068A16B07
:100CA00021F8020BA163E08F0138E087E08FB8B331
:100CB00020688168C907F1D1FFF7E4FB002EF5D069
:100CC000A0EB0800A842F1D328E0022035E0042080
:100CD00084F851002046314632463B46009500F0EC
:100CE000F3F801B0BDE8F083D0B16E1C0AE0007BE0
:100CF000A16B0870A06B0130A063E08F0138E08722
:100D0000E08F68B120688168C907F0D1FFF7BAFBAE
:100D1000002EF5D0A0EB0800A842F1D303200CE090
:100D200020462946424600F031FE00281CBF202004
:100D30006065606D002818BF0120002184F8519083
:100D400084F8501001B0BDE8F08300002DE9F043B5
:100D500081B0044690F85000012803D1022001B070
:100D6000BDE8F0834FF001091D4616460F4684F892
:100D70005090FFF787FB94F8511001295DD1804610
:100D8000002F4FF0010018BF002E00F095800320C7
:100D900084F85100002060652763A686E686A0637C
:100DA000A087E087A168C4E91000B1F5004F08D121
:100DB0002068016821F040010160016841F4804130
:100DC000016020680168490603D4016841F04001D0
:100DD00001606168731EE268B1FA81F1B3FA83F3CE
:100DE00049095B09B2F5006F41EA030127D139B126
:100DF000216B0988C160B81C2063E08E0138E08651
:100E0000E08E002841D06E1C0AE000BF216B31F853
:100E1000022BC2602163E08E0138E086E08EA0B331
:100E2000206881688907F1D4FFF72CFB002EF5D0EC
:100E3000A0EB0800A842F1D325E002203CE039B144
:100E400039780173206B01302063E08E0138E08631
:100E5000E08ED0B16E1C0AE0216B09780173206B23
:100E600001302063E08E0138E086E08E68B12068B2
:100E700081688907F0D4FFF705FB002EF5D0A0EBC1
:100E80000800A842F1D3032016E020462946424636
:100E900000F0ACFD00281CBF20206065A06838B9B8
:100EA000002000902068C168009180680090009840
:100EB000606D002818BF0120002184F8519084F84B
:100EC000501001B0BDE8F0832DE9F04381B0044635
:100ED00090F85000012803D1022001B0BDE8F08352
:100EE00001201E4615460F4684F85000FFF7CAFA47
:100EF00094F85110814601290CD06068B0F5827FCA
:100F000076D104294FF0020040F0C680A168002984
:100F100040F0C280002F4FF0010018BF002D00F0FC
:100F2000BB80002E00F0B88094F851000021042806
:100F30001CBF052084F851006165A563E687A6877C
:100F40002763E6862068A6862164616401684906F5
:100F500003D4016841F0400101606168731EE268DA
:100F6000B1FA81F1B3FA83F3DDF8208049095B0916
:100F7000B2F5006F41EA03013CD139B1216B098818
:100F8000C160B81C2063E08E0138E086012608F1BC
:100F9000010500BFE08E10B9E08F002866D0206800
:100FA000816889070CD5E18E012E09D141B1216BF1
:100FB000002631F8022BC2602163E18E0139E186FF
:100FC0008168C9070AD0E18F41B1C068A16B0126D1
:100FD00021F8020BA163E08F0138E087FFF752FA96
:100FE000002DD7D0A0EB09004045D3D3032053E018
:100FF000022051E039B139780173206B0130206350
:10100000E08E0138E086012608F10105E08E08B97E
:10101000E08F58B32068816889070DD5E18E012ED5
:101020000AD149B1216B002609780173206B013088
:101030002063E08E0138E08620688168C9070BD004
:10104000E18F49B1C068A16B01260870A06B013027
:10105000A063E08F0138E087FFF714FA002DD5D0A8
:10106000A0EB09004045D1D3032015E020464146BE
:101070004A4600F0BBFC18B12020606501200BE05F
:10108000A06800284FF0000006D100902168CA68CF
:101090000092896800910099012184F85110002183
:1010A00084F8501001B0BDE8F083000080B500F076
:1010B00019FD80BD002804BF0120704710B504460B
:1010C00090F8390028B9002084F83800204600F054
:1010D00021F8242084F839002068C16821F40051E7
:1010E000C160204600F04CFD2068016921F4904168
:1010F0000161416921F02A014161C16841F4005157
:10110000C16000202021E06384F8391084F83A108F
:1011100010BD000070B586B040F60004C4F20104B2
:10112000006804F54051002688420596CDE9036623
:10113000029601D006B070BD41F21800C4F2020060
:10114000016802AD41F480410160016801F4804111
:1011500001910199016841F004010160006829468C
:1011600000F00400019001984FF4007002900220FA
:101170000390032005902046FFF780F84FF480602D
:10118000CDE90206204629460496FFF777F806B017
:1011900070BD00002DE9F04381B0044690F839009D
:1011A00020280BD10E4600294FF0010055D01746DC
:1011B000002A52D094F83800012803D1022001B04F
:1011C000BDE8F083012084F838004FF000092120A9
:1011D0001D46C4F83C9084F83900FFF753F9A78402
:1011E000E784A1680746B1F5805F07D12069002830
:1011F0001CBF30464E46B046064601E04FF00008A0
:1012000084F8389007E000BF16F8010B21684860A9
:10121000E08C0138E084E08C80B1204680213A46A1
:101220002B4600F0F5FC80B9002EEDD138F8020B0A
:1012300021686FF35F2048600026E9E720464021DF
:101240003A462B4600F0E4FC18B1032001B0BDE89B
:10125000F083202084F83900002001B0BDE8F0833D
:10126000FEE70000F0B585B0002541F21800CDE999
:101270000355CDE90155C4F20200016840F600446F
:1012800041F0200101600168C4F2010401F0200175
:10129000009100990168012241F004010160016898
:1012A000C02601F00401009100990168012741F076
:1012B000080101600068C02100F00800009000985B
:1012C0002046FFF7D9F80320049001A92046CDE974
:1012D00001670395FEF7D2FF05B0F0BD80B540F27F
:1012E000400043F20001C2F20000C4F201014FF4D9
:1012F0008272002380E80E0000F114014FF4007C9C
:101300004FF0200E81E808500A21C0E90333C0E9FC
:101310000833C0E90A31FFF7D5FB002808BF80BDBC
:10132000FEF792FF80B540F2980043F60001C2F24A
:101330000000C4F2010100234FF00C0C4FF4E13225
:1013400080E80E00C0E90333C0E905C3C361FFF7BD
:10135000B1FE002808BF80BDFEF776FFFEE7000063
:10136000FEE7000080B582B0002000F00DF947F2E2
:101370005030ADF8060040F2E000C2F200000DF17E
:10138000060102226423FFF7E1FC012000F0FCF8D3
:1013900002B080BD80B5002000F002F880BD0000E2
:1013A00070B5064600F028F910F040040FD005464D
:1013B000002E1CBFC5F3420030700720402100F012
:1013C00079FAA80603D50720202100F073FA002C33
:1013D00018BF0124204670BD81B070B583B00646A9
:1013E00040F2E00014460D46C2F2000007A9582260
:1013F0000793FEF797FE40F2DC00C2F200000660A1
:1014000040F2DA00C2F20000058040F2D800C2F2D9
:1014100000000480012000F0B7F8002000F0A2F8DE
:101420000520FEF717FF0020082100F043FA0120F5
:101430003F2100F03FFA0220032100F03BFA032095
:10144000032100F037FA0420032100F033FA0520CD
:10145000022100F02FFA06200F2100F02BFA0720BE
:101460000E2100F027FA0820002100F023FA0920BD
:10147000002100F01FFA01AC6FF018054FF0E736BD
:101480000A20214605228DF80850019600F02EFA18
:101490006FF03D008DF808004FF0C23001900B2036
:1014A0002146052200F022FA0C20C32100F002FAA6
:1014B0000D20C42100F0FEF90E20C52100F0FAF93C
:1014C0000F20C62100F0F6F91020214605228DF8E4
:1014D0000850019600F00AFA1120002100F0EAF904
:1014E0001220002100F0E6F91320002100F0E2F9BB
:1014F0001420002100F0DEF91520002100F0DAF9B7
:101500001620002100F0D6F9FFF72CFF1C20002147
:1015100000F0D0F91D20002100F0CCF900F07CFC97
:101520000F200F2100F09CF9032000F071F9012039
:1015300000F052F9022000F033F900F037F82020D3
:1015400000F084F900F01CF94C2000F03BF900F0A9
:1015500041F800F039F800F08DF803B0BDE87040B4
:1015600001B0704780B50246002840F2DC0040F22E
:10157000D801C2F20000C2F200010068098818BF59
:101580000122FEF779FF80BD80B50246002840F2B7
:10159000DC0040F2DA01C2F20000C2F20001006891
:1015A000098818BF0122FEF767FF80BD80B51D20A6
:1015B00000F0A0F800F0FB011D2000F07BF91C20DA
:1015C000002100F077F980BD80B5E220FF2100F016
:1015D00071F980BD80B5E120FF2100F06BF980BD7D
:1015E00080B5602000F086F880BD000040F27810E1
:1015F000C2F200000078704780B5072000F07AF84A
:1016000080BD000010B582B004460193009218B16D
:10161000062C09D902B010BD40F28010C2F20000C1
:10162000C0E90023062CF5D80EA0005D052269460E
:10163000012C88BF012200F059F940F278110BA06B
:10164000C2F20001005D097800F034F9022000F0D8
:1016500051F80121A1400843C1B2022000F02AF94B
:1016600002B010BD0A0B0C0D0E0F10001112131456
:101670001516000080B5002000F03CF800F0FD01D8
:10168000002000F017F980BD10B500F00BF817200E
:1016900000F030F800F00104FFF796FFFFF7A0FF1D
:1016A000204610BD70B582B00C460546FFF79EFF80
:1016B0000646A0424FF0000088BF2646FFF764FFB1
:1016C00040F2E0046120C2F200048DF807000DF141
:1016D0000701204601226423FFF738FB20462946F4
:1016E00032466423FFF78AFA0120FFF74DFF02B06C
:1016F00070BD0000B0B582B004460020FFF744FF83
:1017000004F01F0040F2E004C2F200040DF10505F0
:101710008DF805002046294601226423FFF716FBB9
:10172000691C204601226423FFF768FA9DF80640F1
:101730000120FFF729FF204602B0B0BD70B582B08E
:101740000646002014460D46FFF71EFF06F01F0058
:1017500040F2E006C2F200068DF805000DF1050129
:10176000304601226423FFF7F1FA3046294622462B
:101770006423FFF743FA0120FFF706FF02B070BDB4
:1017800080B50720702100F095F880BD80B5014636
:1017900000284FF0010018BF3F2100F08BF880BDFA
:1017A00010B504460020FFF7A5FF00F0F3012CB1AF
:1017B000012C14BF40F00C0141F00801002000F0A2
:1017C00079F810BD80B501467F284FF0050028BF8D
:1017D0007F2100F06FF880BDB0B505460620FFF709
:1017E00089FF012D00F0D70404D0022D08BF44F07A
:1017F000200401E044F008040620214600F05AF8D5
:101800000620FFF777FF001BB0FA80F04009B0BD5B
:1018100010B504460620FFF76DFF621E032A00F094
:10182000F9010ED8DFE802F00205080B41F00201D1
:1018300007E041F0040104E040F0060101E040F05F
:101840000601062000F036F810BD000040F27811C5
:10185000C2F20001202828BF202008707047000035
:1018600080B501F00F0141EA0010C1B2042000F080
:1018700021F880BD80B50020FFF73CFF40F0030158
:10188000002000F017F840F28010C2F2000003C8F8
:10189000084307D040F28011C2F200010A2005225D
:1018A00000F024F8FFF796FEFFF78EFE0120FFF709
:1018B00059FE80BDB0B582B0054600200C46FFF74A
:1018C00063FE45F020008DF8050040F2E000C2F212
:1018D00000000DF10501022264238DF80640FFF798
:1018E00035FA0120FFF750FE02B0B0BD70B582B0EE
:1018F0000646002014460D46FFF746FE46F020003F
:1019000040F2E006C2F200068DF805000DF1050177
:10191000304601226423FFF719FA30462946224651
:101920006423FFF713FA0120FFF72EFE02B070BD0B
:1019300000F0070080F00703042B28BF04234FF0BA
:10194000FF3C03380CFA03F338BF00209943814071
:101950000CFA00F022EA00000843704770470000CC
:1019600081B040F20800C2F20000006844F6D35192
:10197000C1F26201A0FB0101480A009000BF00987B
:10198000411E00280091F9D101B0704710B50446FE
:1019900040689446B0F5827F0A461AD1A168B1F535
:1019A000004F02D0B1F5806F04D121680B6823F09D
:1019B00040030B60B0F5827F0BD1A068B0F5806F5B
:1019C00007D120460121634600F022F840B90020EB
:1019D00010BD20468021634600F01AF80028F6D09A
:1019E000606D40F020006065032010BD10B5134607
:1019F0000A468021044600F00BF800280FBF0020A3
:101A0000606D40F02000606518BF032010BD00002D
:101A10002DE9F04381B01E4690460D468146FEF703
:101A200031FD301A00EB0807FEF72CFD40F20801EB
:101A3000C2F200010968C1F3CB3179430091D9F8B2
:101A4000001089682940A94219D1064608F101040D
:101A500006E000BFD9F8000080682840A8420ED1F7
:101A6000002CF7D0FEF70EFD801BB8420BD2009879
:101A70000099002808BF0746481E0090EAE70020AA
:101A800001B0BDE8F083D9E900014268B1F5827F79
:101A900022F0E00242600BD1D9F80810B1F5004FF6
:101AA00002D0B1F5806F03D1016821F040010160DF
:101AB000D9F82810B1F5005F07D1016821F4005171
:101AC0000160016841F400510160012089F8510072
:101AD000002089F85000032001B0BDE8F083000029
:101AE00070470000B0B501380024B4EB106F1CBF84
:101AF0000120B0BD4EF21005CEF2000568604FF037
:101B0000FF300F2100F0C0F80720AC6028602046AD
:101B1000B0BD000080B5FEF7BBFC80BD70B590B0D5
:101B200006AC20462821FEF716FB012006900A90FD
:101B30004FF4E01000254FF4803102260F9020462C
:101B40000595CDE90355CDE90155CDE90715CDE959
:101B50000D61FEF731FE78B90F20CDE901064FF493
:101B60008060CDE9040501A802210395FEF710FD70
:101B7000002804BF10B070BDFEF766FB7047000080
:101B800010B504460068D4E902C22369016921F452
:101B9000405111430161616943EA0C021143C2687B
:101BA00041F20C639A431143C1604169A26921F477
:101BB0004071114343F60002C4F2010290424161B8
:101BC00002D0FEF7A5FD01E0FEF7B4FD6268192121
:101BD00048439100B0FBF1F048F21F51C5F2EB1100
:101BE000A0FB01235A096FF0630302FB03003223B9
:101BF00003EB0010A0FB0101F02303EA511320685E
:101C000003EB0212C1F343111144816010BD0000C7
:101C10002DE9F0410446006800680840884202D17E
:101C20000020BDE8F0811D460E4690465F1C04E092
:101C3000206800683040B042F2D0002FF8D02DB1BB
:101C4000FEF720FCA0EB0800A842F1D92068C1688B
:101C500021F4D071C160416921F00101416120206E
:101C600084F8390084F83A00002084F83800032012
:101C7000BDE8F081FEE700004EF60C50CEF2000009
:101C80000068C0F3022070474EF6145300F00F02B4
:101C9000CEF2000309011A4400F16043B0F1FF3FA6
:101CA000C8BF03F564421170704700004EF60C5136
:101CB000CEF200010A684FF6FF031A4060F30A22D1
:101CC00042F0806040F0FD700860704798B0FEF709
:101CD000EDFBFFF723FFFFF7C5FAFFF7FFFAFFF76A
:101CE00021FB40F24001C2F2000151F8043B68467A
:101CF000542251F8044B043A40F8044BF9D140F611
:101D00000040C4F2010040218022FFF765FB40F251
:101D10009804C2F20004206804F1200A1790606859
:101D20009AE880071690A068D4E90E121590D4E9BD
:101D30000C5004F10C0ECDE9085004A89EE8485858
:101D4000CDE90A1280E880031798DDE915218DE8B6
:101D50004058CDF81CA000F033F800F05DF80020EA
:101D6000FFF714FD3420FFF72DFD2020FFF76EFD57
:101D700040F20000C2F20000D0E900230120FFF78A
:101D800041FCFFF777FD40F21805C2F2000540F66E
:101D90000D2603E04FF4FA60FEF75CFAFFF7FAFA5B
:101DA0000028F7D028462021FFF76EFC2046294660
:101DB00023220A23A5F82160FFF7ECF9EAE70000E7
:101DC00040F2381CC2F2000C8CE807000098019920
:101DD000CCF810000298CCF814100399CCF8180035
:101DE0000498CCF81C100599CCF820000698CCF883
:101DF00024100799CCF828000898CCF82C100999E1
:101E0000CCF830000A98CCF834100B99CCF80C3090
:101E1000CCE90E01704700002DE9F04FABB042F65F
:101E20008C50C0F60000D0E90037D0E904410D9392
:101E3000CDE9123708AB00F1200AD0E90265D0E9FC
:101E400006C2F2C3CDE916419AE88A0490F832B08E
:101E5000B0F8308012AC0DF1680E2046CDE9146563
:101E6000CDE9057307918EE88A04CDE90E2CCDE902
:101E700018C28DF87AB0ADF87880FEF777F982B2A3
:101E800040F23810C2F2000021460A23FFF782F91F
:101E90000020FFF72FFC01070CD442F6DC40C0F60F
:101EA000000090E84E0000690DF1480C8CE84E00EF
:101EB000169026E0400714D442F62450C0F60000E5
:101EC00090E84E000DF1480CD0E904548CE84E0027
:101ED000018B807ECDE91654ADF860108DF862005C
:101EE0000FE042F64050C0F6000090E84E00D0E906
:101EF000045480690DF1480C8CE84E00CDE916546D
:101F0000189012AC2046FEF731F940F23819C2F2AF
:101F1000000982B2484621460A23FFF73BF9012017
:101F2000FFF7E8FBC0F38001C0F3C006C0F3001761
:101F30008DE8C20042F6813100F00102C0F3400397
:101F4000C0F34015C0F600012046039500F0F8FAF2
:101F50002046FEF70BF982B2484621460A23FFF7D6
:101F600019F90220FFF7C6FBC0F38001C0F3C007D8
:101F7000CDE9001742F6C53100F00102C0F340037D
:101F8000C0F30016C0F34015C0F6000120460296CB
:101F9000039500F0D5FA2046FEF7E8F882B24846ED
:101FA00021460A23FFF7F6F80320FFF7A3FB00F012
:101FB0000300821C0FF20451204600F0C1FA2046B3
:101FC000FEF7D4F882B2484621460A23FFF7E2F82A
:101FD0000520FFF78FFB00F07F020FF2FC41204647
:101FE00000F0AEFA2046FEF7C1F882B2484621461C
:101FF0000A23FFF7CFF80620FFF77CFB0446000713
:1020000059BF42F65C50C0F6000042F67450C0F66C
:102010000000016842688368C76806691291818A76
:10202000807D12AD1392149315971696ADF85C103F
:102030008DF85E002846FEF799F882B240F238101B
:10204000C2F2000029460A23FFF7A4F8C4F34100B6
:10205000022807D0012816D020BB42F69440C0F6D3
:10206000000014E042F68040C0F6000090E88E00C8
:102070000DF1480C8CE88E00018A807CADF8581078
:102080008DF85A001CE042F66C40C0F60000016872
:1020900042688368C7680069129113921493159778
:1020A00016900DE042F65840C0F6000090E88E0011
:1020B000008A0DF1480C8CE80E001597ADF8580019
:1020C00012AC2046FEF752F840F23819C2F200096D
:1020D00082B2484621460A23FFF75CF80DF142061A
:1020E0000A2031460522FFF729FB9DF843009DF8A1
:1020F00044109DF846209DF842709DF84530CDE98A
:10210000001042F60C21C0F600012046029700F0B4
:1021100017FA2046FEF72AF882B2484621460A23DB
:10212000FFF738F80B2031460522FFF707FB9DF833
:1021300043009DF844109DF846209DF842709DF89C
:102140004530CDE9001042F63C21C0F600012046A2
:10215000029700F0F5F92046FEF708F882B24846EB
:1021600021460A23FFF716F80C2031460122FFF71B
:10217000E5FA9DF8422042F69621C0F6000120467D
:1021800000F0DEF92046FDF7F1FF82B24846214615
:102190000A23FEF7FFFF0D2031460122FFF7CEFA9A
:1021A0009DF8422042F6BE21C0F60001204600F014
:1021B000C7F92046FDF7DAFF82B2484621460A23D6
:1021C000FEF7E8FF0E2031460122FFF7B7FA9DF82F
:1021D000422042F6E621C0F60001204600F0B0F9A8
:1021E0002046FDF7C3FF82B2484621460A23FEF788
:1021F000D1FF0F2031460122FFF7A0FA9DF84220BF
:1022000042F60E31C0F60001204600F099F9204652
:10221000FDF7ACFF82B2484621460A23FEF7BAFF1B
:10222000102031460522FFF789FA9DF843009DF8FA
:1022300044109DF846209DF842709DF84530CDE948
:10224000001042F66C21C0F600012046029700F013
:1022500077F92046FDF78AFF82B2484621460A23D5
:10226000FEF798FF1120FFF745FA42F6363100F0ED
:102270003F02C0F60001204600F062F92046FDF75B
:1022800075FF82B2484621460A23FEF783FF1220DB
:10229000FFF730FA42F64F3100F03F02C0F600017E
:1022A000204600F04DF92046FDF760FF82B2484617
:1022B00021460A23FEF76EFF1320FFF71BFA42F6B2
:1022C000683100F03F02C0F60001204600F038F906
:1022D0002046FDF74BFF82B2484621460A23FEF70F
:1022E00059FF1420FFF706FA00F03F027FA12046B5
:1022F00000F026F92046FDF739FF82B24846214614
:102300000A23FEF747FF1520FFF7F4F900F03F021C
:102310007DA1204600F014F92046FDF727FF82B288
:10232000484621460A23FEF735FF1620FFF7E2F95B
:1023300000F03F027BA1204600F002F92046FDF7A5
:1023400015FF82B2484621460A23FEF723FF1C20D0
:10235000FFF7D0F9C0F38001C0F3C007CDE9001743
:1023600042F60E4100F00102C0F34003C0F3001634
:10237000C0F34015C0F6000120460296039500F018
:10238000DFF82046FDF7F2FE82B2484621460A23D6
:10239000FEF700FF1D20FFF7ADF90446400712D4F9
:1023A00042F6F040C0F6000090E88E000DF1480CB7
:1023B00006698CE88E00818A807D1696ADF85C10E7
:1023C0008DF85E000EE042F6A840C0F6000090E8EE
:1023D0008E000669808A0DF1480C8CE88E001696F6
:1023E000ADF85C0012AD2846FDF7C0FE82B240F2A7
:1023F0003810C2F2000029460A23FEF7CBFEA007E0
:1024000014D442F60850C0F6000090E88E000DF19A
:10241000480CD0E904658CE88E00018B807ECDE904
:102420001665ADF860108DF8620010E042F6C0400D
:10243000C0F6000090E88E00D0E90465008B0DF135
:10244000480C8CE88E0016961795ADF8600012AC1B
:102450002046FDF78BFE40F23815C2F2000582B22D
:10246000284621460A23FEF795FE0D98CDF874A064
:1024700012900C988DF87AB013900B98ADF8788084
:1024800014900A9815900998169008981790059836
:102490001C9006981B9007981A900E9819900F9808
:1024A00018902046FDF762FE82B2284621460A2394
:1024B000FEF770FE2BB0BDE8F08F00BF53455455BA
:1024C000505F41573A0D0A09092564206279746505
:1024D00073200D0A0000000052465F43483A0D0A7F
:1024E00009092564204348200D0A000052585F5016
:1024F000575F50333A0D0A090925642062797465E3
:1025000073200D0A0000000052585F50575F50348E
:102510003A0D0A09092564206279746573200D0A51
:102520000000000052585F50575F50353A0D0A09BD
:10253000092564206279746573200D0A000000008B
:102540000FB4084B10B504A902AA039800F01CF8B8
:10255000044602A9002000F048FA204610BC5DF8AD
:1025600014FB0000EB29000802E008C8121F08C194
:10257000002AFAD170477047002001E001C1121F04
:10258000002AFBD1704700002DE9FF4F8DB00F46A8
:102590000546002606E025280BD0DDE90F129047FE
:1025A0006D1C761C28780028F5D111B03046BDE8A6
:1025B000F08F0024A246A1460122EC4900E004432A
:1025C00015F8013F203B02FA03F00842F7D12878C2
:1025D0002A2810D06FF02F022878A0F130010929A5
:1025E00014D80AEB8A0102EB410144F0020400EB2B
:1025F000010A6D1CF0E701CF5FEA000A03D544F43D
:102600000054CAF1000A44F002046D1C28782E28F8
:1026100017D115F8010F44F004042A280ED06FF0EA
:102620002F022878A0F1300109290AD809EB890185
:1026300002EB410100EB01096D1CF2E757F8049B26
:102640006D1C28786C280FD006DC4C2817D0682821
:102650000DD06A2814D104E0742810D07A280FD144
:102660000DE044F400140AE044F4801401E044F462
:1026700040146978814202D104F580146D1C6D1CF0
:102680002A786E2A1FD00CDC632A31D004DC002AA1
:102690008BD0582A11D1A3E0642A68D0692A0CD1C2
:1026A00065E0732A2ED004DC6F2A73D0702A04D11F
:1026B0009BE0752A6FD0782A6ED01046DDE90F12A4
:1026C0009047761C50E1C4F30250022806D003283C
:1026D00009D0042801CF09D0066045E101CFF117E8
:1026E000C0E9006140E101CF06803DE106703BE1B9
:1026F00017F8040B8DF8000000208DF80100EB4660
:10270000012003E057F804BB4FF0FF3061074FF0A2
:10271000000102D40DE008F10101884649450FDAB5
:102720008045F8DB1BF808100029F4D108E008F117
:10273000010188468142FADB1BF808100029F6D116
:10274000DDE90F23AAEB08008146214600F036F9A7
:10275000304400EB080604E0DDE90F121BF8010B22
:102760009047B8F10108F7D221464846F7E00A2120
:10277000C4F302534FF0000B0891022B04D001CF99
:10278000C117032B09D00AE0FF1D27F00707F7E860
:10279000020108E032E01FE020E000B2C117042B84
:1027A00001D140B2C117031E71F1000307DA4FF0E7
:1027B000000CD0EB0C006CEB01012D2302E0230593
:1027C00004D52B238DF82430012303E0E30701D047
:1027D0002023F7E7984658E00A2110E010210EE088
:1027E00010204FF0000B08900CE010214FF0000B70
:1027F00044F004044FF00809089103E008214FF069
:10280000000B0891C4F30253022B04D001CF002126
:10281000032B06D006E0FF1D27F00707F7E80201AB
:1028200003E080B2042B00D1C0B24FF000082307B0
:102830002BD5702A07D0DDF820C08CF0100C5CEA94
:102840000B0C05D00EE040238DF82430012308E066
:1028500050EA010306D030238DF824308DF825206E
:1028600002239846DDF820C08CF0080C5CEA0B0CC3
:102870000BD150EA010301D1630706D530238DF84F
:1028800024304FF00108A9F10109582A04D038A2D8
:102890000B9208AA0A920BE03AA2F9E75B46089A63
:1028A000FDF76BFC0B9B9B5C0A9A521E0A921370FD
:1028B00050EA0102F2D10A98ADEB000000F1200BC2
:1028C000600702D524F4803401E04FF00109D945B6
:1028D00002DDA9EB0B0000E0002000EB0B014144FE
:1028E0000890AAEB010AE00306D4DDE90F23214694
:1028F000504600F063F806444FF0000908E009A9CB
:1029000011F80900DDE90F12904709F10109761C61
:10291000C145F4DBE0030CD5DDE90F232146504629
:1029200000F04CF8064404E0DDE90F123020904737
:10293000761C0899481E08900029F5DC08E00A98E2
:102940000A990078491C0A91DDE90F129047761C1C
:10295000BBF10001ABF1010BF1DC21465046DDE992
:102960000F2300F019F806446D1C1BE6092801002E
:1029700030313233343536373839616263646566F5
:1029800000000000303132333435363738394142B7
:1029900043444546000000002DE9F041044600256F
:1029A0001E461746880404D405E039462020B04767
:1029B0006D1C641EF9D52846BDE8F0812DE9F04173
:1029C000044600251E469046C80301D5302700E086
:1029D0002027880404D505E041463846B0476D1CE1
:1029E000641EF9D52846BDE8F0810A68531C0B60C7
:1029F0001070704700000000000000000102030496
:102A000006070809000000000102030452585F5045
:102A1000697065302041646472733A0D0A090925B2
:102A20003032582C253032582C253032582C253055
:102A300032582C2530325820200D0A0052585F5051
:102A4000697065312041646472733A0D0A09092581
:102A50003032582C253032582C253032582C253025
:102A600032582C2530325820200D0A00545820416D
:102A7000646472733A0D0A0909253032582C2530E6
:102A800032582C253032582C253032582C253032F3
:102A90005820200D0A0052585F506970653220415D
:102AA000646472733A0D0A090978782C78782C7866
:102AB000782C78782C2530325820200D0A00525876
:102AC0005F50697065332041646472733A0D0A097E
:102AD0000978782C78782C78782C78782C253032F6
:102AE0005820200D0A0052585F506970653420410B
:102AF000646472733A0D0A090978782C78782C7816
:102B0000782C78782C2530325820200D0A00525825
:102B10005F50697065352041646472733A0D0A092B
:102B20000978782C78782C78782C78782C253032A5
:102B30005820200D0A0052585F50575F50303A0D10
:102B40000A09092564206279746573200D0A005210
:102B5000585F50575F50313A0D0A090925642062C9
:102B600079746573200D0A0052585F50575F5032D8
:102B70003A0D0A09092564206279746573200D0AEB
:102B800000454E41413A0D0A090950303A09256481
:102B90000D0A090950313A0925640D0A0909503214
:102BA0003A0925640D0A090950333A0925640D0ACA
:102BB000090950343A0925640D0A090950353A09C2
:102BC00025640D0A00454E5F5258414444523A0D67
:102BD0000A090950303A0925640D0A090950313AA9
:102BE0000925640D0A090950323A0925640D0A09BC
:102BF0000950333A0925640D0A090950343A092568
:102C0000640D0A090950353A0925640D0A00445932
:102C10004E50445F706970653A0D0A090950303AA8
:102C20000925640D0A090950313A0925640D0A097C
:102C30000950323A0925640D0A090950333A092529
:102C4000640D0A090950343A0925640D0A0909502E
:102C5000353A0925640D0A0052465F5057523A0D25
:102C60000A0909306442200D0A00000052465F50F4
:102C700057523A0D0A09092D31326442200D0A00DB
:102C800052465F5057523A0D0A09092D36644220C8
:102C90000D0A000052465F5057523A0D0A09092D9D
:102CA00031386442200D0A00454E5F44504C3A0DC5
:102CB0000A0909456E61626C6564200D0A00000016
:102CC000454E5F41434B5F5041593A0D0A09094552
:102CD0006E61626C6564200D0A0000004352433A45
:102CE0000D0A090944697361626C6564200D0A006C
:102CF000454E5F44504C3A0D0A09094469736162BC
:102D00006C6564200D0A0000454E5F41434B5F50E7
:102D100041593A0D0A090944697361626C6564207E
:102D20000D0A00004352433A0D0A0909456E6162DB
:102D30006C65642C20312042797465200D0A0000F6
:102D40004352433A0D0A0909456E61626C65642C71
:102D50002032204279746573200D0A004461746149
:102D600020526174653A0D0A0909314D6270732071
:102D70000D0A00004461746120526174653A0D0AC5
:102D80000909324D627073200D0A00000D0A2A2ACB
:102D90002A2A2A2A2A2A2A2A2A2A2A2A2A2A2A2A93
:102DA0002A2A2A2A2A2A2A2A2A2A2A2A2A2A2A2A83
:102DB0002A2A2A2A2A2A2A2A2A2A2A2A0D0A000004
:102DC000E02D000800000020180000006825000821
:102DD000F82D00081800002078050000782500086C
:102DE000AA443322110000000024F4000100000076
:082DF0001000000000000000CB
:04000005080000ED02
:00000001FF
