:020000040800F2
:10000000980500209D01000895160008611500085C
:1000100091160008DD020008C5210008000000005C
:100020000000000000000000000000003D1E00086D
:10003000E102000800000000951C0008711E000885
:10004000B7010008B7010008B7010008B7010008B0
:10005000B7010008B7010008B7010008B7010008A0
:10006000B7010008B7010008B7010008B701000890
:10007000B7010008B7010008B7010008B701000880
:10008000B7010008B7010008B7010008B701000870
:10009000B7010008B7010008B7010008B701000860
:1000A000B7010008B7010008B7010008B701000850
:1000B000B7010008B7010008B7010008B701000840
:1000C000B7010008B7010008B7010008B701000830
:1000D000B7010008B5210008B7010008B701000802
:1000E000B7010008B7010008B7010008B701000810
:1000F000B7010008B7010008B7010008B701000800
:10010000B7010008B7010008B7010008B7010008EF
:10011000B7010008B7010008B7010008B7010008DF
:10012000B7010008B7010008B7010008B7010008CF
:10013000B7010008B7010008B7010008B7010008BF
:10014000B7010008B7010008B7010008B7010008AF
:10015000B7010008B7010008B7010008B70100089F
:10016000B7010008B7010008B7010008B70100088F
:10017000B7010008B7010008B7010008000000003F
:10018000B7010008B7010008DFF80CD000F094F8C0
:10019000004800473D220008980500200648804797
:1001A00006480047FEE7FEE7FEE7FEE7FEE7FEE75C
:1001B000FEE7FEE7FEE7FEE7191F000889010008D9
:1001C0002DE9F05F0546002092469B46884606468C
:1001D000814640241BE0284641464746224600F01F
:1001E0005AF853465A46C01A914110D31146184640
:1001F000224600F041F82D1A67EB01084F462246CF
:100200000120002100F038F817EB00094E41201EB4
:10021000A4F10104DFDC484631462A464346BDE8E6
:10022000F09F40EA01039B0703D009E008C9121FB1
:1002300008C0042AFAD203E011F8013B00F8013BA0
:10024000521EF9D27047D2B201E000F8012B491ECC
:10025000FBD270470022F6E710B513460A46044663
:100260001946FFF7F0FF204610BD421C10F8011B95
:100270000029FBD1801A7047202A04DB203A00FABB
:1002800002F1002070479140C2F1200320FA03F3ED
:10029000194390407047202A04DB203A21FA02F0EB
:1002A0000021704721FA02F3D040C2F120029140B0
:1002B0000843194670470000064C074D06E0E06809
:1002C00040F0010394E8070098471034AC42F6D39D
:1002D000FFF75EFF5C3300087C330008FEE7000098
:1002E00070470000EFF3108072B600BFFEE7000019
:1002F00070B5866D044600F039F994F8351002297E
:1003000028D105462068216C026822F0160202609E
:10031000426922F08002426109B9A16C19B10168F9
:1003200021F008010160016821F00101016000BFB6
:1003300020680068C00714D000F018F9401B062898
:10034000F6D320206065002084F83400032084F870
:10035000350070BD80206065002084F834000120E5
:1003600070BDE06D3F2101FA00F0B0600020012176
:1003700084F8340084F8351070BD000090F8351012
:10038000022909D1052180F835100068016821F0A3
:100390000101016000207047802141650120704704
:1003A000B0B5044600F0E2F8054640F20C00C2F297
:1003B00000000078611C18BF044400BF00F0D6F8AC
:1003C000401BA042FAD3B0BD2DE9F04F83B000F13D
:1003D0003E4202F1FF724FEAB22241F6004701921B
:1003E000C4F2020708224FF0010E00254FF0000A68
:1003F0004FF00008B84208BF072200920AE000BF91
:1004000008F101080AF1040AB8F1100F05F102051C
:1004100000F0A2800C680EFA08FB14EA0B09EFD07A
:100420004C6804F0030CACF1010EBEF1010F12D8C0
:1004300082680323CE6803FA05F7BA4306FA05F784
:100440003A4382604268C4F3001722EA0B0207FABB
:1004500008F73A434260BCF1030F1CD0C268032383
:100460008E6803FA05F7BA4306FA05F73A43BCF17A
:10047000020FC2600FD16FF0030202EA5802024479
:100480000AF01C060F23176A03FA06F40B69A74348
:10049000B3403B431362026803234F68AB409A4367
:1004A00007F00303AB401A43FB004FF0010E02605C
:1004B000A6D5002243F644030292C4F202031A684E
:1004C00043F6004442F480421A601A68C4F2010400
:1004D00002F480420292029A28F003024FF6084B7F
:1004E0002244CFF6FF7B52F80B300AF00C070F26A0
:1004F000BE4023EA060C019B009E072B38BF1E4618
:1005000006FA07F747EA0C0342F80B3022684B68FB
:1005100042EA0907DE0358BF22EA0907276062683A
:100520009E0342EA090758BF22EA09076760A268EA
:10053000DE0242EA090758BF22EA0907A76043F62C
:100540000C47C4F201073A689B0242EA090358BF0C
:1005500022EA09033B6053E703B0BDE8F08F0000D7
:10056000002A08BF090481617047000040F2901022
:10057000C2F200000068704740F20C0040F2901197
:10058000C2F20000C2F2000100780A68104408605C
:100590007047000080B543F60040C4F202000168D5
:1005A00041F400710160016841F4806101600168FB
:1005B00041F480710160032000F060F8002000F039
:1005C00005F800F02BF8002080BD0000B0B540F227
:1005D0000C02C2F2000240F208011278C2F20001DD
:1005E0004FF47A730968B3FBF2F20446B1FBF2F1FF
:1005F000084600F0E7FD0F2C4FF001050CD858B964
:100600004FF0FF3021460022002500F027F840F28D
:100610001000C2F2000004602846B0BD82B0002085
:1006200043F640010190C4F202014A6842F480425C
:100630004A604A6802F480420192019A0090086878
:1006400040F080500860086800F0805000900098EA
:1006500002B0704780B501F0B7FD80BD70B514469B
:100660000D46064601F0C0FD2946224601F0FCFA7F
:100670000146304601F0C0FD70BD000080B501F0BC
:10068000CDFD80BD2DE9F041002800F08B8043F6C0
:100690000808C4F202080446D8F8F8030D4600F032
:1006A0000700884207D288F8F853D8F8F80300F01A
:1006B0000700A84276D12068810717D5410705D5E4
:1006C000D8F8001041F4E051C8F80010010705D532
:1006D000D8F8001041F46041C8F80010D8F80010B4
:1006E000A26821F0F0011143C8F80010C0073FD103
:1006F000D8F8F80300F00700A84207D988F8F853A3
:10070000D8F8F80300F00700A8424BD12068410751
:1007100007D5D8F80010E26821F4E0511143C8F879
:100720000010000708D5D8F80000216920F46040C7
:1007300040EAC100C8F8000000F07EF8D8F80010C8
:1007400042F69072C1F30311C0F60002515C40F210
:10075000080220FA01F140F21000C2F20000006825
:10076000C2F200021160FFF731FF0020BDE8F08106
:100770006068811E022907D258F8081C89015CBFF5
:100780000120BDE8F08110E0012807D158F8081CCD
:1007900089035CBF0120BDE8F08106E058F8081C21
:1007A000890702D40120BDE8F081D8F8001021F0BB
:1007B00003010843C8F80000FFF7D8FE064641F2DF
:1007C000883700BFD8F80000616800F00C00B0EB7B
:1007D000810F8DD0FFF7CAFE801BB842F2D90320EB
:1007E000BDE8F08140F20800C2F2000000687047E6
:1007F00080B5FFF7F7FF43F60801C4F2020109686C
:1008000042F6A072C1F38221C0F60002515CC840DA
:1008100080BD000080B5FFF7E5FF43F60801C4F294
:100820000201096842F6A072C1F34231C0F600022B
:10083000515CC84080BD000010B543F60404C4F20A
:100840000204606800F00C0142F200400829C0F286
:10085000F40007D0042918BF10BD41F20020C0F2F7
:100860007A0010BD216801F03F0221682368490227
:10087000C3F3881105D4A1FB00010023FFF7A0FCFE
:1008800006E041F20020C0F27A004843B0FBF2F0EB
:1008900021680222C1F3014102EB4101B0FBF1F0FA
:1008A00010BD00002DE9F04182B0002800F0A280C8
:1008B0000446007843F60006C007C4F2020643D09F
:1008C000B06800F00C00042805D1306880033BD5E7
:1008D0006068C8BB8EE0B06800F00C00082802D148
:1008E00070684002F1D46568B5F5A02F0AD0B5F55F
:1008F000803F0BD0306820F480303060306820F4C6
:10090000802006E0306840F480203060306840F499
:1009100080303060FFF72AFE002D054611D000BF61
:100920003068800310D4FFF721FE401B6428F7D9FC
:1009300022E100BFFFF71AFE401B64284FF00300BE
:1009400055D830688003F5D4207880071AD5B06870
:1009500010F00C0F09D0B06800F00C00082840F02F
:100960008A807068400200F186803068800702D576
:10097000E06801283ED13068216920F0F80040EAA3
:10098000C10030602078000738D4207840074CD46C
:10099000A5695DB3B06800F00C00082840F09E80A7
:1009A000012D27D07068E16900F480028A4221D1CC
:1009B000216A00F03F028A421CD147F6C071626A88
:1009C0000140B1EB821F15D1A26A0023CFF6FF735D
:1009D00003EBC23200F440316FF30F02914209D1B0
:1009E000E16A00F07060B0EB016F03D1002002B04B
:1009F000BDE8F081012002B0BDE8F0816069002807
:100A000040F20000C4F2472057D00121C0F8801EF8
:100A1000FFF7ACFD054600BF706F8007B5D4FFF748
:100A2000A5FD401B0228F7D9A6E0306C10F08058D5
:100A30000AD100200190306C40F080503064306C5E
:100A400000F080500190019847F20007C4F20007BF
:100A50003868C00524D4386840F480703860FFF7E7
:100A600085FD05463868C0051AD4FFF77FFD401B99
:100A70000228F7D980E0E068002851D00020C4F2B5
:100A8000472001210160FFF771FD054630688007AE
:100A90003FF571AFFFF76AFD401B0228F6D96BE006
:100AA000A568052D50D0012D52D0306F20F00100E7
:100AB0003067306F20F004004DE00021C0F8801E48
:100AC000FFF754FD054600BF706F80077FF55DAFEF
:100AD000FFF74CFD401B0228F6D94DE00027C4F279
:100AE000472700203866FFF741FD022D05460BD150
:100AF0003068800158D5FFF739FD401B02284FF0C0
:100B00000300F5D973E700BF306880017FF56EAF51
:100B1000FFF72CFD401B02284FF00300F4D966E7D5
:100B20000020C4F2472000210160FFF71FFD0546A9
:100B3000306880077FF526AFFFF718FD401B0228BD
:100B40004FF00300F4D952E7306F40F004003067F3
:100B5000306F40F001003067FFF708FD002D0546BB
:100B600041F2883714D000BF306F800713D4FFF7ED
:100B7000FDFC401BB842F7D9032002B0BDE8F0816C
:100B8000FFF7F4FC401BB8424FF003003FF62FAFD5
:100B9000306F8007F4D4B8F1000F7FF4F9AE306CF9
:100BA00020F080503064F3E604F11C052FCD08439B
:100BB0000021CFF6FF7140EA821001EBC3316FF3E1
:100BC0000F0140EA05600843706001203866FFF7B6
:100BD000CDFC0446306880013FF508AFFFF7C6FC46
:100BE000001B02284FF00300F4D900E770B538B1BC
:100BF0000446406A30B10020206104F1140007E08F
:100C0000012070BD6068B0F5827F03D004F11C0044
:100C1000002101600026A66294F8510020B9204608
:100C200084F8506000F03CF8022084F8510094E809
:100C30000F0001F48271056802F4044225F04005BA
:100C40000560114403F400622369114403F00202B9
:100C50006369114403F00102A369E569114403F4D7
:100C60000072114405F03802256A114405F0800233
:100C7000A56A114305F4005211430160626A042120
:100C800001EA134102F0100211444160C16921F4EC
:100C90000061C1610120666584F85100304670BD75
:100CA00080B586B043F600410068C4F2000100221E
:100CB00088420592CDE903220292019201D006B04A
:100CC00080BD43F630000092C4F20200036943F491
:100CD00000430361036903F400430093009B009207
:100CE000036843F002030360006800F00200009014
:100CF0000098382001900220CDE9020203200490E0
:100D00000620059001F5E43001A9FFF75DFB06B070
:100D100080BD00002DE9F04381B0044640681D46C7
:100D20001746B0F5827F0E4602D1A06800285AD03F
:100D300094F85000012803D1022001B0BDE8F083EF
:100D40004FF0010984F85090FFF710FC94F851100F
:100D5000012946D18046002E4FF0010018BF002F18
:100D600077D0042084F8510000206065A663A7872F
:100D7000E7872063A086E086A1682064B1F5004F74
:100D8000606408D12068016821F0400101600168B9
:100D900021F48041016020680168490603D401689C
:100DA00041F040010160E168E08F49B3002843D081
:100DB0006E1C09E0C068A16B21F8020BA163E08FF3
:100DC0000138E087E08FB8B320688168C907F1D1A6
:100DD000FFF7CCFB002EF5D0A0EB0800A842F1D322
:100DE00028E0022035E0042084F8510020463146F6
:100DF00032463B46009500F0F3F801B0BDE8F083C1
:100E0000D0B16E1C0AE0007BA16B0870A06B0130B2
:100E1000A063E08F0138E087E08F68B120688168C7
:100E2000C907F0D1FFF7A2FB002EF5D0A0EB080018
:100E3000A842F1D303200CE020462946424600F0A8
:100E40002BFF00281CBF20206065606D002818BFA4
:100E50000120002184F8519084F8501001B0BDE8C1
:100E6000F08300002DE9F04381B0044690F8500073
:100E7000012803D1022001B0BDE8F0834FF0010941
:100E80001D4616460F4684F85090FFF76FFB94F806
:100E9000511001295DD18046002F4FF0010018BF8D
:100EA000002E00F09580032084F85100002060653A
:100EB0002763A686E686A063A087E087A168C4E9C9
:100EC0001000B1F5004F08D12068016821F0400101
:100ED0000160016841F480410160206801684906B1
:100EE00003D4016841F0400101606168731EE2684B
:100EF000B1FA81F1B3FA83F349095B09B2F5006FE6
:100F000041EA030127D139B1216B0988C160B81CBE
:100F10002063E08E0138E086E08E002841D06E1C10
:100F20000AE000BF216B31F8022BC2602163E08E22
:100F30000138E086E08EA0B3206881688907F1D48B
:100F4000FFF714FB002EF5D0A0EB0800A842F1D368
:100F500025E002203CE039B139780173206B013083
:100F60002063E08E0138E086E08ED0B16E1C0AE08E
:100F7000216B09780173206B01302063E08E01380A
:100F8000E086E08E68B1206881688907F0D4FFF7B9
:100F9000EDFA002EF5D0A0EB0800A842F1D3032013
:100FA00016E020462946424600F0AEFE00281CBF4F
:100FB00020206065A06838B9002000902068C168D2
:100FC0000091806800900098606D002818BF012093
:100FD000002184F8519084F8501001B0BDE8F083EE
:100FE0002DE9F04381B0044690F85000012803D168
:100FF000022001B0BDE8F08301201E4615460F46D1
:1010000084F85000FFF7B2FA94F851108146012994
:101010000CD06068B0F5827F76D104294FF00200D1
:1010200040F0C680A168002940F0C280002F4FF038
:10103000010018BF002D00F0BB80002E00F0B8802A
:1010400094F85100002104281CBF052084F85100A9
:101050006165A563E687A6872763E6862068A6867E
:10106000216461640168490603D4016841F04001CC
:1010700001606168731EE268B1FA81F1B3FA83F32B
:10108000DDF8208049095B09B2F5006F41EA0301F0
:101090003CD139B1216B0988C160B81C2063E08E56
:1010A0000138E086012608F1010500BFE08E10B985
:1010B000E08F002866D02068816889070CD5E18E12
:1010C000012E09D141B1216B002631F8022BC260FB
:1010D0002163E18E0139E1868168C9070AD0E18F79
:1010E00041B1C068A16B012621F8020BA163E08F1A
:1010F0000138E087FFF73AFA002DD7D0A0EB0900BE
:101100004045D3D3032053E0022051E039B1397870
:101110000173206B01302063E08E0138E0860126E8
:1011200008F10105E08E08B9E08F58B320688168A6
:1011300089070DD5E18E012E0AD149B1216B002618
:1011400009780173206B01302063E08E0138E0865E
:1011500020688168C9070BD0E18F49B1C068A16BD5
:1011600001260870A06B0130A063E08F0138E08792
:10117000FFF7FCF9002DD5D0A0EB09004045D1D3F5
:10118000032015E0204641464A4600F0BDFD18B157
:101190002020606501200BE0A06800284FF00000CF
:1011A00006D100902168CA68009289680091009970
:1011B000012184F85110002184F8501001B0BDE8DD
:1011C000F083000080B500F03BFE80BD704700005A
:1011D00070470000B0B582B0016805460868CA686B
:1011E0004C6900F02F03202B02F0200305D123B11E
:1011F000284600F0C5FE02B0B0BD5FEA007C1EBF0D
:1012000004F0010E02F4907414EB0E0424D12B6B45
:101210001040C20617D5012B15D100200190086897
:101220000190486801900198486940061CD4A88D37
:10123000EA8DEB8D002B1CBF801A5FEA004240F064
:101240009B8002B0B0BD010637D44006F9D52846D0
:1012500000F08AFE02B0B0BDC10718BF12F4807161
:1012600030D1410734D43AE0A86B0268526893B297
:10127000002BE6D0AC8DA342E3D2EA85C269B2F579
:10128000807F16D0CA6822F48072CA604A6922F050
:1012900001024A614A6922F040024A61202285F82F
:1012A0003E2000222A63CA6822F01002CA60FFF7BB
:1012B0001FF8A88DE98D401A6FE0284600F01EFF48
:1012C00002B0B0BD296C41F001012964410706D587
:1012D000BEF1000F03D0296C41F00201296481079F
:1012E00006D5BEF1000F03D0296C41F0040129643A
:1012F000BCF1000F06D55EEA030103D0296C41F072
:1013000008012964296C00299BD01040800602D571
:10131000284600F035FE28684069296C00F040003E
:1013200001F00801401820D0284600F007FE286888
:101330004169490614D5416921F040014161A86B1A
:1013400070B141F62D71C0F600010165FFF716F886
:1013500000283FF476AFA86B016D884702B0B0BD9E
:101360002846FFF735FF02B0B0BD2846FFF730FF33
:101370000020286402B0B0BDCA6822F49072CA602E
:101380004A6922F001024A61202285F83E200022AB
:101390002A63CA6822F01002CA6081B22846FFF7A9
:1013A00015FF02B0B0BD0000002804BF0120704747
:1013B00010B5044690F83D0028B9002084F83C00A0
:1013C000204600F021F8242084F83D002068C16800
:1013D00021F40051C160204600F022FE206801691E
:1013E00021F490410161416921F02A014161C16804
:1013F00041F40051C16000202021206484F83D1098
:1014000084F83E1010BD000080B586B041F20001A6
:101410000068C4F20101002288420592CDE903224E
:101420000292019201D006B080BD43F630000092D6
:10143000C4F20200436943F010034361436903F0BF
:1014400010030093009B0092036843F001030360C4
:10145000006800F00100009000984FF4C060019017
:101460000220CDE90202032004900720059001F537
:10147000704001A9FEF7A8FF252001210022FFF7F7
:10148000EDF82520FFF7E6F806B080BD70470000B4
:101490002DE9F04381B0044690F83D0020280BD19F
:1014A0000E4600294FF0010055D01746002A52D0B1
:1014B00094F83C00012803D1022001B0BDE8F0837C
:1014C000012084F83C004FF0000921201D46C4F89B
:1014D000409084F83D00FFF749F8A784E784A168AD
:1014E0000746B1F5805F07D1206900281CBF304650
:1014F0004E46B046064601E04FF0000884F83C90A6
:1015000007E000BF16F8010B21684860E08C013845
:10151000E084E08C80B1204680213A462B4600F0E2
:1015200017FE80B9002EEDD138F8020B21686FF359
:101530005F2048600026E9E7204640213A462B46D6
:1015400000F006FE18B1032001B0BDE8F0832020B2
:1015500084F83D00002001B0BDE8F0837047000032
:10156000FEE700002DE9F04786B0002743F6300083
:101570000597CDE90377CDE901770097C4F2020022
:101580000168002441F0800101600168C4F2020496
:1015900001F080010091009900970168012241F05B
:1015A0000101016001684FF0C00801F001010091E4
:1015B0000099009701684FF0010941F002010160B4
:1015C0000068C02100F00200009000982046FEF75D
:1015D000C7FF04F580652846C0210122FEF7C0FF41
:1015E00001AE4FF0030A20463146CDE90189039749
:1015F000CDF810A0FEF7E8FE28463146CDE9018976
:10160000CDE9037AFEF7E0FE06B0BDE8F087000002
:1016100080B540F2400043F60041C2F20000C4F23F
:1016200000014FF48272002380E80E0000F11401E3
:101630004FF4007C4FF0200E81E808500A21C0E9E9
:101640000333C0E90833C0E90A31FFF7CFFA0028B5
:1016500008BF80BDFEF746FE80B540F2980041F21B
:101660000001C2F20000C4F2010100234FF00C0C93
:101670004FF4E13280E80E00C0E90333C0E905C34E
:10168000C361FFF791FE002808BF80BDFEF72AFE68
:10169000FEE70000FEE7000080B582B0002000F009
:1016A0000DF947F25030ADF8060040F2E400C2F206
:1016B00000000DF1060102226423FFF7D3FB012095
:1016C00000F0FCF802B080BD80B5002000F002F808
:1016D00080BD000070B5064600F028F910F0400407
:1016E0000FD00546002E1CBFC5F342003070072006
:1016F000402100F07BFAA80603D50720202100F046
:1017000075FA002C18BF0124204670BD81B070B559
:1017100083B0064640F2E40014460D46C2F20000D3
:1017200007A958220793FEF77CFD40F2E000C2F2C1
:101730000000066040F2DE00C2F20000058040F2C8
:10174000DC00C2F200000480012000F0B7F80020A5
:1017500000F0A2F80520FEF723FE0020082100F08B
:1017600045FA01203F2100F041FA0220032100F058
:101770003DFA0320032100F039FA0420032100F090
:1017800035FA0520022100F031FA06200F2100F081
:101790002DFA07200E2100F029FA0820002100F080
:1017A00025FA0920002100F021FA01AC6FF018059C
:1017B0004FF0E7360A20214605228DF808500196A1
:1017C00000F030FA6FF03D008DF808004FF0C230A5
:1017D00001900B202146052200F024FA0C20C321A1
:1017E00000F004FA0D20C42100F000FA0E20C521FB
:1017F00000F0FCF90F20C62100F0F8F91020214676
:1018000005228DF80850019600F00CFA11200021F5
:1018100000F0ECF91220002100F0E8F9132000217B
:1018200000F0E4F91420002100F0E0F91520002177
:1018300000F0DCF91620002100F0D8F9FFF72CFFAA
:101840001C20002100F0D2F91D20002100F0CEF96B
:1018500000F0B0FD0F200F2100F09CF9032000F0F4
:1018600071F9012000F052F9022000F033F900F084
:1018700037F8202000F084F900F01CF94C2000F02B
:101880003BF900F041F800F039F800F08DF803B0B2
:10189000BDE8704001B0704780B50246002840F2B4
:1018A000E00040F2DC01C2F20000C2F20001006878
:1018B000098818BF0122FEF753FE80BD80B502469D
:1018C000002840F2E00040F2DE01C2F20000C2F265
:1018D00000010068098818BF0122FEF741FE80BDA3
:1018E00080B51D2000F0A0F800F0FB011D2000F0E5
:1018F0007DF91C20002100F079F980BD80B5E2203F
:10190000FF2100F073F980BD80B5E120FF2100F0D8
:101910006DF980BD80B5602000F086F880BD0000C4
:1019200040F28010C2F200000078704780B50720B6
:1019300000F07AF880BD000010B582B00446019333
:10194000009218B1062C09D902B010BD40F28810DF
:10195000C2F20000C0E90023062CF5D80EA0005DFD
:1019600005226946012C88BF012200F05BF940F294
:1019700080110BA0C2F20001005D097800F036F979
:10198000022000F051F80121A1400843C1B2022019
:1019900000F02CF902B010BD0A0B0C0D0E0F100058
:1019A000111213141516000080B5002000F03CF849
:1019B00000F0FD01002000F019F980BD10B500F025
:1019C0000BF8172000F030F800F00104FFF796FF45
:1019D000FFF7A0FF204610BD70B582B00C4605464B
:1019E000FFF79EFF0646A0424FF0000088BF264644
:1019F000FFF764FF40F2E4046120C2F200048DF8B6
:101A000007000DF10701204601226423FFF72AFA9F
:101A10002046294632466423FFF77CF90120FFF770
:101A20004DFF02B070BD0000B0B582B0044600208A
:101A3000FFF744FF04F01F0040F2E404C2F2000488
:101A40000DF105058DF80500204629460122642385
:101A5000FFF708FA691C204601226423FFF75AF9B0
:101A60009DF806400120FFF729FF204602B0B0BDD7
:101A700070B582B00646002014460D46FFF71EFFE3
:101A800006F01F0040F2E406C2F200068DF80500E1
:101A90000DF10501304601226423FFF7E3F93046DA
:101AA000294622466423FFF735F90120FFF706FF98
:101AB00002B070BD80B50720702100F097F880BD9E
:101AC00080B5014600284FF0010018BF3F2100F00B
:101AD0008DF880BD10B504460020FFF7A5FF00F08B
:101AE000F3012CB1012C14BF40F00C0141F00801AE
:101AF000002000F07BF810BD80B501467F284FF034
:101B0000050028BF7F2100F071F880BDB0B5054603
:101B10000620FFF789FF012D00F0D70404D0022D25
:101B200008BF44F0200401E044F0080406202146E8
:101B300000F05CF80620FFF777FF001BB0FA80F09A
:101B40004009B0BD10B504460620FFF76DFF621EC8
:101B5000032A00F0F9010ED8DFE802F00205080BB5
:101B600041F0020107E041F0040104E040F0060109
:101B700001E040F00601062000F038F810BD00003A
:101B800040F28011C2F20001202828BF20200870F6
:101B90007047000080B501F00F0141EA0010C1B2AA
:101BA000042000F023F880BD80B50020FFF73CFF43
:101BB00040F00301002000F019F840F28810C2F252
:101BC0000000D0E90001084307D040F28811C2F2BA
:101BD00000010A20052200F025F8FFF795FEFFF727
:101BE0008DFE0120FFF758FE80BD0000B0B582B029
:101BF000054600200C46FFF761FE45F020008DF8F9
:101C0000050040F2E400C2F200000DF105010222DD
:101C100064238DF80640FFF725F90120FFF74EFEFB
:101C200002B0B0BD70B582B00646002014460D4625
:101C3000FFF744FE46F0200040F2E406C2F2000640
:101C40008DF805000DF10501304601226423FFF7F0
:101C500009F93046294622466423FFF703F901209B
:101C6000FFF72CFE02B070BD00F0070080F0070304
:101C7000042B28BF04234FF0FF3C03380CFA03F376
:101C800038BF0020994381400CFA00F022EA00009E
:101C9000084370477047000010B5044640689446FA
:101CA000B0F5827F0A461AD1A168B1F5004F02D083
:101CB000B1F5806F04D121680B6823F040030B60FD
:101CC000B0F5827F0BD1A068B0F5806F13D12046AC
:101CD0000121634600F04AF838B9002010BD2046C3
:101CE0000121634600F042F860B1606D40F02000D1
:101CF0006065032010BD20468021634600F036F861
:101D00000028F2D1002010BD10B582B040F20803C7
:101D1000C2F200031B6849F68174C1F25E64A3FB42
:101D2000043C04464FEA5C504FF47A7358430190E8
:101D30006068B0F5827F0DD113460A4620468021A7
:101D400000F014F878B1606D40F020006065032069
:101D500002B010BD019830B101980138019020689F
:101D600080680006F6D4002002B010BD2DE9F043D3
:101D700081B01E4690460D468146FEF7F7FB301AAD
:101D800000EB0807FEF7F2FB40F20801C2F2000187
:101D90000968C1F3CB3179430091D9F80010896803
:101DA0002940A94219D1064608F1010406E000BF06
:101DB000D9F8000080682840A8420ED1002CF7D046
:101DC000FEF7D4FB801BB8420BD200980099002884
:101DD00008BF0746481E0090EAE7002001B0BDE8B2
:101DE000F083D9E900014268B1F5827F22F0E00278
:101DF00042600BD1D9F80810B1F5004F02D0B1F50F
:101E0000806F03D1016821F040010160D9F82810EA
:101E1000B1F5005F07D1016821F40051016001684C
:101E200041F400510160012089F85100002089F837
:101E30005000032001B0BDE8F083000070470000AF
:101E4000B0B501380024B4EB106F1CBF0120B0BD49
:101E50004EF21005CEF2000568604FF0FF300F2102
:101E600000F0CAF90720AC6028602046B0BD000031
:101E700080B5FEF781FB80BD70B592B006AC204600
:101E80003021FEF7E7F9002543F640000595CDE93E
:101E90000355CDE901550095C4F202000168022600
:101EA00041F080510160006800F08050009000987F
:101EB00047F200000095C4F20000016841F480413F
:101EC0000160006800F480400090009801200990B3
:101ED00010200A9008200E90A820CDE90F060420BB
:101EE000119020460696CDE90C65FEF7DBFC88B91B
:101EF0000F20CDE901064FF4A05004904FF480501C
:101F0000059001A805210395FEF7BCFB002804BF3E
:101F100012B070BDFEF7E6F94EF68850CEF2000022
:101F2000016841F4700101607047000080B5806B6A
:101F30000021C185C184FFF74BF980BD0168CA68E3
:101F400022F49072CA604A6922F001024A61026B6F
:101F5000012A03D1CA6822F01002CA60202180F849
:101F60003E1000210163704780B50168CA6822F005
:101F70004002CA60202180F83D10FFF7EFFA80BDD3
:101F800010B5044690F83E00222847D1A168B1F56B
:101F9000805F01D1206980B1A06AB1F5805F07D070
:101FA00009B9216921B12168496801F07F0101E087
:101FB000216849680170012006E02068A16A406834
:101FC0006FF35F2008800220A16A0844A062E08DC0
:101FD00001380104E08518BF10BD2068C16821F0F8
:101FE0002001C160C16821F48071C160416921F0A4
:101FF00001014161202184F83E10216B012908D1A3
:10200000C16821F01001C160A18D2046FFF7DEF804
:1020100002E02046FFF73AFA0020206310BD0000DE
:1020200010B504460068D4E902C22369016921F4AD
:10203000405111430161626943EA0C01E3691143B4
:10204000C268194349F20C639A431143C160416964
:10205000A26921F4407141F20043114340F48062CF
:10206000C4F201039A42416102D1FEF7D3FB01E0C1
:10207000FEF7BEFBE16963681922B1F5004FA0FBD2
:1020800002011CD15A00DB0FFEF79AF848F21F51EB
:10209000C5F2EB11A0FB01235A096FF0630302FBA9
:1020A0000300322303EBC000A0FB01014FF4F870E2
:1020B00000EA111000EB0210C1F342111AE09A007D
:1020C0009B0FFEF77DF848F21F51C5F2EB11A0FB04
:1020D00001235A096FF0630302FB0300322303EB71
:1020E0000010A0FB0101F02000EA511000EB0210EB
:1020F000C1F3431122680843906010BD90F83D1071
:10210000212923D18168B1F5805F01D1016931B105
:10211000016A02684B1C03620978516007E0016A9A
:10212000036831F8022B6FF35F225A600162C18CA1
:1021300001390A04C18418BF70470068C16821F0E2
:102140008001C160C16841F04001C160704700007A
:102150002DE9F0410446006800680840884202D139
:102160000020BDE8F0811D460E4690465F1C04E04D
:10217000206800683040B042F2D0002FF8D02DB176
:10218000FEF7F4F9A0EB0800A842F1D92068C16875
:1021900021F4D071C160416921F001014161202029
:1021A00084F83D0084F83E00002084F83C000320C1
:1021B000BDE8F08180B540F29800C2F20000FFF760
:1021C00009F880BDFEE70000002848BF704700F016
:1021D0001F01012202FA01F14EF200124009CEF273
:1021E000000242F8201070474EF60C50CEF200006C
:1021F0000068C0F3022070474EF6145300F00F023F
:10220000CEF2000309011A4400F16043B0F1FF3F30
:10221000C8BF03F564421170704700004EF60C51C0
:10222000CEF200010A684FF6FF031A4060F30A225B
:1022300042F0806040F0FD700860704796B0002466
:10224000C4F20204FEF7A6F9FFF716FEFFF78AF9BB
:10225000FFF7DEF9FFF700FA40F24002C2F2000297
:1022600052F8043B04F580606946542652F8045B3A
:10227000043E41F8045BF9D180214022FFF746FA81
:1022800040F29805C2F2000505F1100050F8042B49
:10229000694641F8042B50F8042B41F8042B50F800
:1022A000042B41F8042B50F8042B41F8042B50F870
:1022B000042B41F8042B50F8042B41F8042B50F860
:1022C000042B41F8042B50F8042B41F8042B50F850
:1022D000042B41F8042B50F8042B41F8042B50F840
:1022E000042B41F8042B50F8042B41F8042B50F830
:1022F000042B41F8042B95E80F0000F049F800F09A
:1023000059F80020FFF7DCFB3420FFF7F5FB202015
:10231000FFF736FC0120FFF7F9FB40F20000C2F2A4
:102320000000D0E900230120FFF706FBFFF73CFC8B
:1023300040F21806C2F2000607E020468021002283
:10234000FEF70EF93220FEF72BF8FFF7BDF9002853
:10235000F8D030460421FFF731FB284631460422ED
:102360000A23FFF795F83078302803D0312806D1BA
:10237000002200E0012220464021FEF7F1F87078AB
:102380003128DAD03028DDD1204680210122D7E75C
:1023900084B080B50DF1080C8CE80F0040F23C10C1
:1023A000C2F2000002A94422FDF73BFFBDE88040D5
:1023B00004B070472DE9F04FABB043F22830C0F6BF
:1023C0000000D0E90037D0E904410D93CDE9123780
:1023D00008AB00F1200AD0E90265D0E906C2F2C3D9
:1023E000CDE916419AE88A0490F832B0B0F830800E
:1023F00012AC0DF1680E2046CDE91465CDE90573E8
:1024000007918EE88A04CDE90E2CCDE918C28DF82B
:102410007AB0ADF87880FDF728FF82B240F23C1028
:10242000C2F2000021460A23FFF732F80020FFF72E
:10243000FBFA01070CD443F27820C0F6000090E8C4
:102440004E0000690DF1480C8CE84E00169026E015
:10245000400714D443F2C020C0F6000090E84E00BC
:102460000DF1480CD0E904548CE84E00018B807EBD
:10247000CDE91654ADF860108DF862000FE043F21C
:10248000DC20C0F6000090E84E00D0E904548069DA
:102490000DF1480C8CE84E00CDE91654189012ACA2
:1024A0002046FDF7E2FE40F23C19C2F2000982B27A
:1024B000484621460A23FEF7EBFF0120FFF7B4FA56
:1024C000C0F38001C0F3C006C0F300178DE8C2005E
:1024D00043F21D1100F00102C0F34003C0F34015A8
:1024E000C0F600012046039500F0F8FA2046FDF7FB
:1024F000BCFE82B2484621460A23FEF7C9FF0220ED
:10250000FFF792FAC0F38001C0F3C007CDE90017CE
:1025100043F2611100F00102C0F34003C0F3001662
:10252000C0F34015C0F6000120460296039500F066
:10253000D5FA2046FDF799FE82B2484621460A2385
:10254000FEF7A6FF0320FFF76FFA00F00300821CDE
:102550000FF20451204600F0C1FA2046FDF785FE37
:1025600082B2484621460A23FEF792FF0520FFF774
:102570005BFA00F07F020FF2FC41204600F0AEFA59
:102580002046FDF772FE82B2484621460A23FEF736
:102590007FFF0620FFF748FA0446000759BF43F2C1
:1025A000F820C0F6000043F21030C0F600000168C9
:1025B00042688368C76806691291818A807D12AD7E
:1025C0001392149315971696ADF85C108DF85E0073
:1025D0002846FDF74AFE82B240F23C10C2F20000EB
:1025E00029460A23FEF754FFC4F34100022807D00E
:1025F000012816D020BB43F23020C0F6000014E0C2
:1026000043F21C20C0F6000090E88E000DF1480C4B
:102610008CE88E00018A807CADF858108DF85A0045
:102620001CE043F20820C0F600000168426883689D
:10263000C7680069129113921493159716900DE0D4
:1026400043F2F410C0F6000090E88E00008A0DF10D
:10265000480C8CE80E001597ADF8580012AC2046D7
:10266000FDF703FE40F23C19C2F2000982B248466F
:1026700021460A23FEF70CFF0DF142060A203146DF
:102680000522FFF7F5F99DF843009DF844109DF8E9
:1026900046209DF842709DF84530CDE9001042F685
:1026A000A871C0F600012046029700F017FA2046F4
:1026B000FDF7DBFD82B2484621460A23FEF7E8FE1D
:1026C0000B2031460522FFF7D3F99DF843009DF812
:1026D00044109DF846209DF842709DF84530CDE9A4
:1026E000001042F6D871C0F600012046029700F0B3
:1026F000F5F92046FDF7B9FD82B2484621460A2386
:10270000FEF7C6FE0C2031460122FFF7B1F99DF815
:10271000422043F23201C0F60001204600F0DEF90B
:102720002046FDF7A2FD82B2484621460A23FEF765
:10273000AFFE0D2031460122FFF79AF99DF84220A5
:1027400043F25A01C0F60001204600F0C7F92046C6
:10275000FDF78BFD82B2484621460A23FEF798FE1C
:102760000E2031460122FFF783F99DF8422043F203
:102770008201C0F60001204600F0B0F92046FDF7C6
:1027800074FD82B2484621460A23FEF781FE0F20DF
:1027900031460122FFF76CF99DF8422043F2AA016D
:1027A000C0F60001204600F099F92046FDF75DFDD6
:1027B00082B2484621460A23FEF76AFE10203146BF
:1027C0000522FFF755F99DF843009DF844109DF848
:1027D00046209DF842709DF84530CDE9001043F247
:1027E0000801C0F600012046029700F077F9204664
:1027F000FDF73BFD82B2484621460A23FEF748FE1C
:102800001120FFF711F943F2D20100F03F02C0F6A8
:102810000001204600F062F92046FDF726FD82B255
:10282000484621460A23FEF733FE1220FFF7FCF844
:1028300043F2EB0100F03F02C0F60001204600F039
:102840004DF92046FDF711FD82B2484621460A2384
:10285000FEF71EFE1320FFF7E7F843F2041100F025
:102860003F02C0F60001204600F038F92046FDF78F
:10287000FCFC82B2484621460A23FEF709FE1420DA
:10288000FFF7D2F800F03F027FA1204600F026F9C2
:102890002046FDF7EAFC82B2484621460A23FEF7AD
:1028A000F7FD1520FFF7C0F800F03F027DA120469C
:1028B00000F014F92046FDF7D8FC82B248462146C4
:1028C0000A23FEF7E5FD1620FFF7AEF800F03F0201
:1028D0007BA1204600F002F92046FDF7C6FC82B23B
:1028E000484621460A23FEF7D3FD1C20FFF79CF83B
:1028F000C0F38001C0F3C007CDE9001743F2AA116D
:1029000000F00102C0F34003C0F30016C0F340150D
:10291000C0F6000120460296039500F0DFF820463D
:10292000FDF7A3FC82B2484621460A23FEF7B0FD1C
:102930001D20FFF779F80446400712D443F28C209B
:10294000C0F6000090E88E000DF1480C06698CE896
:102950008E00818A807D1696ADF85C108DF85E0041
:102960000EE043F24420C0F6000090E88E000669B5
:10297000808A0DF1480C8CE88E001696ADF85C004C
:1029800012AD2846FDF771FC82B240F23C10C2F253
:10299000000029460A23FEF77BFDA00714D443F26A
:1029A000A420C0F6000090E88E000DF1480CD0E99C
:1029B00004658CE88E00018B807ECDE91665ADF84C
:1029C00060108DF8620010E043F25C20C0F6000059
:1029D00090E88E00D0E90465008B0DF1480C8CE87E
:1029E0008E0016961795ADF8600012AC2046FDF7E4
:1029F0003CFC40F23C15C2F2000582B2284621465A
:102A00000A23FEF745FD0D98CDF874A012900C989E
:102A10008DF87AB013900B98ADF8788014900A98DE
:102A20001590099816900898179005981C9006988C
:102A30001B9007981A900E9819900F98189020469E
:102A4000FDF713FC82B2284621460A23FEF720FD3B
:102A50002BB0BDE8F08F00BF53455455505F415730
:102A60003A0D0A09092564206279746573200D0AFC
:102A70000000000052465F43483A0D0A09092564E8
:102A8000204348200D0A000052585F50575F5033D2
:102A90003A0D0A09092564206279746573200D0ACC
:102AA0000000000052585F50575F50343A0D0A0939
:102AB000092564206279746573200D0A0000000006
:102AC00052585F50575F50353A0D0A090925642066
:102AD0006279746573200D0A000000000FB4084B82
:102AE00010B504A902AA039800F01CF8044602A934
:102AF000002000F048FA204610BC5DF814FB0000EE
:102B0000872F000802E008C8121F08C1002AFAD166
:102B100070477047002001E001C1121F002AFBD15D
:102B2000704700002DE9FF4F8DB00F460546002687
:102B300006E025280BD0DDE90F1290476D1C761CAE
:102B400028780028F5D111B03046BDE8F08F002478
:102B5000A246A1460122EC4900E0044315F8013FDA
:102B6000203B02FA03F00842F7D128782A2810D037
:102B70006FF02F022878A0F13001092914D80AEB50
:102B80008A0102EB410144F0020400EB010A6D1CD2
:102B9000F0E701CF5FEA000A03D544F40054CAF11C
:102BA000000A44F002046D1C28782E2817D115F86D
:102BB000010F44F004042A280ED06FF02F02287869
:102BC000A0F1300109290AD809EB890102EB410182
:102BD00000EB01096D1CF2E757F8049B6D1C287887
:102BE0006C280FD006DC4C2817D068280DD06A2836
:102BF00014D104E0742810D07A280FD10DE044F4E9
:102C000000140AE044F4801401E044F440146978AC
:102C1000814202D104F580146D1C6D1C2A786E2A45
:102C20001FD00CDC632A31D004DC002A8BD0582A58
:102C300011D1A3E0642A68D0692A0CD165E0732A17
:102C40002ED004DC6F2A73D0702A04D19BE0752A41
:102C50006FD0782A6ED01046DDE90F129047761CAF
:102C600050E1C4F30250022806D0032809D00428FA
:102C700001CF09D0066045E101CFF117C0E900613D
:102C800040E101CF06803DE106703BE117F8040BFF
:102C90008DF8000000208DF80100EB46012003E0D4
:102CA00057F804BB4FF0FF3061074FF0000102D42A
:102CB0000DE008F10101884649450FDA8045F8DB4F
:102CC0001BF808100029F4D108E008F1010188463A
:102CD0008142FADB1BF808100029F6D1DDE90F2349
:102CE000AAEB08008146214600F036F9304400EB9B
:102CF000080604E0DDE90F121BF8010B9047B8F15C
:102D00000108F7D221464846F7E00A21C4F30253EE
:102D10004FF0000B0891022B04D001CFC117032BF9
:102D200009D00AE0FF1D27F00707F7E8020108E0D5
:102D300032E01FE020E000B2C117042B01D140B205
:102D4000C117031E71F1000307DA4FF0000CD0EB3E
:102D50000C006CEB01012D2302E0230504D52B238D
:102D60008DF82430012303E0E30701D02023F7E7A7
:102D7000984658E00A2110E010210EE010204FF094
:102D8000000B08900CE010214FF0000B44F00404FD
:102D90004FF00809089103E008214FF0000B08915B
:102DA000C4F30253022B04D001CF0021032B06D021
:102DB00006E0FF1D27F00707F7E8020103E080B2F5
:102DC000042B00D1C0B24FF0000823072BD5702A86
:102DD00007D0DDF820C08CF0100C5CEA0B0C05D09D
:102DE0000EE040238DF82430012308E050EA01036F
:102DF00006D030238DF824308DF825200223984604
:102E0000DDF820C08CF0080C5CEA0B0C0BD150EA0A
:102E1000010301D1630706D530238DF824304FF02C
:102E20000108A9F10109582A04D038A20B9208AA76
:102E30000A920BE03AA2F9E75B46089AFDF7C0F95F
:102E40000B9B9B5C0A9A521E0A92137050EA010275
:102E5000F2D10A98ADEB000000F1200B600702D51B
:102E600024F4803401E04FF00109D94502DDA9EBDB
:102E70000B0000E0002000EB0B0141440890AAEB9E
:102E8000010AE00306D4DDE90F232146504600F095
:102E900063F806444FF0000908E009A911F8090099
:102EA000DDE90F12904709F10109761CC145F4DBF9
:102EB000E0030CD5DDE90F232146504600F04CF825
:102EC000064404E0DDE90F1230209047761C089993
:102ED000481E08900029F5DC08E00A980A99007855
:102EE000491C0A91DDE90F129047761CBBF10001E5
:102EF000ABF1010BF1DC21465046DDE90F2300F078
:102F000019F806446D1C1BE60928010030313233E4
:102F10003435363738396162636465660000000015
:102F200030313233343536373839414243444546FF
:102F3000000000002DE9F041044600251E4617461A
:102F4000880404D405E039462020B0476D1C641E77
:102F5000F9D52846BDE8F0812DE9F0410446002569
:102F60001E469046C80301D5302700E0202788047C
:102F700004D505E041463846B0476D1C641EF9D5BE
:102F80002846BDE8F0810A68531C0B60107070473A
:102F90000000000000000000010203040607080909
:102FA000000000000102030452585F506970653050
:102FB0002041646472733A0D0A0909253032582C95
:102FC000253032582C253032582C253032582C25BB
:102FD00030325820200D0A0052585F506970653118
:102FE0002041646472733A0D0A0909253032582C65
:102FF000253032582C253032582C253032582C258B
:1030000030325820200D0A005458204164647273F5
:103010003A0D0A0909253032582C253032582C2512
:103020003032582C253032582C2530325820200D83
:103030000A0052585F5069706532204164647273AF
:103040003A0D0A090978782C78782C78782C7878D9
:103050002C2530325820200D0A0052585F506970DC
:1030600065332041646472733A0D0A090978782C3B
:1030700078782C78782C78782C2530325820200DD0
:103080000A0052585F50697065342041646472735D
:103090003A0D0A090978782C78782C78782C787889
:1030A0002C2530325820200D0A0052585F5069708C
:1030B00065352041646472733A0D0A090978782CE9
:1030C00078782C78782C78782C2530325820200D80
:1030D0000A0052585F50575F50303A0D0A090925CF
:1030E00064206279746573200D0A0052585F50574E
:1030F0005F50313A0D0A09092564206279746573BD
:10310000200D0A0052585F50575F50323A0D0A099D
:10311000092564206279746573200D0A00454E41CB
:10312000413A0D0A090950303A0925640D0A090986
:1031300050313A0925640D0A090950323A092564CB
:103140000D0A090950333A0925640D0A090950345A
:103150003A0925640D0A090950353A0925640D0A12
:1031600000454E5F5258414444523A0D0A090950F5
:10317000303A0925640D0A090950313A0925640DD0
:103180000A090950323A0925640D0A090950333AEF
:103190000925640D0A090950343A0925640D0A0904
:1031A0000950353A0925640D0A0044594E50445FD0
:1031B000706970653A0D0A090950303A0925640DA5
:1031C0000A090950313A0925640D0A090950323AB1
:1031D0000925640D0A090950333A0925640D0A09C5
:1031E0000950343A0925640D0A090950353A092570
:1031F000640D0A0052465F5057523A0D0A090930D1
:103200006442200D0A00000052465F5057523A0DAA
:103210000A09092D31326442200D0A0052465F50DE
:1032200057523A0D0A09092D366442200D0A000052
:1032300052465F5057523A0D0A09092D31386442FF
:10324000200D0A00454E5F44504C3A0D0A090945CD
:103250006E61626C6564200D0A000000454E5F419E
:10326000434B5F5041593A0D0A0909456E61626C42
:103270006564200D0A0000004352433A0D0A090913
:1032800044697361626C6564200D0A00454E5F44B9
:10329000504C3A0D0A090944697361626C656420F7
:1032A0000D0A0000454E5F41434B5F5041593A0DB6
:1032B0000A090944697361626C6564200D0A0000A3
:1032C0004352433A0D0A0909456E61626C65642CEC
:1032D00020312042797465200D0A00004352433AA0
:1032E0000D0A0909456E61626C65642C203220422A
:1032F00079746573200D0A00446174612052617411
:10330000653A0D0A0909314D627073200D0A0000FB
:103310004461746120526174653A0D0A0909324DA5
:10332000627073200D0A00000D0A2A2A2A2A2A2A0E
:103330002A2A2A2A2A2A2A2A2A2A2A2A2A2A2A2AED
:103340002A2A2A2A2A2A2A2A2A2A2A2A2A2A2A2ADD
:103350002A2A2A2A2A2A2A2A0D0A0000803300084B
:103360000000002018000000042B0008983300081B
:103370001800002080050000142B00080000000049
:10338000AA443322110000000024F40001000000D0
:08339000100000000000000025
:040000050800018965
:00000001FF
