:020000040800F2
:100000008845002061020008F91E0008B71D00089D
:10001000F51E0008A1030008492F00080000000099
:10002000000000000000000000000000A101000826
:10003000A503000800000000FD01000831290008A8
:100040007B0200087B0200087B0200087B0200089C
:100050007B0200087B0200087B0200087B0200088C
:100060007B0200087B0200087B0200087B0200087C
:100070007B0200087B0200087B0200087B0200086C
:100080007B0200087B0200087B0200087B0200085C
:100090007B0200087B0200087B0200087B0200084C
:1000A0007B020008312A00087B0200087B0200085E
:1000B0007B0200087B0200087B0200087B0200082C
:1000C0007B0200087B0200087B0200087B0200081C
:1000D0007B020008392F00087B0200087B02000821
:1000E0007B0200087B0200087B0200087B020008FC
:1000F0007B0200087B0200087B0200087B020008EC
:100100007B0200087B0200087B0200087B020008DB
:100110007B0200087B0200087B0200087B020008CB
:100120007B0200087B0200087B0200087B020008BB
:100130007B0200087B0200087B0200087B020008AB
:100140007B0200087B0200087B0200087B0200089B
:100150007B0200087B0200087B0200087B0200088B
:100160007B0200087B0200087B0200087B0200087B
:100170007B0200087B0200087B02000800000000F0
:100180007B0200087B020008DFF810D000F0F6F8D0
:10019000004800472D340008AFF300808845002058
:1001A0002C4B19680868B0E8F04F80F30988BFF35A
:1001B0006F8F4FF0000080F311887047000000003F
:1001C00008480068006880F308884FF0000080F35A
:1001D000148862B661B6BFF34F8FBFF36F8F00DF35
:1001E00000BF00BF08ED00E0DFF80C00016841F43B
:1001F00070010160704700BF88ED00E0EFF30980F7
:10020000BFF36F8F134B1A681EF0100F08BF20ED5D
:10021000108A20E9F04F106009B44FF0500080F3CD
:100220001188BFF34F8FBFF36F8F04F09DFA4FF02B
:10023000000080F3118809BC19680868B0E8F04F25
:100240001EF0100F08BFB0EC108A80F30988BFF3CE
:100250006F8F704738000020EFF305807047000073
:100260000648804706480047FEE7FEE7FEE7FEE750
:10027000FEE7FEE7FEE7FEE7FEE7FEE71D2A0008D1
:10028000890100082DE9F05F0546002092469B4653
:1002900088460646814640241BE02846414647469C
:1002A000224600F05AF853465A46C01A914110D3DC
:1002B00011461846224600F041F82D1A67EB010856
:1002C0004F4622460120002100F038F817EB0009C4
:1002D0004E41201EA4F10104DFDC484631462A4687
:1002E0004346BDE8F09F40EA01039B0703D009E0C5
:1002F00008C9121F08C0042AFAD203E011F8013B12
:1003000000F8013B521EF9D27047D2B201E000F86A
:10031000012B491EFBD270470022F6E710B51346A9
:100320000A4604461946FFF7F0FF204610BD421C5E
:1003300010F8011B0029FBD1801A7047202A04DB2A
:10034000203A00FA02F1002070479140C2F12003E8
:1003500020FA03F3194390407047202A04DB203A27
:1003600021FA02F00021704721FA02F3D040C2F1D5
:10037000200291400843194670470000064C074D83
:1003800006E0E06840F0010394E807009847103465
:10039000AC42F6D3FFF7FCFE2C4E00084C4E000892
:1003A00000BFFEE7704772B600BFFEE770B50446B7
:1003B000A56D00F081F9064694F83500022808D0B2
:1003C0008020606500BF002084F8340000BF012059
:1003D00070BD2068006820F0160021680860206861
:1003E000406920F0800021684861206C08B9A06C49
:1003F00028B12068006820F00800216808602068A3
:10040000006820F00100216808600FE000F054F956
:10041000801B05280AD92020606500BF002084F8D1
:10042000340000BF032084F83500D1E7206800685D
:1004300000F001000028E9D194F85C103F208840CA
:10044000A86000BF002084F8340000BF012084F8B9
:1004500035000020BCE7014691F83500022803D0A2
:100460008020486501207047052081F83500086824
:10047000006820F001000A6810600020F3E7000027
:1004800070B5044600F018F906462546681C10B100
:1004900004480078054400BF00F00EF9801BA84214
:1004A000FAD370BD30000020F8B502460B46002597
:1004B000002400200021DEE0012606FA01F51E6876
:1004C00006EA0504AC4275D11E7906F00306012E3A
:1004D00004D01E7906F00306022E13D190684F0057
:1004E0000326BE40B0434F00DE68BE4030439060FC
:1004F000506801268E40B0431E79C6F300168E4028
:10050000304350601E7906F00306032E09D0D068F0
:100510004F000326BE40B0434F009E68BE403043AC
:10052000D0601E7906F00306022E13D1CF0802F127
:10053000200656F827004E07F70E0F26BE40B043A0
:100540004F07FF0E1E69BE403043CF0802F1200660
:1005500046F8270010684F000326BE40B0431E79BE
:1005600006F003064F00BE40304310605E6806F0A0
:100570008056B6F1805F7DD100BF00260096404EC8
:10058000366846F480463E4F3E603E46366806F486
:100590008046009600BF00BF3A4E8F0856F82700ED
:1005A0008E07370F0F26BE40B043374EB24202D1FE
:1005B000002624E05EE0354EB24201D101261EE065
:1005C000334EB24201D1022619E0324EB24201D17D
:1005D000032614E0304EB24201D104260FE02F4E24
:1005E000B24201D105260AE02D4EB24201D10626C3
:1005F00005E02C4EB24201D1072600E008268F0705
:100600003F0FBE4030431F4E8F0846F82700264E4E
:100610003068A0435E6806F48036B6F5803F00D1AE
:100620002043214E3060361D3068A0435E6806F4DA
:100630000036B6F5003F00D120431B4E361D30601A
:10064000361D3068A0435E6806F48016B6F5801F3C
:1006500000D12043144E08363060361D3068A04368
:100660005E6806F40016B6F5001F00D120430E4E5A
:100670000C363060491C1029FFF41EAFF8BD000095
:1006800044380240083801400000024000040240A3
:1006900000080240000C024000100240001402401A
:1006A00000180240001C0240003C01400AB1816178
:1006B00001E00B0483617047014800687047000047
:1006C00028000020034800680349097808440149CC
:1006D00008607047280000203000002010B50D4849
:1006E000006840F400700B4908600846006840F458
:1006F000806008600846006840F48070086003204D
:1007000000F0C8F8002000F007F800F04BF80020D7
:1007100010BD0000003C024070B588B004460025C2
:10072000002600222146192000F076F8192000F05A
:1007300063F800BF002001901648006840F00100F7
:10074000144908600846006800F00100019000BFED
:1007500000BF02A903A800F073F900F0A9F9450051
:100760000D48B5FBF0F0461E0C480D49086040F2FC
:10077000E7310B48C160466000210161816000F0F3
:100780009BFF20B9064800F0CBFF08B070BD0120E8
:10079000FBE700004438024040420F0000000140E7
:1007A0004C04002008B500BF0020009011480068EC
:1007B00040F480400F4908600846006800F480401B
:1007C000009000BF00BF00BF00200090081F00681D
:1007D00040F08050091F08600846006800F0805013
:1007E000009000BF00BF00220F21901E00F014F8FF
:1007F00008BD00004438024001460846002809DBD5
:1008000000F01F0301229A4043099B0003F1E023FB
:10081000C3F8002100BF70472DE9F05F80460D4608
:100820001646002702F0A6FB074639462A463346FD
:1008300001F00700C0F1070ABAF1040F02D94FF026
:10084000040A01E0C0F1070AD14600F1040ABAF136
:10085000070F02D24FF0000A01E0A0F1030AD446CC
:100860004FF0010A0AFA09FAAAF1010A0AEA020A91
:100870000AFA0CFA4FF0010B0BFA0CFBABF1010B6F
:100880000BEA030B4AEA0B042146404602F07AFBCE
:10089000BDE8F09F00BF00F00702064B19684FF655
:1008A000FF031940044B0B4343EA0221014B19603B
:1008B00000BF70470CED00E00000FA0570B504467B
:1008C0000D460CB9012070BD5848006800F00700C3
:1008D000A84209D255490D700846006800F007008B
:1008E000A84201D00120EEE7207800F002000228A3
:1008F0001DD1207800F00400042805D14C48006880
:1009000040F4E0504A490860207800F008000828C8
:1009100005D14748006840F46040454908604448B4
:10092000006820F0F000A168084341490860207881
:1009300000F00100A8B36068012807D13C480838DE
:100940000068C0F34040B8B90120BCE760680228E5
:1009500002D06068032807D1354808380068C0F322
:10096000406048B90120AEE7314808380068C0F35C
:10097000400008B90120A6E72D48006820F00300D8
:10098000616808432A490860FFF796FE064609E0B9
:10099000FFF792FE801B41F28831884202D9032082
:1009A00091E707E02248006800F00C006168B0EBB6
:1009B000810FEDD11D48006800F00700A84209D959
:1009C0001A490D700846006800F00700A84201D0DF
:1009D000012078E7207800F00400042807D11448AB
:1009E000006820F4E050E16808431149086020786D
:1009F00000F00800082808D10D48006820F4604085
:100A0000216940EAC1000A49086000F061F808491C
:100A10000968C1F30311074A515CC84006490860E0
:100A200006480068FFF778FE00204CE7003C0240D3
:100A300008380240204D0008340000202C0000201F
:100A40000F2202600D4A126802F0030242600B4A54
:100A5000126802F0F0028260084A126802F4E05262
:100A6000C260064A126802F46042D2080261044A77
:100A7000126802F007020A6070470000083802405E
:100A8000003C02400148006870470000340000202C
:100A900000B5FFF7F7FF04490968C1F38221034A53
:100AA000515CC84000BD000008380240304D0008CD
:100AB00000B5FFF7E7FF04490968C1F34231034A73
:100AC000515CC84000BD000008380240304D0008AD
:100AD0002DE9F047002400250026A146254800689E
:100AE00000F00C0020B1042805D008283AD105E018
:100AF000DFF8849039E0DFF8849036E01D48001F6D
:100B0000006800F03F041B48001F006800F48000EC
:100B100078B11A481749091F0968C1F38811A0FB69
:100B200001700146224600233846FFF7ABFB05461D
:100B30000EE011480F49091F0968C1F38811A0FB95
:100B400001700146224600233846FFF79BFB05460D
:100B50000848001F0068C0F30140401C4600B5FB78
:100B6000F6F902E0DFF8109000BF00BF4846BDE88C
:100B7000F0870000083802400024F40000127A00D8
:100B8000F8B504460CB90120F8BD207800F001004A
:100B9000002874D0F948006800F00C0004280DD03B
:100BA000F648006800F00C00082813D1F348001F35
:100BB000006800F48000B0F5800F0BD1EF480838D2
:100BC0000068C0F34040002859D06068002856D122
:100BD0000120D9E700BF6068B0F5803F08D1E74841
:100BE0000838006840F48030E449083908601EE0A5
:100BF0006068B0F5A02F0DD1E0480838006840F4D7
:100C00008020DE49083908600846006840F48030DA
:100C100008600CE0D9480838006820F48030D749D3
:100C2000083908600846006820F48020086000BF8A
:100C3000606890B1FFF740FD054606E0FFF73CFD18
:100C4000401B642801D903209EE7CC48083800687F
:100C5000C0F340400028F1D011E0FFF72DFD05461C
:100C600006E0FFF729FD401B642801D903208BE72C
:100C7000C24808380068C0F340400028F1D120780D
:100C800000F0020002285FD1BC48006800F00C00B0
:100C900058B1BA48006800F00C0008281CD1B748C9
:100CA000001F006800F48000B0B9B448083800683C
:100CB000C0F3400020B1E068012801D0012063E7C3
:100CC000AE480838006820F0F800216940EAC10009
:100CD000AA490839086037E0E06800B30120A84954
:100CE0000860FFF7E9FC054606E0FFF7E5FC401B5E
:100CF000022801D9032047E7A04808380068C0F35C
:100D000040000028F1D09D480838006820F0F80025
:100D1000216940EAC10099490839086014E00020BF
:100D200097490860FFF7C8FC054606E0FFF7C4FCDA
:100D3000401B022801D9032026E7904808380068A4
:100D4000C0F340000028F1D1207800F00800082806
:100D50002CD16069A8B101208A490860FFF7ACFC7A
:100D6000054606E0FFF7A8FC401B022801D9032036
:100D70000AE782486C300068C0F340000028F1D0D8
:100D800014E000207F490860FFF796FC054606E066
:100D9000FFF792FC401B022801D90320F4E67748B4
:100DA0006C300068C0F340000028F1D1207800F0DA
:100DB0000400042870D1002770483830006800F023
:100DC000805090B900BF002000906C483830006817
:100DD00040F080506949383108600846006800F0EA
:100DE0008050009000BF00BF01276748006800F4F2
:100DF0008070B0B96448006840F48070624908604F
:100E0000FFF75AFC054606E0FFF756FC401B022898
:100E100001D90320B8E65C48006800F4807000281F
:100E2000F2D000BFA068012808D15448683000689B
:100E300040F001005149683108601DE0A0680528B4
:100E40000DD14E486830006840F004004B496831CD
:100E500008600846006840F0010008600CE0474860
:100E60006830006820F00100444968310860084695
:100E7000006820F00400086000BFA068A8B1FFF778
:100E80001BFC054609E0FFF717FC401B41F28831C7
:100E9000884202D9032077E626E0384868300068A7
:100EA000C0F340000028EED013E0FFF705FC054634
:100EB00008E0FFF701FC401B41F28831884201D96C
:100EC000032061E62D4868300068C0F34000002828
:100ED000EFD1012F07D129483830006820F0805029
:100EE00026493831086000BFA069002845D0234852
:100EF000006800F00C0008285DD0A069022845D1E8
:100F000000201F490866FFF7D7FB054606E0FFF7FC
:100F1000D3FB401B022801D9032035E617480838C7
:100F20000068C0F340600028F1D1D4E9070108430C
:100F3000616A40EA81110122A06AC2EB500041EAD5
:100F400000412C20005D41EA00600C49091F086047
:100F500001200B490866FFF7AFFB054606E0FFF7E7
:100F6000ABFB401B022801D903200DE603480838DB
:100F70000068C0F340600028F1D049E00838024022
:100F800000004742800E4742007000400020214987
:100F90000866FFF791FB054606E0FFF78DFB401B57
:100FA000022801D90320EFE51B480068C0F3406028
:100FB0000028F2D12CE0A069012800D1E4E5164810
:100FC000001D0668A069012820D006F48001E069B0
:100FD00081421BD106F03F01206A814216D147F6BB
:100FE000C0703040616AB0EB811F0FD106F4403110
:100FF0000122A06AC2EB5000B1EB004F06D106F00F
:1010000070612C20005DB1EB006F01D00120BBE5C9
:101010000020B9E5000047420038024010B5044600
:101020000CB9012010BD606A38B96068B0F5827FE4
:1010300000D105E00021E16102E000212161616150
:101040000021A16294F8510028B9002084F85000D2
:10105000204600F047F8022084F85100206800681C
:1010600020F0400021680860A08800F48270218987
:1010700001F404410843A18901F400610843217C83
:1010800001F002010843217D01F001010843218B99
:1010900001F400710843217F01F038010843202149
:1010A000095D01F080010843218D01F400510843DE
:1010B000216808600421A06901EA104094F8241016
:1010C00001F010010843216848602068C06920F4DD
:1010D00000602168C86100206065012084F851002B
:1010E00000209FE710B586B00446142101A8FFF741
:1010F00013F91B49206888422FD100BF00200090BF
:101100001848006840F40040164908600846006826
:1011100000F40040009000BF00BF00BF002000901E
:1011200010481038006840F002000E49103908607D
:101130000846006800F00200009000BF00BF3820A1
:1011400001900220029000200390032004900620CA
:10115000059001A90448FFF7A7F906B010BD0000EB
:10116000003C004040380240000402402DE9F843B2
:101170000446884616461D464FF000096068B0F5E3
:10118000827F0DD1A06858B9042084F851003346FD
:10119000424641462046009500F077F9BDE8F883C5
:1011A00000BF94F85000012801D10220F6E7012089
:1011B00084F8500000BFFFF77FFA074694F851000B
:1011C000012802D04FF002097EE0B8F1000F00D0F4
:1011D00016B94FF0010977E0042084F8510000208F
:1011E0006065C4F83880A687E6872063A086E0861D
:1011F00020646064A068B0F5004F0BD120680068DF
:1012000020F04000216808602068006820F48040D9
:10121000216808602068006800F04000402805D080
:101220002068006840F0400021680860E068F8B974
:101230001AE02068806800F0010050B12068007B4F
:10124000A16B0870A06B401CA063E08F401EE0877C
:101250000AE0FFF731FAC01BA84201D3681C00B9AD
:1012600015B94FF003092FE0E08F0028E1D11EE00F
:101270001AE02068806800F0010050B12068C06862
:10128000A16B0880A06B801CA063E08F401EE087EC
:101290000AE0FFF711FAC01BA84201D3681C00B98D
:1012A00015B94FF003090FE0E08F0028E1D13A466D
:1012B0002946204601F068F908B120206065606D7C
:1012C00008B14FF0010900BF012084F8510000BFB0
:1012D000002084F8500000BF48465FE72DE9F84F32
:1012E0000446884616461D464FF0000A00BF94F893
:1012F0005000012802D10220BDE8F88F012084F8B7
:10130000500000BFFFF7D8F90746B14694F85100E6
:10131000012802D04FF0020AADE0B8F1000F00D072
:1013200016B94FF0010AA6E0032084F8510000200E
:101330006065C4F83080A686E686A063A087E08753
:1013400060642064A068B0F5004F0BD1206800688D
:1013500020F04000216808602068006840F4804068
:10136000216808602068006800F04000402805D02F
:101370002068006840F0400021680860E068B0F52F
:10138000006F2FD1606810B1B9F1010F09D1206B46
:1013900000882168C860206B801C2063E08E401E9E
:1013A000E0861BE02068806800F0020002280AD175
:1013B000206B00882168C860206B801C2063E08E51
:1013C000401EE0860AE0FFF777F9C01BA84201D370
:1013D000681C00B915B94FF0030A4CE0E08E0028F4
:1013E000E0D12EE0606810B1B9F1010F09D1206B96
:1013F000007821680873206B401C2063E08E401E3B
:10140000E0861BE02068806800F0020002280AD114
:10141000206B007821680873206B401C2063E08EED
:10142000401EE0860AE0FFF747F9C01BA84201D33F
:10143000681C00B915B94FF0030A1CE0E08E0028C3
:10144000E0D13A462946204601F0E8F808B12020CC
:101450006065A06850B900BF002000902068C06897
:10146000009020688068009000BF00BF606D08B1E8
:101470004FF0010A00BF012084F8510000BF002096
:1014800084F8500000BF504636E72DE9FF5F044660
:10149000884691461D460E9E012002900020019034
:1014A00000BF94F85000012803D1022004B0BDE829
:1014B000F09F012084F8500000BFFFF7FDF80746B9
:1014C00094F851B060680390AA46BBF1010F0BD0AD
:1014D0000398B0F5827F04D1A06810B9BBF1040F66
:1014E00002D002200190DBE0B8F1000F03D0B9F187
:1014F000000F00D015B901200190D1E094F85100FF
:10150000042802D0052084F8510000206065C4F84A
:101510003890E587A587C4F83080E586A5862064E5
:1015200060642068006800F04000402805D0206812
:10153000006840F0400021680860E068B0F5006F86
:101540004AD1606810B1BAF1010F09D1206B00884F
:101550002168C860206B801C2063E08E401EE086FE
:1015600033E02068806800F00200022810D1E08E8D
:1015700070B1029801280BD1206B00882168C860E7
:10158000206B801C2063E08E401EE08600200290CD
:101590002068806800F0010068B1E08F58B12068D1
:1015A000C068A16B0880A06B801CA063E08F401E08
:1015B000E08701200290FFF77FF8C01BB04204D300
:1015C000701C10B1032001906AE0E08E0028C8D1A1
:1015D000E08F0028C5D14AE0606810B1BAF1010F70
:1015E00009D1206B007821680873206B401C2063B0
:1015F000E08E401EE08634E02068806800F0020043
:10160000022810D1E08E70B1029801280BD1206B16
:10161000007821680873206B401C2063E08E401E18
:10162000E086002002902068806800F0010068B128
:10163000E08F58B12068C068A16B0870A06B401C97
:10164000A063E08F401EE08701200290FFF734F88E
:10165000C01BB04201D3701C00B916B90320019021
:101660001EE0E08E0028C7D1E08F0028C4D13A46A2
:101670003146204600F0D2FF20B101200190202009
:1016800060650DE0A06850B900BF002000902068A0
:10169000C068009020688068009000BF00BF00BF55
:1016A000012084F8510000BF002084F8500000BFE2
:1016B0000198FBE67047704710B504460CB901204D
:1016C00010BD94F83D0028B9002084F83C00204665
:1016D00000F025F8022084F83D00211D206801F06B
:1016E000AFF9012084F8460000BF84F83E000121D4
:1016F0003F200155402001554120015500BF00BF4A
:10170000012084F842004320015544200155452022
:10171000015500BF012084F83D000020D0E770474C
:10172000014691F83D00012801D0012070470220B8
:1017300081F83D000868C06840F001000B68D8607F
:101740001A4B086898421BD00868B0F1804F17D038
:10175000174B0868984213D0164B086898420FD070
:10176000154B086898420BD0144B0868984207D074
:10177000134B0868984203D0124B086898420CD16A
:101780000868806800F00702062A0CD00868006824
:1017900040F001000B68186005E00868006840F040
:1017A00001000B6818600020C0E700000000014045
:1017B0000004004000080040000C0040000401400C
:1017C0000040014000180040704710B504462068F2
:1017D0000069C0F34000D8B12068C068C0F3400081
:1017E000B0B16FF002002168086101202077206805
:1017F000806900F0030018B12046FFF7E5FF05E01F
:10180000204600F0ADF8204600F0ABF8002020772D
:1018100020680069C0F38000D8B12068C068C0F3B8
:101820008000B0B16FF004002168086102202077C9
:101830002068806900F4407018B12046FFF7C4FFAB
:1018400005E0204600F08CF8204600F08AF80020E1
:10185000207720680069C0F3C000D8B12068C06854
:10186000C0F3C000B0B16FF0080021680861042027
:1018700020772068C06900F0030018B12046FFF708
:10188000A3FF05E0204600F06BF8204600F069F861
:101890000020207720680069C0F30010D8B12068CC
:1018A000C068C0F30010B0B16FF01000216808618B
:1018B000082020772068C06900F4407018B12046E5
:1018C000FFF782FF05E0204600F04AF8204600F0CE
:1018D00048F8002020772068006900F0010058B126
:1018E0002068C06800F0010030B16FF0010021688D
:1018F0000861204600F036F820680069C0F3C01087
:1019000058B12068C068C0F3C01030B16FF08000DB
:10191000216808612046FFF7CDFE20680069C0F30A
:10192000801058B12068C068C0F3801030B16FF0EB
:10193000400021680861204600F020F82068006916
:10194000C0F3401058B12068C068C0F3401030B1F7
:101950006FF02000216808612046FFF7ACFE10BD43
:101960007047704710B5044603492068884201D18A
:10197000FEF7A8FE10BD0000000001407047704750
:10198000704700002DE9F84F04462068056820687C
:10199000C668206847694FF00009CA4605F00F097C
:1019A000B9F1000F0AD105F0200038B106F020008F
:1019B00020B1204601F0E5F8BDE8F88FB9F1000F3D
:1019C00072D007F0010018B906F4907000286BD0AF
:1019D00005F0010030B106F4807018B1206C40F0C1
:1019E0000100206405F0040030B107F0010018B1D7
:1019F000206C40F00200206405F0020030B107F0D6
:101A0000010018B1206C40F00400206405F00800CB
:101A100048B106F0200010B907F0010018B1206CA1
:101A200040F008002064206C70B305F0200028B15D
:101A300006F0200010B1204601F0A3F820684069AC
:101A4000C0F3801A206C00F0080010B9BAF1000F42
:101A500023D0204601F06AF82068406900F0400079
:101A6000402816D12068406920F040002168486174
:101A7000A06B50B15648A16B0865A06BFEF7EBFC5C
:101A800010B1A06B016D88470CE02046FFF778FF8E
:101A900008E02046FFF774FF04E02046FFF770FFE0
:101AA0000020206488E7FFE7206B012879D105F04A
:101AB0001000002875D006F01000002871D000BF7B
:101AC0000020009020680068009020684068009026
:101AD00000BF00BF2068406900F04000402839D1B5
:101AE000A06B006840681FFA80F8B8F1000F30D092
:101AF000A08D40452DDDA4F82E80A06BC069B0F507
:101B0000807F1FD02068C06820F480702168C86082
:101B10002068406920F00100216848612068406920
:101B200020F0400021684861202084F83E00002019
:101B300020632068C06820F010002168C860A06B96
:101B4000FEF734FCA08DE28D801A81B22046FFF7AB
:101B500016FF31E7A08DE18D401A1FFA80F8E08D65
:101B6000E8B1B8F1000F1AD02068C06820F4907076
:101B70002168C8602068406920F001002168486140
:101B8000202084F83E00002020632068C06820F0F8
:101B900010002168C86041462046FFF7F0FE0BE7C1
:101BA000FFE705F0800030B106F0800018B1204654
:101BB00001F05CF900E705F0400030B106F04000AC
:101BC00018B1204600F0CDFFF6E600BFF4E60000B5
:101BD000192B000810B504460CB9012010BDA069EE
:101BE00000B100E000BF94F83D0028B9002084F85F
:101BF0003C00204600F028F8242084F83D002068AE
:101C0000C06820F400502168C860204601F018F830
:101C10002068006920F490402168086120684069CC
:101C200020F02A00216848612068C06840F4005014
:101C30002168C86000202064202084F83D0084F8DA
:101C40003E000020CAE7000010B586B0044614210B
:101C500001A8FEF761FB1F492068884238D100BF08
:101C6000002000901C48006840F010001A490860ED
:101C70000846006800F01000009000BF00BF00BFE1
:101C80000020009014481438006840F00100124908
:101C9000143908600846006800F00100009000BF99
:101CA00000BF4FF4C060019002200290002003901A
:101CB000032004900720059001A90848FEF7F4FBD3
:101CC000002205212520FEF7A7FD2520FEF794FD23
:101CD00006B010BD00100140443802400000024030
:101CE00070472DE9F84F04460E46174699464FF0C7
:101CF000000A94F83D0020285AD106B117B90120F6
:101D0000BDE8F88F00BF94F83C00012801D1022003
:101D1000F6E7012084F83C0000BF00202064212069
:101D200084F83D00FEF7C8FC8246A784E784A068DB
:101D3000B0F5805F04D1206910B90025B04602E0FB
:101D400035464FF0000800BF002084F83C0000BF7B
:101D50001BE05346002280212046CDF8009001F080
:101D6000B5F808B10320CBE745B9B8F80000C0F3D7
:101D700008002168486008F1020803E0287821681B
:101D800048606D1CE08C401EE084E08C0028E0D1AF
:101D90005346002240212046CDF8009001F096F8ED
:101DA00008B10320ACE7202084F83D000020A7E71D
:101DB0000220A5E7704700BFFEE7000000B587B02E
:101DC000142102A8FEF7A8FA00BF002001902748BE
:101DD000006840F08000254908600846006800F06F
:101DE0008000019000BF00BF00BF002001900846A6
:101DF000006840F0010008600846006800F001003B
:101E0000019000BF00BF00BF00200190084600689D
:101E100040F0020008600846006800F002000190EF
:101E200000BF00BF0122C0211148FEF73FFC012284
:101E3000C0211048FEF73AFCC02002900120039018
:101E4000002004900320059002A90948FEF72CFB0E
:101E5000C0200290012003900020049003200590F0
:101E600002A90448FEF720FB07B000BD303802404D
:101E7000000002400004024010B50E480E49086000
:101E80004FF48270486000210B488160C16001619D
:101E900041614FF4007181612021C1610021016223
:101EA000416281620A21C162FFF7B8F808B1FEF70A
:101EB0007AFA10BD003C00403C01002010B50B48F0
:101EC0000B4908604FF4E130486000210848816008
:101ED000C16001610C21416100218161C161FFF795
:101EE00079FE08B1FEF75FFA10BD00000010014056
:101EF0009401002000BFFEE700BFFEE708B5002008
:101F000000F02AF950208DF8000073208DF80100B0
:101F10006423022269460348FFF7E0F9012000F03C
:101F20001BF908BDA00000200146074A1268074BB4
:101F3000B2FBF3F20323B2FBF3F2514300BF0A1EDC
:101F4000A1F10101FBD170473400002040420F0095
:101F500010B5002000F001F810BD70B5044600F087
:101F60003FF90546C5F3801676B114B1C5F34200BA
:101F700020704021072000F0D1FA05F0200018B1B0
:101F80002021072000F0CAFA304670BD0FB47CB59E
:101F900006460C461546582209A95F48FEF7A3F9E4
:101FA0005E4806605E4804805E480580012000F0BF
:101FB000D3F8002000F0B8F80520FEF761FA0821F8
:101FC000002000F0ABFA3F21012000F0A7FA032126
:101FD000022000F0A3FA0321084600F09FFA032133
:101FE000042000F09BFA0221052000F097FA0F214F
:101FF000062000F093FA0E21072000F08FFA00214E
:10200000082000F08BFA0021092000F087FAE72071
:102010008DF804008DF803008DF802008DF80100A2
:102020008DF80000052269460A2000F08FFAC220D0
:102030008DF804008DF803008DF802008DF8010082
:102040008DF80000052269460B2000F07FFAC321BD
:102050000C2000F063FAC4210D2000F05FFAC521C6
:102060000E2000F05BFAC6210F2000F057FAE7209F
:102070008DF804008DF803008DF802008DF8010042
:102080008DF8000005226946102000F05FFA00215B
:10209000112000F043FA0021122000F03FFA002145
:1020A000132000F03BFA0021142000F037FA002141
:1020B000152000F033FA0021162000F02FFAFFF768
:1020C0001DFF00211C2000F029FA00211D2000F036
:1020D00025FA01F02BFA0F21084600F0D3F903206E
:1020E00000F0A2F9012000F06FF9022000F049F998
:1020F00000F04AF8202000F0B9F900F02FF94C2048
:1021000000F055F900F05AF800F052F800F0A4F889
:102110007CBC5DF814FB0000A00000201000002033
:10212000140000201600002010B504463CB1012226
:102130000748018807480068FEF7B8FA06E0002261
:102140000348018803480068FEF7B0FA10BD00009C
:10215000160000201000002010B504463CB10122FA
:102160000748018807480068FEF7A0FA06E0002249
:102170000348018803480068FEF798FA10BD000084
:10218000140000201000002010B51D2000F0A8F859
:1021900020F0040421461D2000F0C0F900211C207D
:1021A00000F0BCF900200149087010BD0B000020B0
:1021B00010B5FF21E22000F0B1F910BD10B5FF21EC
:1021C000E12000F0ABF910BD10B5602000F088F8F8
:1021D00010BD000001480078704700000A00002090
:1021E00010B5072000F07CF80446204610BD000022
:1021F0007FB5044624B9144ADDE90210C2E9001093
:10220000062C1FDC022C06DA1049085D052202A903
:1022100000F09CF905E00D49085D012202A900F0DB
:1022200095F90B49085D0B49097800F077F9022010
:1022300000F056F80121A1400843C5B2294602200A
:1022400000F06CF97FBD000000000020C84C0008C1
:10225000CF4C00080A00002010B5002000F040F824
:1022600020F002042146002000F058F910BD70B59E
:1022700004460D462946204600F00EF8172000F0CF
:102280002FF800F00106FFF793FFFFF79DFF0EB157
:10229000012070BD0020FCE7F8B504460D46FFF7AD
:1022A00099FFA84201DD284601E0FFF793FF0646AB
:1022B0000020FFF751FF612000906423012269464E
:1022C0000648FFF70BF86423324621460348FEF721
:1022D0004DFF0120FFF740FFF8BD0000A0000020E7
:1022E00038B504460020FFF737FF04F01F008DF8D3
:1022F00000006423012269460848FEF7EFFF6423CB
:1023000001220DF101010548FEF730FF9DF8015053
:102310000120FFF721FF284638BD0000A000002063
:10232000F8B504460D4616460020FFF715FF04F0E9
:102330001F008DF800006423012269460648FEF75D
:10234000CDFF6423324629460348FEF70FFF0120E4
:10235000FFF702FFF8BD0000A000002010B57021BB
:10236000072000F0DBF810BD10B5044624B13F2172
:10237000012000F0D3F803E00021012000F0CEF8A6
:1023800010BD70B505460020FFF7AAFF20F00C0431
:1023900045B1012D02D144F0080403E044F00804E3
:1023A00044F004042146002000F0B8F870BD70B578
:1023B00004467F257F2C01DA204600E07F2001467D
:1023C000052000F0ABF870BD70B50546002606206C
:1023D000FFF786FF044600201249087024F0280405
:1023E000022D03D1087044F020040AE0012D05D12C
:1023F00001200C49087044F0080402E0002009495B
:1024000008702146062000F089F80620FFF768FFD3
:10241000A04201D1012602E00020024908703046A6
:1024200070BD00000D00002070B504460620FFF7C7
:1024300057FF054625F00605032C02D145F0060599
:102440000EE0022C02D145F0040509E0012C02D176
:1024500045F0020504E01CB1042C01D145F006054D
:102460002946062000F05AF870BD000020212028DF
:1024700001DA024600E02022014B1A70704700008A
:102480000A00002070B504460D4604F00F022846ED
:1024900062F31F100146042000F040F870BD0000F8
:1024A00010B50020FFF71CFF40F003042146002078
:1024B00000F034F80B48D0E9001000235940584090
:1024C000014304D0052207490A2000F03FF8FFF736
:1024D00075FEFFF76DFE0120FFF726FE9620FFF741
:1024E00023FD10BD0000002038B504460D46002035
:1024F000FFF732FEA02000906423012269460648BF
:10250000FEF7ECFE64232A4621460348FEF7E6FE6A
:102510000120FFF721FE38BDA000002038B5054698
:102520000C460020FFF718FE45F020008DF8000053
:102530008DF801406423022269460348FEF7CEFE6F
:102540000120FFF709FE38BDA0000020F8B50446C1
:102550000D4616460020FFF7FFFD44F020008DF8E1
:1025600000006423012269460648FEF7B7FE642393
:10257000324629460348FEF7B1FE0120FFF7ECFD85
:10258000F8BD0000A0000020F8B504460E46154630
:102590006068B0F5827F0DD1A068B0F5004F03D020
:1025A000A068B0F5806F05D12068006820F0400079
:1025B000216808606068B0F5827F1FD1A068B0F51F
:1025C000806F0DD03346002280212046009500F018
:1025D0005BF808B3606D40F0200060650320F8BD33
:1025E0003346002201212046009500F04DF898B1B5
:1025F000606D40F0200060650320F0E73346002264
:1026000001212046009500F03FF828B1606D40F0B0
:10261000200060650320E2E70020E0E77CB5044687
:102620000D461646164800681821B0FBF1F0154912
:10263000B0FBF1F04FF47A71484301906068B0F557
:10264000827F0DD12B46002280212046009600F08B
:102650001BF898B1606D40F02000606503207CBDE0
:1026600000BF019800B908E00198401E0190206861
:102670008068C0F3C0100028F3D100BF0020EEE74F
:102680003400002040420F002DE9F84F04460D466B
:1026900090461E46DDF82890FEF70EF8A0EB0900E4
:1026A000371AFEF709F882462C480068C0F3CB3091
:1026B0007843009045E0701C002842D0FDF7FCFFF5
:1026C000A0EB0A00B84200D2A7BB2068406820F007
:1026D000E000216848606068B0F5827F0DD1A06895
:1026E000B0F5004F03D0A068B0F5806F05D1206829
:1026F000006820F0400021680860A06AB0F5005F23
:102700000DD100BF2068006820F4005021680860E7
:102710002068006840F400502168086000BF012074
:1027200084F8510000BF002084F8500000BF03204F
:10273000BDE8F88FFFE7009800B900270098401E19
:102740000090206880682840A84201D1012000E064
:1027500000204045AFD10020EAE70000340000200F
:1027600000BFFEE7ACB036225F4916A8FDF7BBFDFF
:102770005D48C08EADF88E005B48816B2491808FE0
:10278000ADF894005848C08FADF896001122564914
:10279000403126A8FDF7A7FD534890F851008DF869
:1027A000A9005148406D2B90542217A96846FDF7A7
:1027B0009AFD402280214D48169BFFF7E7FB262219
:1027C0004B491BA8FDF78FFD4948C08CADF892001E
:1027D0004748816A2591808DADF898004448C08DA6
:1027E000ADF89A004248006B2790092240493431E5
:1027F00028A8FDF778FD3E4890F83D008DF8A90027
:102800003B4890F83E008DF8AA003948006C2B90A8
:1028100034221FA96846FDF766FD1BA80FC800F00B
:1028200039FE00F083FE0120FFF79EFD3420FFF704
:10283000BEFD2020FFF71AFE0120FFF7C5FD2D4841
:102840000CC80120FFF7D4FCFFF72AFE00BFFFF7FA
:102850007FFB002843D020212748FFF708FD2648AA
:10286000FDF765FD84B20A23224623492048FFF77D
:1028700038FA21480078302809D1012240211F4828
:10288000FDF714FF0A211EA0FFF72EFE0CE01A48E8
:102890000078312808D1002240211848FDF706FFB2
:1028A0000B211AA0FFF720FE13484078302809D1E9
:1028B000012280211148FDF7F9FE0A2116A0FFF739
:1028C00013FE0CE00C484078312808D1002280210A
:1028D0000A48FDF7EBFE0B2112A0FFF705FE3220A0
:1028E00000F0E4FDB3E700003C01002000040240DA
:1028F0009401002020000020D801002000000240A8
:102900004C65642036206F6E0D0A00004C65642013
:1029100036206F66660D0A004C65642037206F6EA6
:102920000D0A00004C65642037206F66660D0A00B2
:1029300010B500BF502080F31188BFF34F8FBFF355
:102940006F8F00BF02F09AF818B14FF08050044921
:10295000086000BF002080F3118800BF10BD000098
:1029600004ED00E000B593B0302107A8FDF7D4FCDA
:10297000142102A8FDF7D0FC00BF002001902548DB
:10298000006840F08050234908600846006800F065
:102990008050019000BF00BF00BF002001901E4882
:1029A000006840F480401C4908600846006800F454
:1029B0008040019000BF00BF0220079001200A90D4
:1029C00010200B9002200D9000210E9108210F91F4
:1029D000A8211091022111910421129107A8FEF75C
:1029E000CFF808B1FDF7DFFC0F2002900220039022
:1029F000002004904FF4A05005904FF480500690B2
:102A0000052102A8FDF75AFF08B1FDF7CCFC13B071
:102A100000BD0000403802400070004003480068DC
:102A200040F47000014908607047000088ED00E044
:102A300010B50248FEF7C9FE10BD00004C0400208E
:102A400010B50268294B98420ED0B0F1804F0BD0E0
:102A5000274B984208D0274B984205D0264B9842E6
:102A600002D0264B984203D122F070024B681A43E1
:102A70001E4B984220D0B0F1804F1DD01C4B984285
:102A80001AD01C4B984217D01B4B984214D01B4BAA
:102A9000984211D01A4B98420ED01A4B98420BD044
:102AA000194B984208D0194B984205D0184B9842C0
:102AB00002D0184B984203D122F44072CB681A43DB
:102AC00022F080034C6943EA040202608B68C3620F
:102AD0000B688362054B984202D0084B984201D1A3
:102AE0000B6903630123436110BD00000000014036
:102AF0000004004000080040000C004000040140B9
:102B000000400140004401400048014000180040DE
:102B1000001C00400020004070B50546AC6B002052
:102B2000E085E0842046FEF72BFF70BD0168C96890
:102B300021F490710268D1600168496921F00101B6
:102B400002685161016B012905D10168C96821F052
:102B500010010268D160202180F83E10002101633D
:102B6000704710B504462068C06820F04000216816
:102B7000C860202084F83D002046FFF71BF90020A4
:102B800010BD70B5044694F83E00222856D1A068C6
:102B9000B0F5805F0CD1206950B90025A66A206885
:102BA0004068C0F308003080A06A801CA06215E075
:102BB000A56A0026A068B0F5805F03D0A06828B998
:102BC000206918B920684068287004E020684068CF
:102BD00000F07F002870A06A401CA062E08D401EBB
:102BE00080B2E08540BB2068C06820F020002168EA
:102BF000C8602068C06820F480702168C8602068C0
:102C0000406920F0010021684861202084F83E00DE
:102C1000206B01280AD12068C06820F010002168CC
:102C2000C860A18D2046FEF7AAFE02E02046FFF70D
:102C300057F80020206370BD0020FCE70220FAE76F
:102C40002DE9F84F04462068006920F44050E168FF
:102C50000843216808612169A06808436169084345
:102C6000E169084300902068C06849F20C6188431C
:102C7000009908432168C8602068406920F44070CA
:102C8000A16908432168486176492068884203D0D9
:102C900075492068884203D1FDF70AFF814602E0AA
:102CA000FDF7F6FE8146E069B0F5004F6CD10220D9
:102CB0006168A0FB015003461920A9FB0070014682
:102CC0002A463846FDF7DEFA6421B0FBF1F04FEA00
:102CD000001A02206168A0FB01510B461920A9FBD4
:102CE00000712A463846FDF7CDFA83460220616816
:102CF000A0FB015003461920A9FB00712A46384663
:102D0000FDF7C0FA6421B0FBF1F000EBC00101EB6C
:102D10000010ABEB8000322101EBC0006421B0FB5E
:102D2000F1F000F0F8000AEB400A02206168A0FB15
:102D3000015003461920A9FB007001462A46384677
:102D4000FDF7A0FA834602206168A0FB015003460C
:102D50001920A9FB00712A463846FDF793FA642131
:102D6000B0FBF1F000EBC00101EB0010ABEB800019
:102D7000322101EBC0006421B0FBF1F000F007004C
:102D80005044216888606AE004206168A0FB01501B
:102D900003461920A9FB007001462A463846FDF774
:102DA00071FA824604206168A0FB01500346192095
:102DB000A9FB007001462A463846FDF763FA6421F4
:102DC000B0FBF1F000EBC00101EB0010AAEB8000BA
:102DD000322101EB00106421B0FBF1F000F0F00AA9
:102DE00004206168A0FB017003461920A9FB005173
:102DF0003A462846FDF746FA6421B0FBF1F00AEBAB
:102E0000001A04206168A0FB01510B461920A9FBA0
:102E100000712A463846FDF735FA8346042061687A
:102E2000A0FB015003461920A9FB007001462A4669
:102E30003846FDF727FA6421B0FBF1F000EBC00142
:102E400001EB0010ABEB8000322101EB001064219C
:102E5000B0FBF1F000F00F00504421688860BDE83D
:102E6000F88F00000010014000140140014691F865
:102E70003D00212828D18868B0F5805F0BD1086912
:102E800048B90A6A1088C0F308000B685860086ADD
:102E9000801C086205E00B6A581C086218780B68F1
:102EA0005860C88C401E80B2C88458B90868C06891
:102EB00020F080000B68D8600868C06840F04000CF
:102EC0000B68D860002070470220FCE72DE9F04134
:102ED00004460D4617469846069E21E0701CF8B140
:102EE0002EB1FDF7E9FBA0EB0800B04218D920682D
:102EF000C06820F4D0702168C8602068406920F064
:102F0000010021684861202084F83D0084F83E00DB
:102F100000BF002084F83C0000BF0320BDE8F08122
:102F2000206800682840A84201D1012000E000206C
:102F3000B842D3D00020F1E710B50248FEF722FDD9
:102F400010BD00009401002000BFFEE70FB4084B45
:102F500010B504A902AA039800F038F8044602A9A3
:102F6000002000F05EFA204610BC5DF814FB000063
:102F70002334000802480068C0F3022070470000B4
:102F80000CED00E010B5002804DB0A07130E054A1B
:102F9000135406E00A07140E034A00F00F031B1F28
:102FA000D45410BD00E400E018ED00E002E008C8D1
:102FB000121F08C1002AFAD170477047002001E0B3
:102FC00001C1121F002AFBD1704700002DE9FF4FFD
:102FD0008DB00F460546002606E025280BD0DDE91A
:102FE0000F1290476D1C761C28780028F5D111B07F
:102FF0003046BDE8F08F0024A246A1460122E949EF
:1030000000E0044315F8013F203B02FA03F00842B8
:10301000F7D128782A2810D06FF02F022878A0F155
:103020003001092914D80AEB8A0102EB410144F06E
:10303000020400EB010A6D1CF0E701CF5FEA000A11
:1030400003D544F40054CAF1000A44F002046D1C94
:1030500028782E2817D115F8010F44F004042A28E7
:103060000ED06FF02F022878A0F1300109290AD87C
:1030700009EB890102EB410100EB01096D1CF2E74C
:1030800057F8049B6D1C28786C280FD006DC4C2860
:1030900017D068280DD06A2814D104E0742810D005
:1030A0007A280FD10DE044F400140AE044F48014AF
:1030B00001E044F440146978814202D104F580149F
:1030C0006D1C6D1C28786E281ED00CDC632830D057
:1030D00004DC00288BD0582811D19FE0642867D0E9
:1030E00069280CD164E073282DD004DC6F2872D0DD
:1030F000702804D194E075286ED078286DD0DDE971
:103100000F129047761C4BE1C4F30250022806D000
:10311000032809D0042801CF09D0066040E101CF7F
:10312000F117C0E900613BE101CF068038E106708C
:1031300036E117F8040B8DF8000000208DF801002F
:10314000EB46012003E057F804BB4FF0FF30610766
:103150004FF0000102D40DE008F101018846494515
:103160000FDA8045F8DB1BF808100029F4D108E0DD
:1031700008F1010188468142FADB1BF8081000299A
:10318000F6D1DDE90F23AAEB08008146214600F0C5
:1031900031F9304400EB080604E0DDE90F121BF8BA
:1031A000010B9047B8F10108F7D221464846F2E0FA
:1031B0000A21C4F302524FF0000B0891022A04D0F6
:1031C00001CFC117032A09D00AE0FF1D27F0070726
:1031D000F7E8020108E02CE01EE01FE000B2C11792
:1031E000042A01D140B2C117021E71F1000206DAB1
:1031F0000023D0EB030063EB01012D2202E0220546
:1032000004D52B228DF82420012203E0E20701D00F
:103210002022F7E7904653E00A210BE0102109E055
:1032200010214FF0000B44F004044FF008090891FE
:1032300003E008214FF0000B0891C4F30252022A68
:1032400004D001CF0021032A06D006E0FF1D27F09D
:103250000707F7E8020103E080B2042A00D1C0B2F8
:103260004FF0000822072BD52A78702A07D0DDF806
:1032700020C08CF0100C5CEA0B0C05D00EE0402254
:103280008DF82420012208E050EA010306D0302303
:103290008DF824308DF8252002229046089B83F07B
:1032A000080353EA0B030BD150EA010201D1620774
:1032B00006D530228DF824204FF00108A9F101092C
:1032C0002A78582A04D038A20B9208AA0A920BE056
:1032D0003AA2F9E75B46089AFCF7D4FF0B9B9B5C8C
:1032E0000A9A521E0A92137050EA0102F2D10A9809
:1032F000ADEB000000F1200B600702D524F4803410
:1033000001E04FF00109D94502DDA9EB0B0000E017
:10331000002000EB0B0141440890AAEB010AE003F6
:1033200006D4DDE90F232146504600F063F8064439
:103330004FF0000908E009A911F80900DDE90F12B2
:10334000904709F10109761CC145F4DBE0030CD577
:10335000DDE90F232146504600F04CF8064404E016
:10336000DDE90F1230209047761C0899481E08901E
:103370000029F5DC08E00A980A990078491C0A91AE
:10338000DDE90F129047761CBBF10001ABF1010B98
:10339000F1DC21465046DDE90F2300F019F8064420
:1033A0006D1C21E6092801003031323334353637BF
:1033B0003839616263646566000000003031323381
:1033C0003435363738394142434445460000000021
:1033D0002DE9F041044600251E461746880404D412
:1033E00005E039462020B0476D1C641EF9D52846FB
:1033F000BDE8F0812DE9F041044600251E469046C7
:10340000C80301D5302700E02027880404D505E053
:1034100041463846B0476D1C641EF9D52846BDE8C4
:10342000F0810A68531C0B60107070478EB0FDF776
:1034300055F9FFF797FAFEF7C1FCFEF71DFDFEF701
:103440003DFD1C220C4907A8FCF74DFF002107A8F1
:1034500000F03DF8094908601C2207491C31684604
:10346000FCF741FF0021684600F031F8044908608C
:1034700000F028F800BFFEE7E84C00081800002024
:103480001C00002001460020842901D0CA1C1044E1
:10349000704700000FB410B5442202A90248FCF79F
:1034A00022FF10BC5DF814FBF800002070B5044644
:1034B00025460DB1294600E00121084601F0C6F875
:1034C000002070BD10B501F0EFF8002010BD7FB5F1
:1034D00004460D46606998B1A06988B1B4F9080046
:1034E000FFF7D0FF0646D4E90510CDE90061029050
:1034F0002B462269D4E9001001F062FA039013E030
:10350000B4F90800FFF7BEFF064603A8CDE9006046
:10351000238A9AB22B46D4E9001001F01FFA012841
:1035200002D0002004B070BD0398FBE730B59FB017
:10353000F3A106A8FFF70AFD06A8FCF7F8FE85B27E
:103540000A232A4606A9FB48FEF7CBFB0020FEF71C
:10355000C7FE044604F0080060B104F0040020B186
:10356000F5A106A8FFF7F2FC08E0FAA106A8FFF70C
:10357000EDFC03E0FEA106A8FFF7E8FC06A8FCF7B7
:10358000D6FE85B20A232A4606A9EA48FEF7A9FB19
:103590000120FEF7A5FE044604F02000002801DD0E
:1035A000012000E0002004F01001002901DD0121CC
:1035B00000E0002104F00802002A01DD012200E001
:1035C000002204F00403002B01DD012300E00023AE
:1035D000CDE90032CDE9021004F00200002801DD3F
:1035E000012000E00020034604F00100002801DD76
:1035F000012000E000200246E24906A8FFF7A6FCF1
:1036000006A8FCF794FE85B20A232A4606A9C948F3
:10361000FEF767FB0220FEF763FE044604F020007D
:10362000002801DD012000E0002004F01001002945
:1036300001DD012100E0002104F00802002A01DD83
:10364000012200E0002204F00403002B01DD01232D
:1036500000E00023CDE90032CDE9021004F00200C1
:10366000002801DD012000E00020034604F00100F5
:10367000002801DD012000E000200246C24906A822
:10368000FFF764FC06A8FCF752FE85B20A232A461F
:1036900006A9A848FEF725FB0320FEF721FE00F04F
:1036A0000304A41C2246B9A106A8FFF74FFC06A8F4
:1036B000FCF73DFE85B20A232A4606A99D48FEF77F
:1036C00010FB0520FEF70CFE044604F07F02B6A1B5
:1036D00006A8FFF73BFC06A8FCF729FE85B20A23E3
:1036E0002A4606A99348FEF7FCFA0620FEF7F8FDE5
:1036F000044604F0080020B1B0A106A8FFF726FC9C
:1037000003E0B4A106A8FFF721FC06A8FCF70FFE12
:1037100085B20A232A4606A98648FEF7E2FA04F093
:103720000604641024B9B1A106A8FFF70FFC13E04A
:10373000012C04D1B2A106A8FFF708FC0CE0022C72
:1037400004D1B4A106A8FFF701FC05E0032C03D1C6
:10375000B5A106A8FFF7FAFB06A8FCF7E8FD85B2BD
:103760000A232A4606A97348FEF7BBFA052204A9D4
:103770000A20FEF7D5FD9DF810009DF811109DF868
:103780001220CDE9002102909DF813309DF81420FD
:10379000AAA106A8FFF7DAFB06A8FCF7C8FD85B2C8
:1037A0000A232A4606A96348FEF79BFA052204A9C4
:1037B0000B20FEF7B5FD9DF810109DF811009DF847
:1037C0001220CDE9002002919DF813309DF81420BD
:1037D000A6A106A8FFF7BAFB06A8FCF7A8FD85B2CC
:1037E0000A232A4606A95348FEF77BFA012204A9B8
:1037F0000C20FEF795FD9DF81020A8A106A8FFF764
:10380000A5FB06A8FCF793FD85B20A232A4606A964
:103810004848FEF766FA012204A90D20FEF780FD54
:103820009DF81020A7A106A8FFF790FB06A8FCF7BB
:103830007EFD85B20A232A4606A93E48FEF751FAC4
:10384000012204A90E20FEF76BFD9DF81020A7A110
:1038500006A8FFF77BFB06A8FCF769FD85B20A23E3
:103860002A4606A93348FEF73CFA012204A90F2094
:10387000FEF756FD9DF81020A6A106A8FFF766FBEF
:1038800006A8FCF754FD85B20A232A4606A9294852
:10389000FEF727FA052204A91020FEF741FD9DF846
:1038A00010009DF811109DF81220CDE90021029022
:1038B0009DF813309DF81420A0A106A8FFF746FB41
:1038C00006A8FCF734FD85B20A232A4606A9194842
:1038D000FEF707FA1120FEF703FD044604F03F024D
:1038E000A1A106A8FFF732FB06A8FCF720FD85B2D0
:1038F0000A232A4606A90F48FEF7F3F9122041E1F0
:103900000D0A2A2A2A2A2A2A2A2A2A2A2A2A2A2A54
:103910002A2A2A2A2A2A2A2A2A2A2A2A2A2A2A2A07
:103920002A2A2A2A2A2A2A2A2A2A2A2A2A2A2A2AF7
:103930000D0A0000F80000204352433A0D0A09091D
:10394000456E61626C65642C203220427974657327
:10395000200D0A004352433A0D0A0909456E61627F
:103960006C65642C20312042797465200D0A0000BA
:103970004352433A0D0A090944697361626C6564F4
:10398000200D0A00384D00087C4D00085345545561
:10399000505F41573A0D0A09092564206279746520
:1039A00073200D0A0000000052465F43483A0D0A9A
:1039B00009092564204348200D0A00004461746110
:1039C00020526174653A0D0A0909324D6270732004
:1039D0000D0A00004461746120526174653A0D0A59
:1039E0000909314D627073200D0A000052465F5084
:1039F00057523A0D0A09092D31386442200D0A0048
:103A000052465F5057523A0D0A09092D313264422D
:103A1000200D0A0052465F5057523A0D0A09092DEF
:103A2000366442200D0A000052465F5057523A0D4C
:103A30000A0909306442200D0A00000052585F5004
:103A4000697065302041646472733A0D0A09092572
:103A50003032582C253032582C253032582C253015
:103A600032582C2530325820200D0A0052585F5011
:103A7000697065312041646472733A0D0A09092541
:103A80003032582C253032582C253032582C2530E5
:103A900032582C2530325820200D0A0052585F50E1
:103AA000697065322041646472733A0D0A090978BD
:103AB000782C78782C78782C78782C25303258200F
:103AC000200D0A0052585F506970653320416464CC
:103AD00072733A0D0A090978782C78782C78782C4A
:103AE00078782C2530325820200D0A0052585F502B
:103AF000697065342041646472733A0D0A0909786B
:103B0000782C78782C78782C78782C2530325820BE
:103B1000200D0A0052585F50697065352041646479
:103B200072733A0D0A090978782C78782C78782CF9
:103B300078782C2530325820200D0A005458204126
:103B4000646472733A0D0A0909253032582C253005
:103B500032582C253032582C253032582C25303212
:103B60005820200D0A00000052585F50575F503017
:103B70003A0D0A09092564206279746573200D0ADB
:103B800000000000FEF7ACFB044604F03F0270A109
:103B900006A8FFF7DBF906A8FCF7C9FB85B20A23E4
:103BA0002A4606A97148FEF79CF81320FEF798FBF9
:103BB000044604F03F026EA106A8FFF7C7F906A865
:103BC000FCF7B5FB85B20A232A4606A96748FEF72B
:103BD00088F81420FEF784FB044604F03F026BA132
:103BE00006A8FFF7B3F906A8FCF7A1FB85B20A23E4
:103BF0002A4606A95D48FEF774F81520FEF770FB0B
:103C0000044604F03F0268A106A8FFF79FF906A842
:103C1000FCF78DFB85B20A232A4606A95348FEF716
:103C200060F81620FEF75CFB044604F03F0265A135
:103C300006A8FFF78BF906A8FCF779FB85B20A23E3
:103C40002A4606A94948FEF74CF81C20FEF748FB17
:103C5000044604F02000002801DD012000E00020DF
:103C600004F01001002901DD012100E0002104F031
:103C70000802002A01DD012200E0002204F0040312
:103C8000002B01DD012300E00023CDE90032CDE966
:103C9000021004F00200002801DD012000E00020F5
:103CA000034604F00100002801DD012000E00020AF
:103CB00002464B4906A8FFF749F906A8FCF737FB6F
:103CC00085B20A232A4606A92848FEF70AF81D20CD
:103CD000FEF706FB044604F0040020B141A106A84B
:103CE000FFF734F903E045A106A8FFF72FF906A86E
:103CF000FCF71DFB85B20A232A4606A91B48FDF7DF
:103D0000F0FF04F0020020B142A106A8FFF71EF95F
:103D100003E047A106A8FFF719F906A8FCF707FB7F
:103D200085B20A232A4606A91048FDF7DAFFAFF24A
:103D3000304106A8FFF70AF906A8FCF7F8FA85B2A1
:103D40000A232A4606A90948FDF7CBFF1FB030BD5C
:103D500052585F50575F50313A0D0A0909256420C7
:103D60006279746573200D0A00000000F8000020DD
:103D700052585F50575F50323A0D0A0909256420A6
:103D80006279746573200D0A0000000052585F507C
:103D9000575F50333A0D0A0909256420627974652A
:103DA00073200D0A0000000052585F50575F5034D6
:103DB0003A0D0A09092564206279746573200D0A99
:103DC0000000000052585F50575F50353A0D0A0905
:103DD000092564206279746573200D0A00000000D3
:103DE000C84D0008454E5F44504C3A0D0A0909453C
:103DF0006E61626C6564200D0A000000454E5F44F0
:103E0000504C3A0D0A090944697361626C6564207B
:103E10000D0A0000454E5F41434B5F5041593A0D3A
:103E20000A0909456E61626C6564200D0A00000094
:103E3000454E5F41434B5F5041593A0D0A090944D1
:103E4000697361626C6564200D0A00002DE9F04120
:103E500005460E461C4807681C480068001D00F017
:103E6000F1FA50B91948006890F82C1001208840E8
:103E700017490968814316480160681C38B936B192
:103E800012480168091D134800F026FB1AE07C194E
:103E90000E4800684460BC4207D20C480168091D06
:103EA0000D48006800F0FEFA0CE008480168091DA2
:103EB0000A48006800F0F6FA09480068844201D216
:103EC00007480460BDE8F0814C0000203800002065
:103ED0005000002070050020400000203C00002021
:103EE0006800002010B5044600F002FB234800687B
:103EF000401C224908602248006840B920480460FC
:103F00000846006801280DD100F03EF90AE01D487E
:103F1000006838B91A480068C06AE16A884201D866
:103F20001748046018480068401C1749086094F856
:103F30002C1001208840154909680843134908607E
:103F4000E16A01EB8101124A02EB8100211D00F0C0
:103F5000C3FA00F0F7FA0B48006868B10848006837
:103F6000C06AE16A884207D24FF080500949086070
:103F7000BFF34F8FBFF36F8F10BD000048000020CC
:103F80003800002054000020640000205000002071
:103F90009404002004ED00E010B516E000F0A8FA4B
:103FA0000C48C068C468201D00F04CFA0A4800683C
:103FB000401E0949086009480068401E074908601A
:103FC00000F0C0FA204600F00BF804480068002812
:103FD000E4D110BD5C050020480000204400002012
:103FE00010B5044694F8510030B9206B00F0C8FABF
:103FF000204600F0C5FA1AE094F85100012803D1D8
:10400000204600F0BDFA12E094F85100022801D1D8
:10401000012000E0002050B900BF502080F311883B
:10402000BFF34F8FBFF36F8F00BF00BFFEE710BD20
:1040300030B54FF47053174800F007042CB1C01D81
:1040400020F00700134C041B1B1B0246124C22607D
:104050000024114D6C60D018083820F007000F4C78
:10406000206000240D4D2D686C600C4D2D682C6077
:104070001146441A4C60094C24680C60084D4C6889
:104080002C60084D4C682C604FF00044064D2C60AD
:1040900030BD000084050020740000207C0000205A
:1040A00084000020800000209000002000BFFFF767
:1040B00073FF064800680128F9D94FF08050044981
:1040C0000860BFF34F8FBFF36F8FF0E794040020B9
:1040D00004ED00E02DE9FF5F81460E469246DDE9E2
:1040E0000E7B109CAAF10100216B01EB800828F0E7
:1040F000070808F0070008B9012000E0002050B9C7
:1041000000BF502080F31188BFF34F8FBFF36F8F34
:1041100000BF00BFFEE786B1002507E0715D04F136
:1041200034004155705D00B902E06D1C102DF5D3CF
:1041300000BF00214320015502E0002084F8340034
:10414000072F00D30627E76267640020A064201DC4
:1041500000F0A5F904F1180000F0A1F92461C7F1FD
:104160000700A06164620020E06484F850004946C2
:104170004046039A00F050F92060BBF1000F01D0D7
:10418000CBF80040BDE8FF9F10B5002407E004EB2A
:1041900084010F4A02EB810000F074F9641C072CC3
:1041A000F5D30C4800F06EF90B4800F06BF90B48A2
:1041B00000F068F90A4800F065F90A4800F062F971
:1041C00004480949086004480849086010BD000017
:1041D000940400202005002034050020480500201C
:1041E0005C050020700500203C00002040000020FD
:1041F00010B50146164800E0006803688B42FBD307
:104200000246436813448B4204D143684C682344FC
:10421000436001460A464B6813440468A34211D127
:104220000C4C03682468A34208D04B680468646897
:1042300023444B6003681B680B6005E0054B1B685B
:104240000B6001E003680B60884200D0016010BD84
:10425000740000207C0000200A490968096809B937
:10426000012100E0002121B14FF0FF31064A116029
:1042700006E004490968C968C868034A41681160D2
:10428000704700003C000020680000200E480068D5
:10429000401C08B9012000E0002050B900BF5020A8
:1042A00080F31188BFF34F8FBFF36F8F00BF00BF44
:1042B000FEE700BF502080F31188BFF34F8FBFF39C
:1042C0006F8F00BF00BFFEE7940000202DE9F04192
:1042D00004464FF0000800F03FFA4948006808B96A
:1042E000FFF7A6FE474800682040002870D1D4B1EF
:1042F000083404F00700B0B104F00700C0F1080072
:10430000044404F0070008B9012000E0002050B97F
:1043100000BF502080F31188BFF34F8FBFF36F8F22
:1043200000BF00BFFEE7002C52D03748006884422F
:104330004ED8364E3046056801E02E462D68686836
:10434000A04202D228680028F7D12D480068854293
:104350003ED0306800F10808286830606868001BAB
:10436000102819D92F1907F0070008B9012000E01B
:10437000002050B900BF502080F31188BFF34F8F49
:10438000BFF36F8F00BF00BFFEE76868001B786057
:104390006C603846FFF72CFF1B4968680968081AEB
:1043A000194908600846006819490968884203D21B
:1043B000154800681649086012496868096808438A
:1043C00068600020286013480068401C114908609C
:1043D00000F0F8FB08F0070008B9012000E0002019
:1043E00050B900BF502080F31188BFF34F8FBFF347
:1043F0006F8F00BF00BFFEE74046BDE8F0810000C0
:104400007C0000209000002080000020740000202C
:104410008400002088000020001F4FF0807303609C
:10442000001F21F001030360001F054B03601438D7
:104430000260001F6FF00203036020387047000025
:104440008D42000801460A69D1E901309860D1E93E
:10445000010358605068884201D18868506000208C
:1044600008611068401E106010687047034B0360BD
:10447000034B0B608023136070470000F80100209D
:104480004C02002000F1080141604FF0FF318160D3
:1044900000F10801C1600161002101607047002145
:1044A0000161704710B502460B685C1C0CB91069BD
:1044B00007E002F1080000E04068446824689C427C
:1044C000FAD944684C604C68A160886041600A6118
:1044D0001468641C146010BD42684A6093688B6065
:1044E000936859609160086103685B1C03607047C2
:1044F00000BF502080F31188BFF34F8FBFF36F8F41
:1045000000BF0E480068401C0C490860084600685F
:10451000012812D10A480068C0B208B9012000E0A1
:10452000002050B900BF502080F31188BFF34F8F97
:10453000BFF36F8F00BF00BFFEE7704794000020FD
:1045400004ED00E00D48006850B900BF502080F332
:104550001188BFF34F8FBFF36F8F00BF00BFFEE71F
:1045600006480068401E054908600846006820B9F2
:10457000002080F3118800BF00BF70479400002026
:1045800070B506463546002E44D0083D2C462249DB
:1045900060680968084008B1012000E0002050B9B7
:1045A00000BF502080F31188BFF34F8FBFF36F8F90
:1045B00000BF00BFFEE7206808B9012000E000202E
:1045C00050B900BF502080F31188BFF34F8FBFF365
:1045D0006F8F00BF00BFFEE70F49606809680840A1
:1045E000C0B12068B0B90C49606809688843606050
:1045F00000F0B2F809496068096808440749086092
:104600002046FFF7F5FD06480068401C0449086095
:1046100000F0D8FA70BD000090000020800000205B
:104620008C00002000204FF0E021086188610648DE
:1046300000684FF47A71B0FBF1F0401E4FF0E021BA
:1046400048610720086170473400002070B50446B7
:104650000025D4B11248006808B9012000E000200C
:1046600050B900BF502080F31188BFF34F8FBFF3C4
:104670006F8F00BF00BFFEE700F06EF800212046FC
:10468000FFF7E4FB00F09EFA05463DB94FF080507D
:1046900004490860BFF34F8FBFF36F8F70BD0000F8
:1046A0007000002004ED00E010B586B000200590F9
:1046B000049003AA04A905A8FFF7D8FE0022DDE9AB
:1046C00004101346CDE9002102901CA11D48039A55
:1046D00000F076F91C4908600846006808B101241A
:1046E00000E00024012C15D100BF502080F3118878
:1046F000BFF34F8FBFF36F8F00BF4FF0FF301349F1
:10470000086001201249086000201249086000F08A
:1047100071F810E0601C08B1012000E0002050B9E1
:1047200000BF502080F31188BFF34F8FBFF36F8F0E
:1047300000BF00BFFEE706B010BD000049444C4575
:1047400000000000AD4000086C0000206800002060
:10475000540000204C00002002480068401C014921
:1047600008607047700000201D48006818B10120E3
:104770001C49086032E000201A4908601A480068A5
:10478000B0FA80F0C0F11F0101EB8100174A52F826
:10479000200008B1012000E0002050B900BF5020E7
:1047A00080F31188BFF34F8FBFF36F8F00BF00BF3F
:1047B000FEE701EB81020D4B03EB82004268526879
:1047C000426000F108024368934202D14268526895
:1047D00042604268D268064B1A6000BF7047000012
:1047E000700000205C000020500000209404002095
:1047F000380000201CB5524800685249884201D058
:10480000012000E0002050B900BF502080F3118843
:10481000BFF34F8FBFF36F8F00BF00BFFEE7484865
:1048200000684849491E884201D0012000E000206C
:1048300050B900BF502080F31188BFF34F8FBFF3F2
:104840006F8F00BF00BFFEE73F4908460078019028
:10485000FF200A4610700846007800909DF800007E
:1048600000F0F0009DF80020904201D1012000E00E
:10487000002050B900BF502080F31188BFF34F8F44
:10488000BFF36F8F00BF00BFFEE79DF8000000F090
:1048900050002E4A107007202D4A106009E02C4865
:1048A0000068401E2A4A10609DF800004006000E75
:1048B00000909DF8000000F080008028EFD0244890
:1048C0000068C0F10700042801D1012000E00020A9
:1048D00050B900BF502080F31188BFF34F8FBFF352
:1048E0006F8F00BF00BFFEE7194800680002184A3A
:1048F00010601046008800F4E0601060124A0198D1
:1049000010700F482030006840F470000C492031CE
:1049100008600846006840F070400860FFF782FEBB
:1049200000200C490860FBF75FFC0B48006840F072
:10493000404009490860FBF743FC00201CBD000013
:1049400000ED00E071C20F4100E400E0980000209B
:104950009C0000209400002034EF00E02DE9FF4F80
:1049600085B0804689461746DDE912ABB800FFF7EF
:10497000ADFC064656B15420FFF7A8FC04460CB126
:10498000266304E03046FFF7FBFD00E000248CB115
:10499000002084F85100CDE900ABCDE902403A4651
:1049A00049464046089BFFF795FB2046FFF79AFAD9
:1049B000012501E04FF0FF35284609B0BDE8F08F32
:1049C0002DE9F04F85B00746884691469A46DDE9C5
:1049D0000EB6109C0EB1012000E0002050B900BFBF
:1049E000502080F31188BFF34F8FBFF36F8F00BF4C
:1049F00000BFFEE70CB1012000E0002050B900BF6D
:104A0000502080F31188BFF34F8FBFF36F8F00BF2B
:104A100000BFFEE7542003900398542801D10120E1
:104A200000E0002050B900BF502080F31188BFF390
:104A30004F8FBFF36F8F00BF00BFFEE700BFB4B161
:104A4000AEB125462C462E63022085F85100002089
:104A500004A953464A46CDE900B1CDE9025041468A
:104A60003846FFF737FB2846FFF73CFA01E0002005
:104A70000490049805B0BDE8F08F00002DE9F041E6
:104A80004FF000084448006800287CD14348006883
:104A9000451C4248056015BB41480068006808B9DC
:104AA000012000E0002050B900BF502080F31188A1
:104AB000BFF34F8FBFF36F8F00BF00BFFEE73848D3
:104AC0000768384800683649086036480760364845
:104AD0000068401C34490860FFF7BEFB00BF334844
:104AE000006885423CD300BF2D480068006808B9C3
:104AF000012000E0002020B14FF0FF302B4908607A
:104B00002DE027480068C068C4686668B54202D2D4
:104B10002648066023E0201DFFF794FCA06A18B128
:104B200004F11800FFF78EFC94F82C100120884047
:104B30001F49096808431E490860E16A01EB8101C9
:104B40001C4A02EB8100211DFFF7C6FC1A49E06AEE
:104B50000968C96A8842C7D34FF00108C4E700BF9B
:104B600015480068C06A00EB8000124951F8200027
:104B7000012801D94FF001081048006808B14FF032
:104B8000010805E0FFE70E480068401C0C4908607A
:104B90004046BDE8F0810000700000204C0000207D
:104BA0003C00002040000020600000206800002041
:104BB0005000002094040020380000205C000020F9
:104BC0005800002070B5002400263648006850B90F
:104BD00000BF502080F31188BFF34F8FBFF36F8F5A
:104BE00000BF00BFFEE7FFF783FC2E480068401EB1
:104BF0002C4908600846006800284FD12A48006800
:104C000000284BD024E02948C068C46804F118008B
:104C1000FFF718FC201DFFF715FC94F82C1001205D
:104C2000884023490968084321490860E16A01EB8B
:104C30008101204A02EB8100211DFFF74DFC1E4936
:104C4000E06A0968C96A884202D301201B490860EA
:104C50001648006808B9012000E000200028D2D0E2
:104C60000CB1FFF7F9FA1648056865B100BFFFF708
:104C700005FF10B10120114908606D1E002DF6D10D
:104C800000200F4908600D48006838B10126300740
:104C90000C490860BFF34F8FBFF36F8FFFF752FCD3
:104CA000304670BD700000204800002048050020FC
:104CB0005000002094040020380000205C000020F8
:104CC0005800002004ED00E00A0B0C0D0E0F10112F
:104CD00012131415160000000A0B0C0D0E0F101104
:104CE0001213141516000000144E00086527000862
:104CF0000200000000000000800000000000000032
:104D000000000000204E000861270008000000009D
:104D10000000000080000000000000000000000013
:104D2000000000000000000001020304060708095B
:104D30000000000001020304454E41413A0D0A09FA
:104D40000950303A0925640D0A090950313A0925FC
:104D5000640D0A090950323A0925640D0A090950FF
:104D6000333A0925640D0A090950343A0925640DBE
:104D70000A090950353A0925640D0A00454E5F526B
:104D800058414444523A0D0A090950303A09256401
:104D90000D0A090950313A0925640D0A09095032F2
:104DA0003A0925640D0A090950333A0925640D0AA8
:104DB000090950343A0925640D0A090950353A09A0
:104DC00025640D0A0000000044594E50445F70698C
:104DD00070653A0D0A090950303A0925640D0A092F
:104DE0000950313A0925640D0A090950323A09255A
:104DF000640D0A090950333A0925640D0A0909505E
:104E0000343A0925640D0A090950353A0925640D1B
:104E10000A0000006E524632344C3031000000006F
:104E200048656C6C6F554152543100004C4E00087F
:104E300000000020A0000000AC2F0008EC4E00088D
:104E4000A0000020E8440000BC2F00080000000083
:104E50000000000000000000000000000000000052
:104E6000000000000000000000000000AA443322FF
:104E70001100000000000000100000000100000010
:104E80000024F4000000000000000000000000000A
:104E90000000000000000000000000000000000012
:104EA0000000000000000000000000000000000002
:104EB00000000000000000000000000000000000F2
:104EC00000000000000000000000000000000000E2
:104ED00000000000000000000000000000000000D2
:0C4EE000AAAAAAAA00000000000000001E
:040000050800018965
:00000001FF
