:020000040800F2
:1000000060040020A1010008D71100083B1100087E
:10001000D5110008AD02000893140008000000008C
:10002000000000000000000000000000DB110008DC
:10003000AF02000800000000D9110008DD1100081F
:10004000BB010008BB010008BB010008BB010008A0
:10005000BB010008BB010008BB010008BB01000890
:10006000BB010008BB010008BB010008BB01000880
:10007000BB010008BB010008BB010008BB01000870
:10008000BB010008BB010008BB010008BB01000860
:10009000BB010008BB010008BB010008BB01000850
:1000A000BB010008BB010008BB010008BB01000840
:1000B00085120008BB010008BB010008BB01000855
:1000C000BB010008BB010008BB010008BB01000820
:1000D000BB010008BB010008BB010008BB01000810
:1000E000BB010008BB010008BB010008BB01000800
:1000F000BB010008BB010008BB010008BB010008F0
:10010000BB010008BB010008BB010008BB010008DF
:10011000BB010008BB010008BB010008BB010008CF
:10012000BB010008BB010008BB010008BB010008BF
:10013000BB010008BB010008BB010008BB010008AF
:10014000BB010008BB010008BB010008BB0100089F
:10015000BB010008BB010008BB010008BB0100088F
:10016000BB010008BB010008BB010008BB0100087F
:10017000BB010008BB010008BB0100080000000033
:10018000BB010008BB010008DFF810D000F07CF8CC
:1001900000480047D5140008AFF300806004002039
:1001A0000648804706480047FEE7FEE7FEE7FEE711
:1001B000FEE7FEE7FEE7FEE7FEE7FEE77512000852
:1001C000890100082DE9F05F0546002092469B4614
:1001D00088460646814640241BE02846414647465D
:1001E000224600F041F853465A46C01A914110D3B6
:1001F00011461846224600F028F82D1A67EB010830
:100200004F4622460120002100F01FF817EB00099D
:100210004E41201EA4F10104DFDC484631462A4647
:100220004346BDE8F09FD2B201E000F8012B491E21
:10023000FBD270470022F6E710B513460A46044683
:100240001946FFF7F0FF204610BD202A04DB203AB4
:1002500000FA02F1002070479140C2F1200320FA19
:1002600003F3194390407047202A04DB203A21FA17
:1002700002F00021704721FA02F3D040C2F12002BF
:100280009140084319467047064C074D06E0E06868
:1002900040F0010394E8070098471034AC42F6D3CD
:1002A000FFF776FF3415000854150008FEE7704785
:1002B0002DE9F84FDFF8B8A1002201250AF1040B5F
:1002C00003264FF00F090BF1040E00BF0B6805FA6F
:1002D00002F42340A3426FD10F7907F00307012FE7
:1002E00001D0022F16D187684FEA420806FA08FCAF
:1002F00027EA0C07D1F80CC00CFA08FC4CEA070CF2
:10030000C0F808C04768A7430C79C4F300149440B0
:100310003C4344600C79E443A4070AD0C4684FEA24
:10032000420C06FA0CF7BC438F6807FA0CF7274318
:10033000C7600C7904F00304022C12D1D40800EB3E
:10034000840CDCF820405707FF0E09FA07F824EA6E
:100350000804D1F8108008FA07F848EA0408CCF835
:10036000208004684FEA420C06FA0CF7BC430F7970
:1003700007F0030707FA0CF7274307604C68E4000F
:1003800070D53C4C276847F480472760246822F0EA
:10039000030704F480440094374C07EB040CDCF8AA
:1003A000084897074FEA177809FA08F7BC43334F14
:1003B000B84202D1002724E054E0314FB84201D1C5
:1003C00001271EE02F4FB84201D1022719E02E4F1E
:1003D000B84201D1032714E02C4FB84201D10427C1
:1003E0000FE02B4FB84201D105270AE0294FB84250
:1003F00001D1062705E0284FB84201D1072700E0C8
:10040000082707FA08F72743CCF80878DAF80040FD
:100410005746D1F804C09C435FEACC3C00D51C434E
:100420003C60DBF800405F46D1F804C09C435FEAC3
:100430008C3C00D51C433C60DEF800407746D1F888
:1004400004C09C435FEACC2C00D51C433C60084FA1
:100450000C373C68D1F804C09C435FEA8C2C00D573
:100460001C433C60521C102AFFF430AFBDE8F88FEB
:10047000003C01404438024000300140000002408E
:100480000004024000080240000C0240001002403C
:100490000014024000180240001C0240014880681D
:1004A000704700000800002002488168027811446B
:1004B00081607047080000200B4810B5016841F4C6
:1004C00000710160016841F480610160016841F4DC
:1004D00080710160032000F06FF8002000F006F842
:1004E00000F024F8002010BD003C024070B50D4D16
:1004F00004464FF47A712878B1FBF0F00A49096894
:10050000B1FBF0F000F0EAFA48B9102C07D2002253
:100510002146501E00F030F800206C6070BD0120B4
:1005200070BD000008000020140000200A4808B533
:10053000016841F480410160006800F4804000904F
:100540000548001F016841F080510160006800F01B
:100550008050009008BD000044380240002809DBAC
:1005600000F01F02012191404009800000F1E020CD
:10057000C0F8001170470000F0B40E4B1B680C4629
:10058000C3F30223C3F10705042D00D90425191D67
:10059000072901D2002300E0DB1E012606FA05F13F
:1005A000491E214099409E40761E16403143F0BCC2
:1005B00000F070BF0CED00E0064900F0070208688B
:1005C0004FF6FF03184040EA0220034A1043086038
:1005D000704700000CED00E00000FA052DE9F0473F
:1005E0000E46050065D0DFF81481D8F80000F7B298
:1005F00000F00700B04207D288F80070D8F8000079
:1006000000F00700B04254D128683D4C810712D554
:10061000400703D5206840F4E050206028780007A8
:1006200003D5206840F4604020602068A96820F06D
:10063000F000084320602878C0072DD03049686852
:100640000839012812D0022813D0032811D00968D4
:10065000890700292DDA216821F003010143216077
:10066000FFF71CFF814641F2883A0EE009688903D2
:10067000EFE709688901ECE7FFF710FFA0EB09013C
:10068000514502D90320BDE8F0872068696800F071
:100690000C00B0EB810FEFD1D8F80010404601F00C
:1006A0000701B14207D90770006800F00700B042A7
:1006B00001D00120E7E72878400705D52068E968E0
:1006C00020F4E050084320602878000706D5206811
:1006D000296920F4604040EAC100206000F018F869
:1006E0002168084AC1F30311515CC84006490860FB
:1006F00006480068FFF7FAFE0020C4E7003C02400D
:100700000838024024150008140000200C000020C6
:10071000154810B5006810F00C02144813D04110B1
:10072000042A0FD0082A0ED10F4C241F22682368F8
:1007300002F03F025B0207D52068C0F38810A0FBDF
:10074000010106E0084610BD2168C1F38811A1FB34
:1007500000010023FFF736FD2168C1F30141491C68
:100760004900B0FBF1F010BD083802400024F4004D
:100770002DE9F84F04006ED02078DFF84C93C007C5
:10078000A9F104054AD009F104000168C1F381010F
:10079000012908D00068C0F3810002280AD1D9F8E5
:1007A0000000400206D52868800337D5606800281D
:1007B000E1D033E06068B0F5803F10D0B0F5A02FF5
:1007C000286810D020F480302860286820F4802029
:1007D00028606068A8B1FFF761FE06460DE0286852
:1007E00040F48030F4E740F480202860F7E700BF51
:1007F000FFF754FE801B642873D828688003F7D560
:100800000CE0FFF74BFE064605E000BFFFF746FE93
:10081000801B6428F0D828688003F7D42078DFF89C
:10082000AC8280074FF0000A3ED5A748001D016842
:1008300011F00C0F08D00068C0F3810002280BD122
:10084000D9F80000400207D42868800716D5E06870
:10085000012800D112E033E1E068B8B10120C8F806
:100860000000FFF71BFE064605E000BFFFF716FE7F
:10087000801B0228C0D828688007F7D5286821691E
:1008800020F0F80040EAC10028600DE0C8F800A0A0
:10089000FFF704FE064604E0FFF700FE801B022877
:1008A0001FD828688007F7D42078000722D5864F04
:1008B00087486169703771B101210160FFF7EEFD72
:1008C000064604E0FFF7EAFD801B022809D83868D5
:1008D0008007F7D50EE0C0F800A0FFF7DFFD064661
:1008E00005E082E0FFF7DAFD801B02287DD838683A
:1008F0008007F7D42078400768D5DFF8CCB100270F
:100900000BF13C0BDBF80000C0000BD4DBF800104F
:1009100041F08051CBF80010DBF80000012700F017
:10092000805000906B4E3068C00510D4306840F4A1
:1009300080703060FFF7B2FD009005E0FFF7AEFD7C
:100940000099401A022850D83068C005F6D55E4E8E
:10095000A0686C3601280FD00528306810D020F030
:1009600001003060306820F004003060A068B8B149
:10097000FFF794FD00900FE0306840F00100F4E7CD
:1009800040F004003060F7E7FFF788FD0099411A56
:1009900041F28830814266D830688007F4D50EE095
:1009A000FFF77CFD009007E0FFF778FD0099411A02
:1009B00041F28830814256D830688007F4D42FB194
:1009C000DBF8001021F08051CBF80010A069C8B30B
:1009D0003D49091D0968C1F3810102294AD0022855
:1009E000504607D0C8F8600000E03CE0FFF756FD35
:1009F00004463BE04746C8F86000FFF74FFD064657
:100A000005E000BFFFF74AFD801B02282BD82868AD
:100A10008001F7D4D4E907010843A16A2E4A4908A6
:100A200002EB0141626A41EA8211084394F82C10FA
:100A300040EA0161C9F8001001203866FFF72EFD79
:100A4000044606E03EE000BFFFF728FD001B022839
:100A500009D828688001F7D534E000BFFFF71EFDF4
:100A6000001B022802D90320BDE8F88F2868800106
:100A7000F4D427E00128F7D0D9F80000E26900F4A7
:100A8000800191421CD1226A00F03F01914217D1AE
:100A900047F6C071626A0140B1EB821F10D1A26AB1
:100AA0004FF0FF3300F4403103EB5202B1EB024F41
:100AB00006D194F82C1000F07060B0EB016F01D0FB
:100AC0000120D1E70020CFE7043802400000474270
:100AD000800E4742007000400000FFFF10B5401E2E
:100AE000B0F1807F01D3012010BD4FF0E0246061A0
:100AF0000F21601700F0CEFC0020A06107202061CC
:100B0000002010BD7047704770B590F83C20012A56
:100B100032D0012480F83C40022280F83D20036856
:100B20005A689D6822F070060A6832435A60134B77
:100B300002689A4214D0B2F1804F11D0104B9A4201
:100B40000ED0104B9A420BD00F4B9A4208D00F4B4D
:100B50009A4205D00E4B9A4202D00E4B9A4204D1D3
:100B6000496825F080031943916080F83D400021D9
:100B700080F83C10084670BD022070BD00000140A6
:100B80000004004000080040000C00400004014048
:100B9000004001400018004010B5040003D094F854
:100BA0003D0010B107E0012010BD002084F83C009A
:100BB000204600F01FF8022084F83D00211D206827
:100BC00000F066FB012084F8460084F83E0084F8BB
:100BD0003F0084F8400084F8410084F8420084F823
:100BE000430084F8440084F8450084F83D00002068
:100BF00010BD000010B586B0044614216846FFF70A
:100C000019FB2068B0F1804F26D1144800210268FA
:100C100042F001020260006800F0010005900F48F8
:100C20001038026842F0010202600068022200F0FF
:100C30000100059001200090CDE90121CDE90310CC
:100C400069460748FFF734FB002211461C20FFF7D6
:100C500093FC1C20FFF782FC06B010BD4038024018
:100C60000000024070B5044690F83C00012817D0FF
:100C7000012584F83C50022084F83D0020688268F9
:100C800022F0770222F47F4282600868502830D038
:100C90000DDC20284DD005DC98B310283BD148E06E
:100CA000022070BD302844D0402834D139E060287B
:100CB00028D0702806D0B0F5805F2CD0B0F5005F4A
:100CC00029D10AE0CB68D1E90121206800F051FB6D
:100CD0002068816841F0770109E0CB68D1E9012102
:100CE000206800F046FB2068816841F48041816003
:100CF00011E0CA684968206800F04DFB5021206867
:100D000007E016E0CA684968206800F095FB60219A
:100D1000206800F038FB84F83D50002084F83C0047
:100D200070BDCA684968206800F035FB4021206822
:100D3000EFE7226801461046EBE700000068B0F1DB
:100D4000804F04D102480068406A024948607047F9
:100D500018000020000000202DE9F041054690F821
:100D60003C000C46012836D0012085F83C008AB3AF
:100D7000042A42D02868082A51D0D4E90023E16827
:100D8000066A26F480560662C669076A26F440762B
:100D900046EA03234FF6FF7606EA013123F4704357
:100DA00019434FF4204627F4204306EA02321A433F
:100DB000C16102622868C16921F44061C16128688B
:100DC000C169A26841EA0221C161002085F83C00A6
:100DD000BDE8F08101E00220FAE7D4E90012E368FF
:100DE000286800F0E9FA2868816921F00C01816126
:100DF00028688169A26811430FE0D4E90012E36812
:100E0000286800F02BFB2868816921F4406181612A
:100E100028688169A26841EA02218161D5E7D4E9A5
:100E20000027267B016A21F480710162C169036A8F
:100E300021F00301394321F0F00731074FF4206618
:100E400047EA116123F4206306EA02221A43C161D2
:100E500002622868C16921F00C01C1612868C1697A
:100E6000A2681143B0E710B5040003D094F83D0028
:100E700010B107E0012010BD002084F83C0020469E
:100E800000F01EF8022084F83D00211D206800F0CB
:100E9000FFF9012084F8460084F83E0084F83F0002
:100EA00084F8400084F8410084F8420084F843004C
:100EB00084F8440084F8450084F83D00002010BD0B
:100EC0007047000010B5044651B104290DD008291F
:100ED00010D094F8410094F84520012811D10EE07B
:100EE00094F83E0094F84220F7E794F83F0094F815
:100EF0004320F2E794F8400094F84420EDE7012AFB
:100F000001D0012010BD022051B1042911D00829BF
:100F100018D084F8410084F845000C291BD142E028
:100F200084F83E0084F842002068C26842F0020261
:100F300010E084F83F0084F843002068C26842F063
:100F4000040207E084F8400084F844002068C26886
:100F500042F00802C2600122206800F0FDF9144945
:100F60002068884214D0B0F1804F11D011498842D6
:100F70000ED0114988420BD01049884208D0104940
:100F8000884205D00F49884202D00F49884204D1D7
:100F9000816801F00701062903D0016841F00101D1
:100FA0000160002010BD2068C26842F01002D1E745
:100FB000000001400004004000080040000C004018
:100FC00000040140004001400018004070B5044694
:100FD000006801694FF00005C943890715D4C1684D
:100FE000C943890711D4E91E0161012020772068D7
:100FF00080698007204602D0FFF7A0FE04E000F0E1
:1010000098F8204600F096F8257720680169C943D2
:10101000490717D4C168C943490713D46FF00401C5
:101020000161022020772068806910F4407F20460B
:1010300002D0FFF783FE04E000F07BF8204600F0CA
:1010400079F8257720680169C943090716D4C16872
:10105000C943090712D46FF0080101610420207709
:101060002068C0698007204602D0FFF767FE04E0D1
:1010700000F05FF8204600F05DF8257720680169F0
:10108000C943C90617D4C168C943C90613D46FF050
:1010900010010161082020772068C06910F4407FAA
:1010A000204602D0FFF74AFE04E000F042F8204656
:1010B00000F040F8257720680169C943C90708D1C5
:1010C000C168C943C90704D1891E0161204600F0E7
:1010D00032F820680169C943090609D4C168C943C7
:1010E000090605D46FF0800101612046FFF70AFD73
:1010F00020680169C943490609D4C168C943490642
:1011000005D46FF040010161204600F015F8206819
:101110000169C94389060BD4C168C943890607D44C
:101120006FF0200101612046BDE87040FFF7EBBC85
:1011300070BD7047704770477047FEE710B58AB0C2
:101140000024224804940594069407940894099472
:101150000094019402944FF0804103940160A72110
:10116000C0E901141A49C0E903148461FFF714FDB2
:1011700008B172B6FEE74FF48050049004A91348FA
:10118000FFF770FD08B172B6FEE71048FFF76BFE7F
:1011900008B172B6FEE7089408A90C480994FFF755
:1011A000B3FC08B172B6FEE7022000900120CDE941
:1011B00001040022694605480394FFF7CDFD00288D
:1011C00001D072B6FEE70AB010BD00001800002082
:1011D0003F420F00FEE7FEE770477047FFF764B934
:1011E00030B593B030216846FFF724F814210CA8DD
:1011F000FFF720F81D480025016841F0805101608B
:10120000006800F0805011901948016841F4804155
:1012100001600068022400F48040119001200390D6
:1012200010200490009406940820CDE90750A820CF
:10123000CDE9090404200B906846FFF799FA08B13C
:1012400072B6FEE70CA90F2081E831004FF4A050E0
:101250000F904FF48050109005210CA8FFF7BEF9B5
:10126000002801D072B6FEE713B030BD403802400E
:10127000007000400248016841F47001016070474D
:1012800088ED00E00148FFF7A1BE00001800002033
:10129000F0B50268254C264D264E274F274B4FF0C0
:1012A000804CA04209D0604507D0A84205D0B0428A
:1012B00003D0B84201D0984204D122F0700E4A689F
:1012C00042EA0E02A0421BD0604519D0A84217D0B6
:1012D000B04215D0B84213D0984211D0184DA84250
:1012E0000ED0184DA8420BD0174DA84208D0174D6C
:1012F000A84205D0164DA84202D0164DA84203D1EF
:1013000022F44075CA682A434D6922F080022A43BC
:1013100002608A68C2620A688262A04201D0984272
:1013200001D10969016301214161F0BD0000014063
:101330000004004000080040000C00400004014090
:1013400000400140004401400048014000180040B6
:10135000001C00400020004010B501F01F030121D7
:10136000046A99408C430462016A9A401143016205
:1013700010BD10B5846842EA032224F47F440A4376
:101380002243826010BD826822F070020A4342F05C
:1013900007018160704710B5036A046A24F00104F4
:1013A0000462846924F0F00444EA021423F00A027F
:1013B0000A438461026210BD70B5046A24F001041E
:1013C00004628469056A154EB04214D0B0F1804FB2
:1013D00011D0134EB0420ED0124EB0420BD0124E6E
:1013E000B04208D0114EB04205D0114EB04202D0EA
:1013F000104EB04203D124F00304144301E044F042
:1014000001041A0724F0F00444EA126225F00A03EA
:1014100001F00A0119438261016270BD00000140C0
:101420000004004000080040000C0040000401409F
:10143000004001400018004010B5036A23F010037B
:1014400003628369046A23F4704343EA023224F09E
:10145000A00343EA01118261016210BD30B5046A44
:1014600024F0100404628469056A24F4407444EA98
:10147000022222F470444FF6FF7202EA0332224342
:10148000A02425F0A00304EA01111943826101623E
:1014900030BDFEE70907090E002804DB00F1E0205B
:1014A00080F80014704700F00F0000F1E02080F891
:1014B000141D704702E008C8121F08C1002AFAD1A3
:1014C00070477047002001E001C1121F002AFBD1C4
:1014D0007047000008B5FEF7EFFFFFF781FE0E48EA
:1014E000016841F080010160016801F08001009114
:1014F000016841F001010160006800F00100009006
:10150000FFF71CFE00210548FFF7DCFC03480449F7
:101510000068426A0A60FCE7303802401800002088
:101520000000002000000000000000000102030491
:1015300006070809541500080000002018000000E4
:10154000B41400086C1500081800002048040000BE
:10155000C4140008000000000000000001000000AA
:0C15600010000000000000000024F40057
:040000050800018965
:00000001FF
